:020000041000EA
:1000000000B5324B212058609868022188439860DF
:10001000D860186158612E4B002199600221596106
:100020000121F02299502B49196001219960352056
:1000300000F044F80222904214D00621196600F024
:1000400034F8196E01211966002018661A6600F04E
:100050002CF8196E196E196E052000F02FF8012189
:100060000842F9D1002199601B49196000215960AB
:100070001A491B48016001219960EB211966A021F2
:10008000196600F012F800219960164914480160C1
:100090000121996001BC002800D000471248134993
:1000A000086003C880F30888084703B5996A0420EC
:1000B0000142FBD001200142F8D103BD02B5186610
:1000C0001866FFF7F2FF186E186E02BD00000240BE
:1000D000000000180000070000035F00212200005C
:1000E000F4000018222000A00001001008ED00E03C
:1000F00000000000000000000000000074B24E7A12
:1001000000200420F7010010C3010010C5010010F9
:10011000C1010010C1010010C1010010C101001097
:10012000C1010010C1010010C1010010C701001081
:10013000C1010010C1010010C9010010CB01001065
:10014000CD010010CD010010CD010010CD01001037
:10015000CD010010CD010010CD010010CD01001027
:10016000CD010010CD010010CD010010CD01001017
:10017000CD010010CD010010CD010010CD01001007
:10018000CD010010CD010010CD010010CD010010F7
:10019000CD010010CD010010CD010010CD010010E7
:1001A000CD010010CD010010CD010010CD010010D7
:1001B000CD010010CD010010CD010010CD010010C7
:1001C00000BE00BE00BE00BE00BE00BEEFF3058054
:1001D000103800BEF2EB8871E4070610080806101C
:1001E0003402001090A31AE700201F49086006C8D7
:1001F00081F3088810471D48006800282FD10DA4FE
:100200000ECC002902D000F012F8F9E71849194A7B
:10021000002000E001C19142FCD1174988471749ED
:1002200088471749884700BEFDE701C901C29A42C5
:10023000FBD3704708080610C0000020F81C0020FF
:100240004024061000000420000004204024061072
:10025000001004200010042000000000704709482E
:1002600004F086FA0047000008ED00E0000000D02E
:10027000F81C0020C08F0020F12E00103D0500105A
:100280001D3000105756000006005250ABB36053AB
:100290002409021006005250861C03023409021081
:1002A000060052505422A29D4009021005005250EF
:1002B000DE65F46840240610F8B5C0460448054BD6
:1002C00010B5834203D0044B002B00D0984710BDDB
:1002D000F81C0020F81C0020000000000648074918
:1002E000091A8910CB0F591810B5491003D0044BC7
:1002F000002B00D0984710BDF81C0020F81C0020EF
:100300000000000010B5074C2378002B09D1FFF73F
:10031000D5FF054B002B02D0044800E000BF0123AD
:10032000237010BD681E00200000000078FF01103F
:10033000054B10B5002B03D00449054800E000BF71
:10034000FFF7CCFF10BDC046000000006C1E00206F
:1003500078FF011010B50B490B481EF07DFD0321FD
:100360000E2000F0E3FC03210F2000F0DFFC002250
:1003700001210E2000F0F2FC002201210F2000F0EC
:10038000EDFC10BDA08601008814002010B50421EA
:10039000082000F0CBFC04220B4B1A600B4B0C4ADC
:1003A0001A66C822D2005A650A4B1A680A4B534093
:1003B0001B040A4A1B0C1360094B1A680123934360
:1003C000084A136010BDC046A88300200000054005
:1003D000A86100005C000540530700005C10054068
:1003E000500005405010054010B50421122000F0C7
:1003F0009DFC0122114B12491A60124B10205962C8
:1004000080219961104B11491B681B041B0C0B6068
:100410000F4B1B689A430F4B1A6000F025FD11200B
:1004200000F022FDD023802180221B064902920287
:1004300059625A6299619A6110BDC046AC8300202E
:10044000117A000000000540200005402010054002
:100450001400054014100540F8B5002913D0942865
:1004600005D86B284BD801290FD1012616E00129A8
:100470004FD1D02380221B0652025A618022920261
:100480009A6102260AE06B2847D8D02380221B06F7
:1004900052029A618022012692025A61214B1F6802
:1004A00004F088FC0022204B04F0F3FB04F09AFCDB
:1004B000C317C018584004F07DFCFE2300229B05A2
:1004C00004F00BFC0022194B04F007FC184B04004D
:1004D00018680D0004F06AFC02000B0020002900DF
:1004E00004F0FBFB0022134B04F0DDFB04F09EFC48
:1004F0007840114B0004000C18603000F8BDD02388
:1005000080221B0652029A61802292029A61002682
:10051000C4E70229ADD10226C0E700269428BDD940
:10052000A7E7C04620000540000060408084DE4010
:10053000481300200000594020100540F0B5DE4669
:1005400057464E464546E0B58BB005F013F8FFF729
:100550004BFFFFF71BFFFFF7FDFECA4801F072FCDF
:10056000C94804F07DFFC94B1B68180004931EF0B6
:10057000AFFD041E00D07CE1C54804F071FFFA20F5
:10058000800001F05FFCC3481EF062FBFA2080008F
:1005900001F058FCC04BC14D9946C14B07AC984681
:1005A000C04B9A46C04B9B46642001F04BFC200098
:1005B00000F04EFB4B46E0781968FFF74DFF4B46C5
:1005C00042461860B94B10681B68049304F0EEFBB8
:1005D0000022B74B04F067FBB64AB74B04F07DFB33
:1005E000060020790F0004F0E5FB0022B34B04F075
:1005F00050FB02000B003000390004F06EFBFE23BC
:1006000000229B0504F069FB2A686B6804F046FB36
:100610000022AB4B04F061FB04F008FC049B228831
:1006200058400004A74B000C186080239B019A429D
:1006300000D1BDE0237A002B4DD15B461B68622BB5
:100640003DD92388012B00D17EE0022B00D196E01A
:10065000202B1FD10C2004F0B7FE9B4804F000FFB4
:100660002868696843461F685B46984A1E68984B2D
:1006700004F00FFB8F4A904B04F015FB954B0022C2
:1006800004F02BFB3A00009001913100924804F0F5
:1006900065FF2388102B00D1B3E0802252009342E3
:1006A00000D081E70C2004F08FFE8C4804F0D8FEC7
:1006B0008B4804F0D5FE8B4804F0D2FE74E70C2082
:1006C00004F082FE5B465A461B688748023313607B
:1006D00004F044FF237A042B0FD15B461B68012BE7
:1006E000AFD90C2004F070FE5B465A461B687F4869
:1006F000023B136004F032FF237A022B0FD14346F2
:100700001B682C2B9DD80C2004F05EFE434642460D
:100710001B6877480133136004F0A2FE237A062B8E
:100720008FD143461B68002B8BD00C2004F04CFE6D
:10073000434642461B686F48013B136004F090FE3D
:100740002388012B00D080E7286869686A4A6B4BD0
:1007500004F010FB002800D126E70C2004F034FE42
:1007600028686968664B674A04F093FA28606960F4
:10077000654804F075FE2388022B00D068E72868DE
:100780006968624A624B04F0EDFA002800D10BE779
:100790000C2004F019FE28686968594B594A04F086
:1007A0007DFA286069605B4804F05AFE23884FE7B1
:1007B000364B1B68180004931EF098FD06000C20B1
:1007C000002E31D004F000FE5346C8271868524B63
:1007D00078439C46514A60443300C82103F07EFFB1
:1007E000534619684C4B79439C464D48614404F08C
:1007F000B5FE53461421186804F010F853461960EA
:1008000018E70C2004F0E0FD464804F029FE464BB2
:10081000464A4749474804F0A1FE802322885B00EE
:100820009A4200D0C0E63DE704F0CEFD5346C8270B
:100830001E68394B7E439C46144B66441B68180067
:1008400004931EF0E3FD114B04901B681800059300
:100850001EF0D6FD04F0B6FB02900391049804F05C
:10086000B1FB354A00900191C821300003F036FFFA
:10087000B6E7324804F0F4FD2100314804F06EFE82
:100880007AE6C0468813000080FF01104C13002058
:10089000D0FF0110790C0010A86A0020501300202E
:1008A00058130020BC720020481300205C00054053
:1008B000008056409A9999999999A93F0000604003
:1008C000006AD8405C100540DC000210333333333B
:1008D0003333B33F00804640040102103C01021054
:1008E00060010210D40102103C00021054000210FA
:1008F0006C0002108C000210D9CEF753E3A59B3F89
:100900004D62603FFCA9F1D2AC000210B072689158
:10091000ED7CBF3FC400021008740020E4FF01100A
:100920001CCF05105C020210940202109C020210FF
:10093000A4020210AC0202100C00021094FF01107D
:10094000B8FF01100C4B10B51B88002B10D10122F1
:100950000A4B197851400020197006F0E1FF084C4D
:10096000FA21200010F050FC200010F059FC10BDBE
:100970000121024BEFE7C046C2730020F77300204D
:1009800020290020F0B5C64600B5140082B0042826
:1009900009D113781B2B1ED009D8052B4CD0162B50
:1009A0003DD0032B12D002B004BC9046F0BD602BAA
:1009B0001ED0EF2B14D0332BF5D10821100010F0EE
:1009C00089FC0100864804F0C9FDECE79178854870
:1009D00004F0C4FDE7E71179834804F0BFFDE2E7C6
:1009E00091780D2900D9D2E0804A8B00D3589F46D8
:1009F0009378022BD7D17E4C200010F031FD0100FE
:100A00007C4804F0ABFD7C4A012120000DF02AF85F
:100A10000028C8D00100794804F0A0FDC3E7784859
:100A200004F01EFDA01C6946062210F08FFC7549DB
:100A3000684618F0FDF9B6E75279A178724804F0DB
:100A40008DFDB0E76179002900D0A4E001226A4C55
:100A50006E4B20881A700CF0A3FF01006C4804F064
:100A60007DFD2088052203210DF068FE9BE7674B82
:100A70001B78002B00D192E00521200010F024FC0F
:100A8000242800D88FE7E379A12B00D08BE7237AC5
:100A9000112B00D087E7C021637CE27B89001B0219
:100AA0000B40110909030B43217C677B1943E37A4F
:100AB000A67B9846237BA57C9C46564BE07C198000
:100AC000414699706146D9700F2100240A401C816B
:100AD0001F715E719D71D8711A7264E76179002986
:100AE00072D1A179002977D0012971D04A4804F048
:100AF00035FD58E706212000657910F0E5FB290057
:100B00000200464804F02AFD4DE7454810F0A8FCD5
:100B10000100444804F022FD0022374B42491A806C
:100B20003A4B3C481A700A2204F0E4FA3BE7657934
:100B3000A01D0622694610F009FC002D3BD1334B65
:100B4000032120001D7010F0BFFB2B4B188068465E
:100B500010F086FC0100354804F000FD694630487D
:100B600010F0ACFB1FE706226946601D10F0EEFB9B
:100B7000684610F075FC01002D4804F0EFFC0321DD
:100B8000200010F0A1FB01210CF048FF0BE72948E1
:100B900004F0E4FC07E7284804F0E0FC03E72748FA
:100BA00004F05EFC0521200010F08EFB0100E01D2A
:100BB00010F00CFCF7E6684610F052FC2A00010029
:100BC0001F4804F0CBFCA7E71E4804F0C7FCEAE688
:100BD0001D4804F045FCE6E61C4804F041FCE2E652
:100BE0000404021074030210C0030210BC020210BD
:100BF000D86A002028030210C273002048030210A4
:100C0000D8030210FC03021090030210EF730020BF
:100C100080040210D88300205405021094050210AD
:100C2000C42B0020780502101C0302106C04021073
:100C300028040210C0050210A4040210D4040210FB
:100C400048040210F8040210380502101C050210B6
:100C500070B5050006F06EFE040003685B689847F7
:100C60000A220449280004F045FA236820009B6802
:100C7000984770BDD883002070B506F061FE041E51
:100C800037D1022012F04CFD1C4D1D4BFA212800DB
:100C9000AB6010F0B9FA280010F0C2FA19F0BEFAF1
:100CA0000EF066F98021174889000CF091FE164D70
:100CB00028000CF0ADFE052017F0AAFC002018F06B
:100CC000DFF81248456012F04FFC1149114810F04E
:100CD00071FC0022104B11491C80114B11481A70F5
:100CE0000A2204F007FA012017F0A2FC10F0B0FA73
:100CF00070BD0D4804F0B4FBFAE7C046202900207F
:100D000045090010485B002085090010B04900200B
:100D1000D86A002008030210C27300201C030210CE
:100D2000EF730020D8830020F4020210094A8300E8
:100D300094464022634410B51C68C0006240C02441
:100D400014408022520113431C60034B9C466044B4
:100D5000416010BD04C00140004001400A4B8000CA
:100D60009C4604236044002901D00C230821002A5A
:100D700000D10B00026853400C221A4080235B0113
:100D8000184302607047C04604C00140084B800011
:100D90009C466044002905D080239B011843022310
:100DA00003607047C0239B01184302230360F8E7E8
:100DB00004C00140D0231B061B6830B55D1EAB414B
:100DC0000E4C5D423023A44607242B40C508044046
:100DD0002800A400A1403C30094C63448000AD00D1
:100DE00001515B19002A04D080229201134319603B
:100DF00030BDC022920113431960F9E70041014060
:100E000000400140D023F0B5C6461B0698461B683B
:100E10000C4D9B001700EA5800B504000E0010426C
:100E200009D1144331003A000D20EC5000F07CF958
:100E300004BC9046F0BD02F00DF943461B689B00D0
:100E4000EA58EEE7D06A002010B504000D2000F04B
:100E50004FFAD0231B061B6802499B005A58A24335
:100E60005A5010BDD06A00200123D02283401206C0
:100E700093629361094A830094464022634419684F
:100E8000C0004A40C0211140802252011343196022
:100E9000034B9C46052360444360704704C00140F7
:100EA00000400140024B18688007C00F7047C046E1
:100EB00000C00640EFF3108072B6034A1368002B9F
:100EC000FCD0BFF35F8F70472C0100D0BFF35F8F62
:100ED0000022024B1A6080F3108870472C0100D06A
:100EE000F8B5EFF3108772B60D4E3368002BFCD0C7
:100EF000BFF35F8F0725CB08C01801230D40AB401F
:100F00001D000478254007D123430370BFF35F8F92
:100F1000356087F31088F8BD100002F083F8C046F2
:100F20002C0100D0F8B5CE4647468C4680B5EFF38D
:100F3000108872B6214D2C68002CFCD0BFF35F8F57
:100F40009A422CD80721012511408D40D40804195C
:100F5000267835421FD007218946063909E04D46DB
:100F60000F001540AF40D408041926783D003742E1
:100F700011D001329342F2D201204042BFF35F8F81
:100F800000220E4B1A6088F3108800280FDB0CBC7F
:100F900090469946F8BD354325701000EEE7BFF343
:100FA0005F8F00232B6088F3108801204042634646
:100FB000002BECD0089802F035F8C0462C0100D088
:100FC00030B5EFF3108572B60A4C2368002BFCD0C5
:100FD000BFF35F8FCB08C018072301220B409A4054
:100FE000037893430370BFF35F8F0023236085F37F
:100FF000108830BD2C0100D00021044B044ABFF3FF
:101000005F8F02C39342FAD17047C046000100D0FF
:10101000800100D0044A1078431CDBB2172B00D9A2
:10102000102313707047C0465C13002000B5054BB9
:1010300083B00100009318221F230348FFF772FFBB
:1010400003B000BDDC050210982B00200123834073
:10105000002904D0034A1360034A13607047034A0F
:101060001360FBE780E200E000E100E080E100E0E7
:1010700001228240034B1B681340581E8341D8B2A3
:101080007047C04600E100E001238340014A13603D
:101090007047C04600E200E0084B10309B688000BB
:1010A000C358002B07D0064A00209B1A2F229A42D1
:1010B0004041C0B270470020FCE7C04600ED00E0B0
:1010C00060130020024B10309B688000C0587047AE
:1010D00000ED00E070B50D00EFF3108672B60F4A18
:1010E0001368002BFCD0BFF35F8F0D4B10309B6853
:1010F00084001B590B4A934203D09D4201D001F05A
:10110000A9FF074B9B681D51BFF35F8FBFF35F8F34
:101110000022024B1A6086F3108870BD240100D0B3
:1011200000ED00E0CD010010F8B557464546DE461B
:101130004E468A46E0B590460700EFF3108972B636
:101140005F4A1368002BFCD0BFF35F8F00205D4B1C
:1011500018569B46002800DAA2E05A4644005A4D31
:101160002418A4002E19B37910371370574BBA0006
:101170009B68934699584B1B2F2B41D801230A009B
:101180009A43D3799446434514D90627D757130079
:10119000002F06DA8DE00627DF571A00002F00DA4D
:1011A00087E07B00DB199B00EB18DF794745F2D81D
:1011B000002A51D1464A63465B1B5B415A43120DDC
:1011C000444BA11C3380444B6918043B5B1A1B053C
:1011D00042495B0D0B43738063460434043B2D1975
:1011E0005D1B43462D05F3716D0D53462943B180B8
:1011F000B27101216246B360394B3143136018E08C
:10120000384B994252D1334B02343380324B2D1933
:10121000043B5D1B2D05314B6D0D1D43324B0121F0
:10122000B380FF23B3714346F37153467580B360B7
:1012300031435A46254B9B689950BFF35F8FBFF3EC
:101240005F8F00221E4B1A6089F310883CBC9046C9
:101250009946A246AB46F8BD0627D757131D9C46B4
:10126000002F2BDB04342D19E024938824025B0526
:101270001B1563445B1B1B055B0D23436546341F35
:10128000641B2405154D640D2C4394809071B3802C
:101290004346F3715346124AB7713260B360C8E7F0
:1012A00001F0D8FE5B460020185656E701F0D2FE4A
:1012B000A9E71A1D94461A000C4BDFE70B4BDDE73C
:1012C000240100D0F07300206013002000ED00E046
:1012D000AAAA000000A1FFFF9013002000E0FFFF7A
:1012E00001488047CD01001001BDFFFF01BD000096
:1012F000F0B54546DE4657464E46E0B50D0083B094
:10130000EFF3108972B6584A1368002BFCD0BFF374
:101310005F8F564B9A68030010339F00D459544A8C
:101320009046944234D0AC4245D0524EA21B2F2A54
:101330002ED801228240924651464F4A12681140EF
:10134000019151464D4A1160BFF35F8FEFF3058263
:101350009346002A35D10123220006219A4393683F
:1013600051569D420AD16AE04B005B1806219B0052
:10137000F31898685956A84228D01A000029F3DAC1
:10138000019B002B19D052463D4B1A603A4B1A6014
:10139000364B9B68DC51BFF35F8FBFF35F8F00223A
:1013A000314B1A6089F3108803B03CBC90469946D3
:1013B000A246AB46F0BD1400EAE752462F4B1A6036
:1013C000E6E79342C7D001F045FEC4E7002921DBE0
:1013D0004A005018800035188046A8689860E8795F
:1013E000D871062028569871002826DBAD88F01A9F
:1013F0006D052D1545444019E0250005400D2D02D1
:101400002843988052181F4B9200B6181A7819700A
:10141000B271B5E75946002917D1002A22D0FF3111
:1014200091711949918017490A789A71174A9B1B43
:101430005B415A43120D0A70A2E71548E1E7130019
:101440000029C5DA5A46002A0CD0124A1249D21A8B
:10145000083A5002400D01439980104952080A434E
:10146000DA808DE74446DEE7240100D000ED00E09D
:10147000CD0100106013002000E100E080E100E0F9
:1014800080E200E0F073002001BDFFFFAAAA000087
:1014900001BD00009A13002000F0FFFF00F8FFFFDD
:1014A00010B5032304009C430340FF20054ADB00E2
:1014B0009446984099406444226882430A432260DB
:1014C00010BDC04600E400E0F0B5EFF30581012453
:1014D0000443EFF3108672B6214A1368002BFCD048
:1014E000BFF35F8F1F4B204A0500ED1A6D416A4321
:1014F000120D1E4D8900AF6852B27F58A7421CD012
:101500000621595691421CD012215956914222D09F
:101510001E215956914220D02A2159560324914226
:1015200010D0134B19781A708171BFF35F8F0022AE
:101530000B4B1A6086F31088F0BDAB680D4C5C5005
:10154000EFE700246100091989005B18FF219971F8
:1015500009499980E5E70124F4E70224F2E7C0464F
:10156000240100D060130020AAAA000000ED00E0D2
:10157000F0730020CD01001001BDFFFF054B064AAE
:101580001360064A136053609360D3601361536124
:10159000936170478080808000E400E004E400E014
:1015A0001F2110B5091A0248FFF70AFD10BDC046F9
:1015B0000074002000B5074B83B0010000930022A7
:1015C00005230548FFF7AEFC002801DB1F23181A8E
:1015D00003B000BDF80502100074002070B50400CF
:1015E0000E001500FFF716FD0100200000F006F8C0
:1015F000A680E580BFF35F8F70BDC046024B9C465E
:1016000061448900016070474000003410B5040057
:10161000FFF700FD01002000FFF7F0FFFF2323711B
:10162000BFF35F8F10BDC04610B50400FFF7F2FC9A
:1016300001002000FFF7E2FFFF23A380BFF35F8FCD
:1016400010BDC04610B504000120FFF7EFFC044BAD
:101650009C46604480002060BFF35F8F10BDC04691
:1016600040000034034B9C46614489000160BFF395
:101670005F8F70474000003470B506000D00140005
:1016800000291ED0002A1ED0736880689847630026
:101690006A001B195219033B033A3168002808D02D
:1016A000CB188A189D70117800290ED1147028006B
:1016B00008E08A18CB1894701978002900D051706E
:1016C0001D70200070BD0800FCE7597028001470E0
:1016D000F8E7C04683680B4810B58446614462440D
:1016E000090112019A18591854684B6801209C424C
:1016F00001D802D00020C0B210BD12680B689A4217
:10170000F9D8F7E7FFFFFF0F0A4B1968EFF31080D6
:1017100072B60A68002AFCD0BFF35F8F1B68BFF364
:101720005F8F00221A6080F3108840BF00200021E4
:101730007047C04688720020F8B54746CE4680B54F
:1017400014001D000BAA0AAB12781B788046914644
:101750000768002B12D1BE7B002E44D07200921974
:101760003968033A891848783300B873002800D1E3
:10177000F873002088704870087003E01E005A005B
:10178000D218033A1A4938008C46414689686344A6
:101790008C461B0108996344996009991C605D603F
:1017A000D9603B689C460023624493705370137069
:1017B000797B3200FFF760FF7873B04213D1434664
:1017C0002200187D2B0000F09FFC041E07D04B4622
:1017D000002B04D143463100186801F023F90C9B1B
:1017E000002B00D01C7030000CBC90469946F8BD10
:1017F000FFFFFF0FF0B5DE4657464E464546002335
:10180000E0B58BB00893684B8200D45800239B4608
:10181000099000F017FC6268EFF3108572B6136848
:10182000002BFCD0BFF35F8F23689C465B7B9946FF
:10183000002B00D16DE0A2685C4B90464B441B012D
:10184000984443461E685F6832003B00121A8B4181
:10185000002B00DC67E032003B00099800F054FCEC
:1018600000230022984600230692079300239A46FD
:101870006368BFF35F8F5A461A6085F3108853463A
:10188000002B08D10028C4D10BB03CBC904699462F
:10189000A246AB46F0BD089B414618024B46184392
:1018A000D047626806000F00EFF3108572B6136828
:1018B000002BFCD0BFF35F8F002F52DB33003B4384
:1018C00002D02369002B63D12368DA7B002A07D07A
:1018D00051008A1819688C4649466244033A51708F
:1018E0009A7B002A01D14A469A734A46DA73E26823
:1018F0004B469446013B63441A7801321A705B46AA
:1019000023616368BFF35F8F5A461A6085F31088BE
:101910007FE70023002298460023069207930023C6
:1019200000209A46A4E7002B02D1002A00D092E7BB
:101930000021604600F094FF43461A685B680692F7
:10194000079343469B689A464346DB689846E3689C
:101950004B44013B1B7808931B0203432361002087
:1019600086E72369002BAFD0069A079B921BBB41E9
:10197000002B15DB59460491012103914946029140
:1019800041460191514620000091FFF7D5FEB6E790
:1019900000F058FB32003B0012184B41002BE9DAF3
:1019A0000122034B5242E5E7C06A0020FFFFFF0F10
:1019B000FFFFFF7F10B5144C6368002B04D00A2191
:1019C0001248FFF71BFE10BD2300114A10212068AA
:1019D00000F05AFD032000F011FB032000F000FC92
:1019E0000C49032000F04AFBFFF714FB0A4B9C460E
:1019F00003232375D0231B061B6860446375074BC4
:101A000080006060DC60DAE7A813002088720020A4
:101A1000D5160010F517001040000034C06A0020F1
:101A200000487047A813002070B50500182003F087
:101A300005FB164904000200280000F03FFC1021BD
:101A40002060280003F018FB0121A060280003F0AB
:101A500013FBE060012000F0E5FA050000F0C0FB98
:101A60000B49280000F00AFBFFF7D4FA094B257553
:101A70009C46D0231B061B6860446375064BAD0073
:101A800080006060EC50200070BDC046D51600108C
:101A9000F517001040000034C06A00200E4B10B54E
:101AA0000400984217D00021037D0C4A9B00006877
:101AB000995000F0C5FD0021207D00F0DFFA207D67
:101AC00000F0A8FAE06803F0F7FAA06803F0F4FA6F
:101AD000200003F0F1FA10BDA8130020C06A002016
:101AE000F0B54E4657464546DE46E0B583B0009217
:101AF00001930EAB1B7807009946002300269846F9
:101B00007A68EFF3108A72B61368002BFCD0BFF32B
:101B10005F8F3D68AC7B002C00D168E063001B192F
:101B20002A68033BD2185178A346A973002900D133
:101B3000E973967056701670B968384A8C460098EA
:101B40000199A21812016244106051600C9928009A
:101B500091600D99D1602A68944663449E705E70CE
:101B60001E70697B2200FFF787FD6873844244D0B2
:101B7000FB681B19013B18787B68BFF35F8F1E6001
:101B80008AF31088002C45D04346002B09D15B46D0
:101B90000002184303B03CBC90469946A246AB46AF
:101BA000F0BD4B46002B26D00C9B0D99002098478A
:101BB00003000B431FD004000D1E09DA009A019B9D
:101BC000121BAB4100920193002B09DBC84697E73B
:101BD00000F038FA24184D4100940195002DF5DAF3
:101BE00001230F4C5B4200930194C84688E7002311
:101BF00000209B46C0E70020CCE7387D009A019B7F
:101C000000F082FA80460028B2D02100386800F047
:101C100009FFADE701204042BCE7C046FFFFFF0FD0
:101C2000FFFFFF7FF0B54F464646D6468046C0B51B
:101C300016001F004268EFF3108A72B61368002B7B
:101C4000FCD0BFF35F8F43461D68AC7B002C44D0B3
:101C5000610009192B6803395B185A78A146AA73E9
:101C6000002A38D0002240469A705A701A70806854
:101C7000244B8446E31808981B0163449860099834
:101C80001E605F60D8602B6828009C4661448A70A3
:101C90004A700A70697B2200FFF7EEFC002268732D
:101CA000844224D04346DB681B19013B1D78434620
:101CB0005B68BFF35F8F002119608AF31088002CE6
:101CC0001DD0002A0ED14B46280218431CBC90465A
:101CD0009946A246F0BDEA73C4E700230025994661
:101CE0000022E4E74346187D00F09AFAEBE743460A
:101CF0003200187D3B0000F007FA0200D2E7012015
:101D00004042E3E7FFFFFF0FF8B5040000292AD0A7
:101D10004268EFF3108572B61368002BFCD0BFF356
:101D20005F8FFF232068CEB2427B0B40B24208D0C7
:101D300007685A00BC46D2186244033A9278002AD7
:101D400013D0E268090A94466344013B1B78C9B288
:101D50008B420FD000206368BFF35F8F00221A60B0
:101D600085F31088F8BD0020FCE723699942F1D182
:101D70002261EFE7310000F055FEECE7407D70474F
:101D8000F0B504000D0006267642F717C646361950
:101D90006F4100B584B08F4214D811D000F052F9D1
:101DA00032003B00121A8B41002B15DC002B3ED079
:101DB0002000290000F052F904B004BC9046F0BDA8
:101DC0008642EBD90026002700F03CF932003B00A8
:101DD000121A8B41002BE9DD002302930193154B6E
:101DE0003200009314483B00FFF77AFE0028DFDB47
:101DF00000239846BC46114A114F7B6A9C4504D883
:101E0000B96AB142D4D29C45D2D11168EFF31080A7
:101E100072B60B68002BFCD0BFF35F8F1368BFF363
:101E20005F8F4146196080F3108820BFE5E7002AE4
:101E3000BED0D1E709170010A81300208872002037
:101E40000040054070B5060000F0FCF8FA220400DE
:101E50000D00920000233000002103F075F80019F6
:101E60006941002902DBFFF78BFF70BD01200149AA
:101E70004042F8E7FFFFFF7FF0B5EFF30583CE4662
:101E8000474680B5050085B00C00002B11D02B4AC9
:101E90000020536AA34207D3926A0130AA4203D2B8
:101EA0001C1B601E8441E0B205B00CBC90469946F4
:101EB000F0BD234E02930193224B020000933000A9
:101EC0000B00FFF70DFE0028E1DD20BF7268EFF385
:101ED000108772B61368002BFCD0BFF35F8F336896
:101EE000C1B29C466246FF23527B03408A420BD01C
:101EF0005A00914662461268994490464A464244C6
:101F0000033A9278002A10D0F268000A90464344BF
:101F1000013B1A78C0B282420CD07368BFF35F8F66
:101F200000221A6087F31088B1E733699842F4D130
:101F30003261F2E7604600F075FDEEE700400540D3
:101F4000A813002009170010F8B5EFF30582CE465C
:101F50004746100080B51038EFF3108C72B6204C55
:101F60002368002BFCD0BFF35F8F01231900814051
:101F70001C4D1D4E716329601C4DA9462D782F0004
:101F8000C7403B4015D0736A194E984683009E594E
:101F9000B04517D3174A8D439B584A461570BFF377
:101FA0005F8F002222608CF31088002B06D09847A8
:101FB00004E0BFF35F8F23608CF310880CBC904665
:101FC0009946F8BD0C4B9200984642441368136042
:101FD000BFF35F8F002323608CF31088EEE7C046C9
:101FE000280100D03C70054000400540FF730020F0
:101FF000C072002044220020D03F054010B50100EF
:10200000024A0348FEF76CFF10BDC04620060210CE
:10201000EB73002010B501000148FEF7D1FF10BDA1
:10202000EB73002000B5054B83B001000093002244
:1020300003230348FEF776FF03B000BD44060210F9
:10204000EB730020044A516A00E01900906A536A59
:102050009942FAD17047C04600400540064A536A8B
:102060009942FCD807D1044B02E05A6A914202D14E
:102070009A6A8242F9D370470040054070B5040067
:102080000D00EFF3108672B61A4A1368002BFCD0CD
:10209000BFF35F8F002D1BD02000FFF713F8164908
:1020A00088420AD02000FFF715F801212000FEF732
:1020B000CDFF0123A340114A1360114BA400E5504A
:1020C000BFF35F8F00220B4B1A6086F3108870BD40
:1020D0000B4BA200D5500122A2400A4920000B78E8
:1020E00093430B700449FFF703F900212000FEF72A
:1020F000ADFFE5E7280100D0491F0010386005401A
:1021000044220020FF730020F0B5D6464F464646D5
:102110002E4CC0B5656A00E00D00A66A616AA9424E
:10212000FAD1AB4209D806D0012420001CBC90464D
:102130009946A246F0BDB242F6D9EFF3108972B6C5
:10214000234C21680029FCD0BFF35F8F0126214971
:1021500086408C460978204D0F0037438846F9B2F7
:102160008A46614654460C701849041DA4004E630B
:102170006250840063510D6A002435421AD04D6AC2
:1021800000E025008F6A4C6AAC42FAD1AB4219D804
:1021900001D1BA4216D8C24516D00C4B0F4A1E6266
:1021A0005E631F2318401E3B834013606346424614
:1021B00001241A70BFF35F8F0022054B1A6089F368
:1021C0001088B2E70024F5E70124F3E7004005405A
:1021D000280100D0FF730020C072002080E200E0E0
:1021E00010B5EFF3108472B60A490B68002BFCD0CF
:1021F000BFF35F8F01238340074A084813620278C8
:102200009A430270BFF35F8F00230B6084F3108842
:1022100010BDC046280100D000400540FF730020DB
:1022200010B5EFF3108472B60A490B68002BFCD08E
:10223000BFF35F8F01238340074802781A4302707F
:10224000BFF35F8F00220A6084F31088034A136093
:1022500010BDC046280100D0FF7300203C6005403F
:1022600070B506000D00140000291ED0002A1ED0F3
:1022700073688068984763006A001B195219033B12
:10228000033A3168002808D0CB188A189D7011785D
:1022900000290ED11470280008E08A18CB18947019
:1022A0001978002900D051701D70200070BD080001
:1022B000FCE7597028001470F8E7C046F0B5DE4618
:1022C00057464E464546E0B589B0060004900D00DD
:1022D00001201021140002F0CFFE0321070030007E
:1022E00002F0CAFE0023F2B27B73013301000390B7
:1022F000386005923A737D60BC60BB73FA73012A43
:1023000000D8A0E0531ED8B2931E0690072B00D829
:10231000ACE0C3080293564B00259B46554B564CE8
:102320009A46564B564898460131079752464346BF
:102330005F465E4662401A404E4B2740FB185A40AB
:10234000064053460196464643403340494E0A7084
:10235000B446019E0135B146CC446646734016042E
:10236000360ECE701602120E4A721A04120E0B733B
:10237000CA731A021B0E4B75424B120E9C465C40F0
:102380005840434618404B468A744246634458407E
:10239000029B360E14406744EDB28E717C401831BA
:1023A000AB42C3D1069907230A009A43531C079FE7
:1023B000DBB2914247D0039C5A00A446D218591C64
:1023C0006244059DC9B2033A51708D423BD94A001F
:1023D0005218981C6244C0B2033A5070854232D9F8
:1023E00042001218D91C6244C9B2033A51708D429E
:1023F00029D94A005218181D6244C0B2033A5070DD
:10240000854220D942001218591D6244C9B2033ACC
:1024100051708D4217D94A005218981D6244C0B2BB
:10242000033A507085420ED942001218D91D6244F9
:10243000C9B2033A51708D4205D94A00521862441C
:10244000033A08335370FF20049B184043001818C8
:10245000039B9C460023604403384370380009B056
:102460003CBC90469946A246AB46F0BD0123A2E78C
:102470007F7F7F7F01010101010203048080808052
:102480000506070808080808F0B5DE4657464E4618
:102490004546E0B58360002389B04260026806913A
:1024A0004373C9B20133059101738373C1730492FD
:1024B000012900D8A4E00A004B1ED9B2931E07914F
:1024C000072B00D8AEE00025CB080393049B564CA5
:1024D000591C564B56489B46564B9A46564B9C4663
:1024E000564B0293524663465F465E4662401A4030
:1024F000504B2740FB185A4006405346019666460B
:10250000434033404B4E0A70B046019E0135B14600
:10251000C844464673401604360ECE701602120E9C
:102520004A721A04120E0B73CA731A021B0E4B75F1
:10253000029B360E5C4063461C40404B120E984690
:10254000029B47445840634618404B46434458401A
:10255000039BEDB28E718A747C401831AB42C1D1BD
:10256000079907230A009A43531CDBB2914247D0D4
:10257000049C5A00A446D218591C6244059DC9B255
:10258000033A51708D423BD94A005218981C62445C
:10259000C0B2033A5070854232D942001218D91C99
:1025A0006244C9B2033A51708D4229D94A00521887
:1025B000181D6244C0B2033A5070854220D94200CF
:1025C0001218591D6244C9B2033A51708D4217D98D
:1025D0004A005218981D6244C0B2033A50708542B6
:1025E0000ED942001218D91D6244C9B2033A517083
:1025F0008D4205D94A0052186244033A0833537099
:10260000FF23069A13405900C918049B9C460023D7
:10261000614403394B7009B03CBC90469946A246D0
:10262000AB46F0BD0123A3E7010203047F7F7F7F58
:10263000050607080101010180808080080808085C
:1026400010B50400006802F037FD200002F034FDF0
:1026500010BDC04670B50400002907D04B000068CB
:102660005B18033BC3185A78002A01D1080070BDDB
:102670005500AD18033D40190025467845705D7042
:102680002000FFF7EDFD310005002000FFF7E2FF1D
:10269000290002002000FFF7E3FD0100E6E7C04645
:1026A000F0B54E464546DE465746E0B50E0074008E
:1026B0000168A41985B0033C01920A19050010783D
:1026C000002850D043001B18033BCB185F78BC4652
:1026D000002F1AD1019C002C42D0EC7B002C04D09E
:1026E00063001B19CB18033B5E70AB7B002B00D142
:1026F000AE73EE7300282FD10023537005B03CBC9D
:1027000090469946A246AB46F0BD7A006244033A31
:1027100089184A78934600224A7090465A70010000
:102720003A002800FFF79CFD5B468146002B07D04E
:102730005B0029685B44033BCB185A78002A16D10A
:102740005A4649462800FFF78BFD2968019B0A1964
:10275000002BC2D10028CFD043001B18033BCB185D
:1027600000219970C8E7019B002BB6D1C4E7500047
:1027700080180338091848788246404648705870D7
:1027800059462800FFF76CFD53468346002B07D0BF
:102790005B0029685344033BCB185A78002A06D1C2
:1027A000594652462800FFF75BFD8346C8E75000B4
:1027B00080180338091840464F78487058705146C1
:1027C00028000297FFF74CFD8246002F08D0BC4638
:1027D0007B0029686344033BCB185A78002A06D152
:1027E0005146029A2800FFF73BFD8246D8E7500089
:1027F00080180338091840464F784870587002997D
:1028000028000397FFF72CFD8046002F08D0BC4618
:102810007B0029686344033BCB185A78002A06D111
:10282000039A41462800FFF71BFD0290D8E70320DA
:1028300050430338091800204F78487058700399A6
:102840002800FFF70DFD390002902800FFF702FF76
:10285000029902002800FFF703FD0390E0E7C0465D
:10286000F0B54E464546DE465746E0B5467B040089
:1028700075000068AD19033D85B0421901911178CA
:10288000002952D04B005B18033BC3185F78BC464D
:10289000002F1CD1019D002D44D0E57B002D04D0DC
:1028A0006B005B19C318033B5E70A37B002B00D148
:1028B000A673E673002931D1002330005370617391
:1028C00005B03CBC90469946A246AB46F0BD7A00A6
:1028D0006244033A80184278934600224270904640
:1028E0005A7020003A00FFF7BBFC5B468146002B84
:1028F00007D05B0021685B44033BCB185A78002A61
:1029000017D15A4649462000FFF7AAFC019B010057
:1029100020684219002BC0D10029CDD04B005B1894
:10292000033BC31800209870C6E7019B002BB4D16D
:10293000C2E750008018033809184878824640469C
:102940004870587059462000FFF78AFC534683466A
:10295000002B07D05B0021685344033BCB185A7807
:10296000002A06D1594652462000FFF779FC8346DB
:10297000C7E7500080180338091840464F78487060
:102980005870514620000297FFF76AFC8246002FDC
:1029900008D0BC467B0021686344033BCB185A78BF
:1029A000002A06D15146029A2000FFF759FC8246C0
:1029B000D8E7500080180338091840464F7848700F
:1029C0005870029920000397FFF74AFC8046002FB9
:1029D00008D0BC467B0021686344033BCB185A787F
:1029E000002A06D1039A41462000FFF739FC0290E5
:1029F000D8E7032050430338091800204F78487067
:102A0000587003992000FFF72BFC3900029020003A
:102A1000FFF720FE029902002000FFF721FC03903F
:102A2000E0E7C04670B5040000292CD0437B8B4200
:102A30002ED0056848004018033828188278002AEC
:102A400021D053009B18033BEB181A788A4202D11D
:102A50001BE0002A08D053009B18033BEB185A7860
:102A60008A42F6D142785A70002301228370437063
:102A70002000FFF715FE617B02002000FFF7F0FB4E
:102A80006073012000E0002070BD42781A70EBE70F
:102A900001221900FFF704FE60730120F4E7C0462D
:102AA00030B50C2083B000F0BBF9FEF7FBF900282D
:102AB0000ED0994B994A1A605A609A60DA601A618E
:102AC0005A619A61DA611A62954A5A6203B030BD5E
:102AD000944CA06700F0F8F90122934B1A60636CE4
:102AE000012BFCD10322914B1A608E4A936B012B70
:102AF000FCD1013300938E4A043301218D4800F04C
:102B00003FF905238C4A009301218C4800F038F9E5
:102B10008B4B5A68FF2A02D8802252005A608022CA
:102B20007D4C824B21691201854D1A60002907D026
:102B3000606901F073FE431C5800C0180338FDD2D1
:102B4000E0217F4B02201A681140802252012A4363
:102B500011601968484003210140116004219A68FE
:102B60001142FCD08022802192012A430901116088
:102B7000802252005A60734B2361734B5968FF29BE
:102B800000D85A6003227048674B01211A60020086
:102B900093681942FCD0E02513681D4080235B0137
:102BA00003431D6012684A4003211140196002214D
:102BB000654A93681942FCD0802380219B0103431E
:102BC000090119608021614B490051606361604BCC
:102BD0005A68FF2A00D8596080225E4BE1691201D1
:102BE0005B4D1A60002907D0606901F017FE431C95
:102BF0005800C0180338FDD2E02255490B681A402E
:102C000080235B012B431A60802380229B012B438E
:102C100012011A608022414B52004A60E3614E4B20
:102C20005968FF2900D85A6080224C4B216A120152
:102C3000494D1A60002907D0606901F0EFFD431C7F
:102C40005800C0180338FDD2E02243490B681A40EF
:102C500080235B012B431A60802380229B012B433E
:102C600012011A6080235B004B602C4B3C4A2362AC
:102C70003C4B5968914201D801325A6080223A4B4C
:102C8000616A1201374D1A60002907D0606901F0AE
:102C9000C5FD431C5800C0180338FDD2E02231495D
:102CA0000B681A4080235B012B431A60802380222B
:102CB0009B012B4312011A608023DB024B60184BEF
:102CC00063622A4B5A68FF2A02D8802252005A6057
:102CD0008022274BA1691201244D1A60002907D0D8
:102CE000606901F09BFD431C5800C0180338FDD2F9
:102CF000E0221E490B681A4080235B012B431A60B7
:102D0000802380229B012B4312011A6080235B00E9
:102D10004B600E4BA361D9E69C2B0020006CDC02BB
:102D20001BB70000008000403CB0004030B00040C5
:102D3000002F685900800240008C864700C0024086
:102D400030800040001BB7003C80004040597307B2
:102D50005480004054B000406080004060B00040AB
:102D6000FFFF03006C8000406CB0004048800040D2
:102D700048B00040014B8000C05870479C2B002099
:102D8000F8B50400214817001E000D0001F046FDB3
:102D90000100380001F042FD069A33041203134388
:102DA0002268002A21DB1A4A1A4EA21851424A41CF
:102DB000802149018C4652420A40174962440A6008
:102DC00016490A601700B1688F43FBD1C021221D4C
:102DD0008901114321222560A0600A602268002A2F
:102DE000FCDAE36008230B60F8BD3F2221680A404B
:102DF000AA42D8D1A2681205120D8242D3D1EE2187
:102E0000E268C9020A409A42CDD1EDE7001BB70043
:102E10000040FDBF00C0004000E0004000F0004066
:102E20008023024A9B000343D36270470080054021
:102E300010B580241B4BE4051C6000282BD0012317
:102E4000194C1843194BDC61194C44401C625962FF
:102E500098628021134BC90519601648164908600D
:102E6000E021C9041960002A04D18022134B120604
:102E70001A6010BD53019B1A9B009A18104B120147
:102E80009A420BD80F4B1A60084B5A6080220B4BAA
:102E9000D2051A60EDE7054BD861DAE7094A1360FD
:102EA0001A00F1E700B00540D3C007B0008005402C
:102EB0002D3FF84FFCFF01000820014000A0054015
:102EC000FFFFFF00946A0020AA23064A1B0113603B
:102ED0002F230549D360054B19605368002BFCDA9A
:102EE0007047C0460040024000B0FA000060024057
:102EF0002D4B2E4A70B51A602D4A2E4B2E491A6062
:102F000010008B689843FBD12C4C2D4B9C4209D26E
:102F1000013B1D1BAD080135AD002D1908CC9847AC
:102F2000AC42FBD1FFF7BCFD264A224B1A60224A75
:102F30009368DB018033FBD14022234B234D24488F
:102F40009A675A671A67DA66A84205D30EE0FEF759
:102F50006BFB2000AC4209D2040003680834002B4C
:102F6000F5D1FEF753FB2000AC42F5D3194C1A4DB6
:102F7000A168C022280002F0BDF8A560FEF73CF869
:102F8000FEF7FCFAFEF716FD144C154B9C4209D2D5
:102F9000013B1D1BAD080135AD002D1908CC98472C
:102FA000A542FBD170BDC04600E00040BFCDFBFE96
:102FB000FE7F3C0000F0004000C00040E01C00200C
:102FC000F01C0020FFFFFF0100F00140E01C00208A
:102FD000D01C002000ED00E000000020F01C0020CC
:102FE000F81C002000BEFDE7094A1368002B06D03C
:102FF00008491818884208D8106018007047064B16
:103000000449181813608842F6D901235B42F4E79B
:103010007058002000000420C08F002010B5FFF77A
:10302000E1FFC0460FB400B5084883B002F018FABB
:10303000049B002B07D005A91800019101F072FB39
:10304000034802F00DFA0120FFF7CCFF64060210DE
:1030500098A0051010B50148FFF7E4FF58060210CC
:103060009A4200D2885470477047C046F8B5574618
:103070004E464546DE46E0B599460A9B07009A460D
:103080000D9B884693460B9E15009B070FD10C9B0A
:103090009E420CD29D1B0E005D44541C4B463100D9
:1030A0002020B8472200A542F7D1B0460B9E002E43
:1030B00028D04446AD195346AA1B013E985D210015
:1030C0004B46B847002EF6D123002C0098460D9BA6
:1030D0009B0710D55B46E51A0C9BAB420BD94646C5
:1030E0002200984601344B46310020200135B84774
:1030F0002200A845F6D820003CBC90469946A2463E
:10310000AB46F8BD2C00E2E7F0B54F464646D64642
:10311000C0B584B098460EAB1B7894469946129B76
:103120000D9C109F119E9A0724D401221A409246AA
:10313000002E62D1BC420CD21F2C00D9B8E00C9AF0
:10314000551E302201E0202C03D001342A55A7421D
:10315000F9D85246002A0DD0A6420BD9202C5AD0BD
:103160000C9A551E302201E0202C54D001342A55EF
:10317000B442F9D1DA0632D55A0555D4002C4FD1D4
:103180000F9A102A00D18CE0022A00D17EE0302272
:103190000C9C22704A460124002A25D02D220C9D29
:1031A0002A55013403930C9B0296009301944346E5
:1031B0006246FFF75BFF04B01CBC90469946A246EE
:1031C000F0BD202CEED00C9A1519013478222A700B
:1031D000202CE7D030250C9A121915700134202CC0
:1031E000E0D04A46002AD9D15A0728D41A07D9D59F
:1031F00020220C9D2A550134D4E7002A24D04A46C7
:10320000002A28D10C321A4225D1BC42A4D21F2C4C
:1032100095D9202E1DD92024DA06C3D55A0503D40A
:10322000A7421AD0B44218D00F9A102A1FD0022AEF
:10323000CED1202CB6D00C9A121901342EE02B22BC
:103240000C9D2A550134ADE7BC4293D21F2C00D807
:1032500075E720248EE7013ED7E7621E002A10D0D2
:103260000F9D102D2DD0022D15D01400B2E79A0617
:10327000A7D5202C96D058250C9A12191570013418
:10328000A6E70F9C102C15D0022CEED162220C9CCC
:10329000227001249EE70C9DAA46524462251570B7
:1032A00096E79A06E7D478220C9C2270012491E7D5
:1032B00020244EE79A06F6D558220C9C2270012451
:1032C00088E7023C9D06D6D40C9D2D1914007DE79D
:1032D00010B5002800D110BD02F076F8FBE7C0461B
:1032E00010B5002803D04A680B681100984710BD3C
:1032F000F0B5454657464E46DE46E0B59BB0249DA8
:10330000259C82468846099299462A002300280077
:10331000210001F03CFD002800D0CBE00122D94B78
:1033200052422800210001F02DFD002800D0C1E00C
:103330000122D54B52422800210001F00DFD00284A
:1033400000D0B7E0002200232800210001F004FD96
:10335000002800D0EDE1AB4608948023289ADB00DA
:103360001A40119201D1062326935B460C938023C9
:103370005946289A1B011A40089B10920B4300D013
:10338000AFE0002A00D0BFE104260D930E930C930A
:1033900000230A93279BB34201D99B1B0A93022760
:1033A000289B1F4005D0734273410A9A5B421A4022
:1033B0000A920C9B002B07D0584608990D9A0E9B39
:1033C00001F071FC834608910022002328002100AF
:1033D00001F0C2FC002805D0802000068446089930
:1033E00061440891289AA94B414613405A460493D8
:1033F0000A9B50460393269B0293089B00920193DD
:103400004B46099A00F0A2F9002E63D0289B0200D7
:103410009C061F23E4179C436534431C089320003B
:103420004B464146D0470C9B0024DA179D18DB0F12
:103430009B46731E55400C9302E00500202C11D0D2
:103440000AAA94461F23013463440A2128001E1946
:1034500001F0E4F93031317028000A2101F0DEF981
:10346000092DEAD8052306930C9B019405930023AC
:1034700004930A3303935B46029312AB0093089ABA
:103480004B4641465046FFF73FFE002F22D0099B96
:10349000C41A279BA3421DD9020057461E00551C83
:1034A0004B46414620200134B8472A00A642F6D8B0
:1034B00028000FE0289B2A000493279B4146039392
:1034C000269B504602932300009201934B46099A93
:1034D00000F03CF91BB03CBC90469946A246AB4676
:1034E000F0BD6B4A089B94465800400D604401F0C3
:1034F00061FC684A684B01F0F0FB684A684B01F0D8
:10350000CDFB089B674A1B031B0B1A4306000F00E9
:103510000C981100644B002201F0BBFB634A644B22
:1035200001F0DBFB02000B003000390001F0B6FBBC
:1035300001F058FC0C9001F03DFC5E4A5E4B060029
:103540000F0001F0CAFB00225C4B01F0A7FB01F069
:1035500049FC5B4A5B4B0D903900300001F0BDFB2C
:1035600006000D980F0001F025FC574A574B01F05B
:10357000B4FB02000B003000390001F08AFB0200AE
:103580000B000A900B9101F0A8FB06000F000A98AF
:103590000B9902000B0001F081FB00220E900F91AD
:1035A0004B4B3000390001F07EFB0022494B01F00B
:1035B00075FB02000B003000390001F074FB0022A3
:1035C000454B01F06BFB02000B003000390001F0AD
:1035D0006AFB0A9A0B9B0F0080210600C905002098
:1035E00001F057FB02000B003000390001F056FBE0
:1035F0003A4F02000B000E980F9901F054FB002285
:10360000284B01F04BFBBC460D9A62441600002289
:10361000330501F062FB07000D900E000E910200D1
:103620000B005846089901F097FB00285ED13B003B
:103630003200C6260C9963318E42B641109976420B
:103640000436002900D1A3E6134361D0089F244A21
:10365000244B5846390001F08DFB002807D000228A
:10366000214B5846390001F077FB002850D1269BAA
:10367000002B00D18CE6119B5A1E9341269AD31A37
:10368000269385E6FFFFEF7FFFFFEFFFFFF7FFFFCA
:1036900001FCFFFFFB799F501344D33FB3C8608BFD
:1036A000288AC63F0000F03F0000F83F61436F6387
:1036B000A787D23F71A379094F930A400000E03FEA
:1036C0001655B5BBB16B0240EF39FAFE422EE63F0C
:1036D00000002C400000244000001840FF030000C0
:1036E0002D431CEBE2361A3F80842E410C9B0022B6
:1036F000013B0C930D98144B0E9901F0D4FA030082
:103700000D900A000E9194E700230D930E930C93F5
:10371000269B19000C9B994213DDCB1A013B269383
:103720008023289ADB001A430023289200260C935A
:103730002EE680231B069C46A4446346AB460893B2
:103740000BE600232693EBE700002440F0B5DE46AD
:1037500057464E464546E0B597B080468946924664
:103760009B46209A219B1000190001F010FB0028B5
:1037700000D01FE2209821990122CC4B524201F047
:10378000EBFA002800D03EE1209821990122C84B95
:10379000524201F0F7FA002800D0E7E02098219982
:1037A0000022C44B01F0EEFA002800D0C7E02098B8
:1037B00021990022C04B01F0CFFA002800D0BEE0D2
:1037C000209821990022002301F0C6FA002800D099
:1037D000E1E0002380240D93249BE4001C4000D0F2
:1037E000E9E000220626B54B069207930EAB08933C
:1037F0002098219901F0F6FA07000C9001F0DAFA0E
:1038000002000B002098219901F043FA069A079BC9
:1038100001F063FA0A900B9101F008FB0500099092
:1038200001F0C4FA02000B000A980B9901F031FA7A
:103830000022A34B0A900B9101F0A4FA002800D1BA
:1038400048E12B0001331800099301F0AFFA069A02
:10385000079B01F08FFA002804D03B0001330C9342
:1038600000230993002E00D0D5E00C9D280001F024
:10387000A1FA02000B002098219901F00AFA002217
:103880008F4B06000F0001F067FA002808D10022D4
:103890008B4B3000390001F075FA002800D17EE131
:1038A000202C00D1FAE00C9F0A21380000F08EFF96
:1038B000089E3031315538000A21651C00F086FF22
:1038C000002800D180E1202D00D1E7E00A2100F09E
:1038D0007DFF303171553800642100F077FF0234EC
:1038E000051E14D0202C00D1D8E008AA9446172336
:1038F0002800634401340A211E1900F067FF3031AB
:10390000317028000A2100F061FF051EEAD103236F
:10391000249A1340012B00D1ECE0202C00D1C2E00E
:103920000D9B002B00D111E12D23089A651C135526
:10393000249B01950393239B0293089B20E0249BE7
:1039400052460493239B49460393229B404602938D
:10395000209B219C009301945B46FFF7C9FC17B0A4
:103960003CBC90469946A246AB46F0BD249B5B0703
:103970000ED40322534B249901920391239902916F
:10398000009352465B4649464046FFF76FFBE6E729
:103990004D4B0422EFE7209A219B0020002101F0EB
:1039A00078F9012380240D93249BE4002090219139
:1039B0001C4000D115E7229B092B00D808E1190013
:1039C00030230EAA4E1E08921370092E00D1F9E082
:1039D000537008AA0C0094468E1E1721093C02233E
:1039E0006144302205E00133CA54013E202B00D14E
:1039F000A3E09C42F7D1354BF2009B181A685B6834
:103A000006920793F4E6249B0393239B02930423DB
:103A100001932F4BB4E7202C40D0099D731E0A213F
:103A20002800069300F0FAFE089B30311955280053
:103A30000A2100F0F3FE671C0995092D00D892E0D9
:103A4000202F2BD0B11E06910A2100F0E7FE089B23
:103A50003031D9550998642100F0E0FE099AA51C7F
:103A60000700632A00D87FE03419013C14E0631B8F
:103A700008AA069394461723013563440A213800A7
:103A80005E1900F0CBFE3031317038000A2100F0B1
:103A9000C5FE092F68D90700202DE8D10323249AF9
:103AA0001340012B25D0202542E7C046FFFFEFFF42
:103AB000FFFFEF7F65CDCD4165CDCDC180842E4127
:103AC0000000E03F5408021058080210700802106D
:103AD0006408021000220A980B99494B01F03CF946
:103AE000002800D0BEE62B1E60D1099B013309934C
:103AF000B8E62024239B002B00D10EE70D9B002B62
:103B000003D1249A0C33134202D0239B013B23930D
:103B1000239BA34200D800E708AA9446172330222B
:103B20006344202CBFD0239901341A558C4200D114
:103B3000F3E6202CF7D12025FAE6324BF2009B1851
:103B40005C681B6806930794202451E6249B5B075E
:103B500020D4249B25001B0700D4E9E62023089AE3
:103B600001351355E4E63D00202D97D008A98C4679
:103B700017230698634442193021002826D00135C6
:103B80005955202D30D0AA42F9D12E230899541C22
:103B90008B5485E62B23089A651C1355C8E6012330
:103BA000AC462B409C4463460C9379E6DB0700D47B
:103BB00058E69AE7249B0393239B029303230193E4
:103BC000114BDDE6012416E72C00A0E62A00DCE715
:103BD000DA001E000B4B9B185C681B680693079469
:103BE0000EAB0024089303E60323249A1340012B11
:103BF00000D09DE6239B002B00D199E620247DE791
:103C00000000E03F7008021060080210F0B5454661
:103C1000DE4657464E46E0B5A1B01D002A9B9046B1
:103C20000B93BD4ABD4B0A908B461A60002900D108
:103C30000DE2002328789A46002861D0B84B5646FA
:103C40009946C24609E0741C320053460A9E594602
:103C5000B04726002878002850D001352528F2D119
:103C6000042328789846023B9C460300203B691CAD
:103C7000DBB200240A00102B0ED84F469B00FB58E5
:103C80009F4601230D001C432878691C0300203B3C
:103C9000DBB20A00102BF0D90300303B092B41D9CD
:103CA00000272A286AD000230C932E2851D0030025
:103CB000683BDBB2122B5FD89A499B00CB589F46DA
:103CC00063460D001C43DFE743460D001C43DBE762
:103CD00010230D001C43D7E708230D001C43D3E736
:103CE00080235B0068781C43551C0300253BDBB236
:103CF000532BA8D88C4A9B00D3589F46D046B24637
:103D00005246D04501D843465A1E434659460020E4
:103D10000A9CA047504621B03CBC90469946A2461A
:103D2000AB46F0BD0027030001E00D000131B800F3
:103D3000C0194000C0180B7830381A00303A07001C
:103D4000092AF2D918000023AA1C0C930D002E2872
:103D5000ADD180236878DB001C430300303B092B86
:103D600000D877E12A2800D1ABE10300683BDBB241
:103D700015000132122B9FD91500B6E70B9B80CBA3
:103D8000002F00DA5BE16878AA1C0B930D008AE72C
:103D900068786C2800D14DE280235B001C43551CE1
:103DA000A3E780239B0068781C43551C9DE7687837
:103DB000682800D139E28023551C1C4395E70B9BF2
:103DC00004CB98460C9B0B921078002B00D0A2E1FC
:103DD000002801D100F071FC02235B425A1C0B9BAE
:103DE000944619000D92614401E08B4206D00133E4
:103DF0001A78002AF9D10B9A9B1A0D938023DB00C5
:103E000023400E9305D00D9B19000C9B994200D9BD
:103E10000D93022323400F9300D140E2002800D1EC
:103E200026E20E9B002B00D1E6E141460C9B0C9153
:103E300029009C190B9B5D469B1B3200B8460B93D7
:103E40008B460AE0534629000A9F561CB8470B9B35
:103E5000985D002800D104E232009442F2D10C9B1C
:103E6000474698465B462600AB461D000F9B002B3D
:103E700000D0FDE143460B93ECE60B9B04CB0B9388
:103E8000002A00D128E121231C43A44610A988461A
:103E90001F240F2144440023884603E0202B00D137
:103EA00024E10A0041461140CFB2380037300929D9
:103EB00000D807380133E05411090F2AEED815E174
:103EC0000B9B04330C93731C0D939846A30700D4EB
:103ED00006E20B9B32001878594653460A9CA047CD
:103EE000BE19012F00D8A7E22B0042465546B04626
:103EF0009A465E460A9F541C2B0031002020B8478A
:103F000022004445F7D15346B346AA4626001D0079
:103F10000C9B0B939EE6C0460D3C0010886A002067
:103F200074060210B806021004070210782800D1A7
:103F300052E2582800D183E16F2800D1F3E06228D3
:103F400000D156E3102322009A438023DB000D9218
:103F50002340692800D0BCE30A220E92002B00D136
:103F600046E201230D9A9A430D9280240D9BA400F2
:103F700023409C46692800D1E7E0642800D1E4E0B2
:103F80006346002B00D094E280230D9A5B001A4018
:103F90000B9B904604330F93002A00D02CE30D9B1B
:103FA0005B0600D544E20D9B1B0600D488E30B9B07
:103FB0001B881800031E00D04DE20D9A103311002B
:103FC00099430D91520500D445E2002398460D9B7C
:103FD000059706930C9B04930E9B03930023029377
:103FE0004346019318AB00933200534659460A9852
:103FF000FFF78AF80F9B06000B932BE6462800D1AB
:104000008EE007220B9B04940733934319000C9A0C
:10401000039702920CC90A98009201930B91320007
:1040200053465946FFF792FB060013E6741C320014
:1040300053460A9E59462520B04726000AE602222A
:10404000687814437F42AA1C0B930D002BE6D34BD8
:104050000A93EEE50023010000E02A009800C01852
:10406000400040185178030008003038551C303BA0
:104070000928F2D90C930800023218E62023020026
:104080009A43472A04D180231B011C4302239843EF
:10409000452801D120231C4307220B9B049407339E
:1040A000934319000C9A039702920CC90A98009244
:1040B00001930B91320053465946FFF719F9060058
:1040C000C8E50B9BA87802CBCA43D21711400C91CC
:1040D000EA1C0B930235EAE51023210099431133C2
:1040E00019438C460023610500D4CFE66246069250
:1040F000082205920C9A0492102203920022029246
:10410000019318AB00933200534659460A98FEF7C4
:10411000FBFF06009EE5002800D1CDE2013B5DE6F5
:1041200020231C436DE708230E9322000D94802367
:10413000DB001340642800D0CEE2002B00D010E753
:1041400080241300A40023409C466346002B00D02B
:10415000E5E080230D9A5B001A400B9B90460433E8
:104160000F93002A00D0C6E10D9B5B0600D547E106
:104170000D9B1B0600D499E20B9B00229B5ED91776
:104180005A184A401000DA0F1492002B09D18023EC
:1041900010220D99DB000B4091430D91002B00D0B4
:1041A00050E10D9A6123920600D5412310AA1F24E5
:1041B0009446DBB264440A3B159716960B93464629
:1041C0000700A84625000E9C0AE03033DBB201361A
:1041D000AB55A74200D231E1202E00D12EE10700DD
:1041E0002100380000F01AFBCBB20929EDD90B9A57
:1041F00094466344DBB2EAE70B9B32009E1B33001C
:104200005E46AB4655469A460B970A9F2B003100F7
:10421000541CB8475346185D22000028F6D1AA4620
:104220000B9F5D46B346260020E6C023A8781C43BA
:1042300003355AE5C0239B00A8781C43033554E599
:104240000C2322009A4314331A430D92630500D5C0
:10425000D3E080239B001C40F13BFF3BA4460E9320
:104260008EE60C9B474698465B46AB461D00FDE537
:104270000D9B32009F4200D8FCE5BE19F61A2B00B8
:104280005D469B460A9F541C534629002020B84790
:104290002200B442F7D15B46AB461D00EAE50D9A19
:1042A000531C974200D812E2BB199B1A0D971F00AE
:1042B00032005E46AB460A9D541C53463100202016
:1042C000A8472200BC42F7D15D46B34626000D9FA9
:1042D0007B1C0D930B9B1878002800D0A1E5C9E545
:1042E000012F00D8F0E1731E3200A846DF190A9EA4
:1042F0005D460D9C00E00134534629002020B04764
:104300002200BC42F7D12600AB46454601360B9B46
:104310003A001878594653460A9CA047F8E5072208
:104320000B9B07339343013294469C4462460B92A5
:104330001A685B689C46DB171293139312981399C3
:1043400003005340109364460B0063401193109B8D
:10435000119C1B1A8C41109311946346DB0F14932C
:1043600063461A4350D00D9A6123920600D541232B
:104370000022DBB2904610AA0A3B1F2494460F93FA
:104380005B4664441793230015971696AB46109E20
:10439000119F44460E9D984610E0C04669300010BB
:1043A0003032D2B2434601341A550023BB4200D109
:1043B00067E1202C00D167E106000F002A000023EE
:1043C0003000390000F068FAD2B2092AE8D90F9B10
:1043D0009C466244D2B2E5E780231022DB002340F2
:1043E0000E920C2294430D94002B00D1BDE5B8E54C
:1043F00080239B001C40A446A7E610230E93B0E543
:104400000B9B1B781A00BDE60D9A102311009943EF
:104410000D915205A7D5002398460D9B059706934D
:104420000C9B04930E9B0393149B0293434667E6F5
:104430000B9B1B781800BDE50D9E69E54546159F51
:10444000B046169E0D9B059706930C9B04930E9BFE
:104450000393149BC3E50D9A6123920600D5412373
:1044600010AA1F249446DBB264440A3B14971596A5
:104470000B9346460700A84625000E9C08E0303303
:10448000DBB20136AB55A7420ED3202E0CD007006D
:104490002100380000F0C2F9CBB20929EFD90B9AFC
:1044A00094466344DBB2ECE74546149FB046159E44
:1044B0008DE507220B9B07339343013294469C44BE
:1044C00062460B921A6859681300100009910B4359
:1044D0005CD10D9A1033110099430D91520555D5B9
:1044E000002398460D9B059706930C9B04930E9B07
:1044F0000393002399E70B9B1B68D9175A184A406E
:104500001000DA0F1692002B08D1802310220D998B
:10451000DB000B4091430D91002B2CD10D9A6123B0
:10452000920600D5412310AA90461F24DBB24444D2
:104530000A3B14971596A8460B932500070066467C
:104540000E9C08E03033DBB20136AB55A7420ED3E8
:10455000202E0CD007002100380000F05FF9CBB20C
:104560000929EFD90B9A94466344DBB2ECE7454640
:10457000B446149F159E0D9B059706930C9B0493C0
:104580000E9B0393169B029363462AE50D9A6123C3
:10459000920600D541230022DBB2904610AA0A3BC6
:1045A0001F2494460F935B46644414971596AB46BC
:1045B00046461693A0460E9D099F04000BE030323C
:1045C000D2B2434601369A550023BB4265D0202E15
:1045D00065D004000F002A0000232000390000F0FD
:1045E0005BF9D2B2092AEAD90F9B9C466244D2B247
:1045F000E7E702230E9398E50B9B1B68181E08D172
:10460000802310220D99DB000B4091430D91002B6C
:104610002CD10D9A6123920600D5412310AA904611
:104620001F24DBB244440A3B14971596A8460B930B
:104630002500070066460E9C08E03033DBB20136E9
:10464000AB55A7420ED3202E0CD007002100380016
:1046500000F0E4F8CBB20929EFD90B9A94466344F1
:10466000DBB2ECE74546B446149F159E0D9B0597BB
:1046700006930C9B04930E9B0393002302936346C3
:10468000AFE4B54200D894E6179B109611975D46AB
:10469000159F169EA0469B46BFE6A54297D9169B3E
:1046A000B0465D46149F159E9B461BE70B9B1B68FF
:1046B000D9175A184A4065E500230D93FFF79EFB72
:1046C0000B9B1B68180075E437000D9E1FE60D93C9
:1046D00002E60A230E932AE5140082E60CB410B514
:1046E00084B006AC08CC0A0000940100044803948E
:1046F000FFF78CFA04B010BC08BC02B01847C046E3
:104700006130001000B585B0039101210290009343
:10471000034813004A4202A9FFF778FA05B000BD2A
:10472000E132001010B5094A84B01468002C09D099
:10473000012200910300524203A90548A04701202D
:1047400004B010BD00F08CFE0020F9E7886A00205C
:10475000D132001001480421014B1847D01300202A
:1047600091470010014B9B6818470000D0130020B0
:10477000142310B50100188804331B88984710BD16
:10478000162310B50100188802331B88984710BD06
:10479000F0B5C64600B5002916D014230400012543
:1047A00098461827890046184346216818883B8890
:1047B000984701C4431E984140420540A642F3D1A8
:1047C000280004BC9046F0BD0125F9E7124A936F1A
:1047D0009B0815D29066D166002905D0FFE7FFE758
:1047E000FFE7516F106F704704B580210906C217AB
:1047F0005140002800D0C8431BF036FB002104BD07
:10480000F0B5146E556E576F166FFFF7E3FF146621
:10481000556657671667F0BD000000D0114A936FC8
:104820009B0813D210665166002905D0FFE7FFE709
:10483000FFE7516F106F704704B5002801D00020CA
:10484000C0431BF011FB002104BDC046F0B5146E3F
:10485000556E576F166FFFF7E5FF1466556657677D
:104860001667F0BD000000D094464A4A926F920845
:10487000624601D228E0C046F0B5464E346E756EF1
:10488000776F366F00F020F89446424A14665566FA
:10489000576716676246F0BD94463E4A926F92088B
:1048A000624601D254E0C046F0B53A4E346E756EA1
:1048B000776F366F00F04CF89446364A14665566AA
:1048C000576716676246F0BD002B24DB11D0002924
:1048D0003EDA00B5C943404200D1013100F038F85A
:1048E000C943404200D10131DB43524200D1013380
:1048F00000BD002AEBD1002801D1002905D00020FD
:10490000C90FC90701D1C043410800B51BF084FAA3
:104910000022002300BD00B500290ADBDB43524220
:1049200000D1013300F014F8C943404200D10131F5
:1049300000BDC943404200D10131DB43524200D1A6
:10494000013300F005F8DB43524200D1013300BDD2
:10495000002923D1002B18D1002A0CD0BC460D4FC2
:1049600038667A6600210023FFE7FFE7FFE77A6FEA
:10497000386F67467047002801D00748010000B52E
:104980001BF04AFA0022002300BD02000B000020A9
:1049900000217047000000D0FFFFFFFF002B00D078
:1049A000BFE0130C28D1002AE7D080B4114F39663C
:1049B0007A66FFE7FFE730B4040C7B6F396F1B04A6
:1049C00023433B667A66FFE7FFE7FFE7C04684B212
:1049D0007B6F3D6F1B0423433B667A66FFE7FFE76F
:1049E000C04600232C042D0C7A6F386F00196941E2
:1049F000B0BC7047000000D0F0B594460025140EFE
:104A000001D112020835140F01D112010435940F9F
:104A100001D192000235D40F01D152000135D40BDF
:104A20000134254F7C66254C3C660E0C93B2FFE7A3
:104A3000FFE7FFE73C6F6643360C7703BE467343E0
:104A4000DF0B5B04C01AB941130C7343DB18C91A9E
:104A5000CE086643360CB64493B273431F0F1B0156
:104A6000C01AB941130C73431F0B1B05C01AB9417F
:104A7000860D8F023E436643360C092D24DB520A15
:104A80007243801A7703460A6643360C16235B1B73
:104A9000DE40DF40BF1964466643821B7046043522
:104AA00006330100D940A840C01900D30131A24209
:104AB00006D20023F0BD0000000000D0FFFFFFFF82
:104AC000121B0130F3D3F1E709277F1BFE40644638
:104AD000A2B27243801A00D20139220C7243130C25
:104AE0001204821A99410B007046043513370100F5
:104AF000F940A840801900D30131002B02D1A24215
:104B00000AD2F0BD013000D30131121BFAD2013BB1
:104B1000F8D1A24200D2F0BD013000D30131121B06
:104B2000F7E7F0B51C0C00D080E00CB400251C0A9F
:104B300004D11B02160E3343120208351C0B04D19C
:104B40001B01160F3343120104359C0B04D19B004B
:104B5000960F334392000235DC0B02D192185B4171
:104B600001351C00971864410134464F7C66464C61
:104B70003C660E0CFFE7FFE7FFE7C0463C6F66436D
:104B8000360C7703BE4697B27743C01B00D201397B
:104B9000C01B00D201399FB27743C91BC91B170C38
:104BA00077437E04FF0B801BB941CE086643360C69
:104BB0000C2D33DBB644120B1F053A431B0B97B287
:104BC0007743C01B00D201399FB27743C91B170C32
:104BD00077433E043F0C801BB941860D8F023E4354
:104BE000664329277F1BFE400C3D7746AF40BF1927
:104BF00030BCA2B2ABB272437343801A9941220C0B
:104C00007243130C1204801A994102000B00013701
:104C1000001BA941F9D2781E0021F0BD0C277F1B93
:104C2000FE4077467F0BAF40FF19E0E700245D1C94
:104C300007D0144F7D663966FFE7FFE7FFE7FFE720
:104C40003C6F95B29EB265436643401BB141150C63
:104C50001E0C6543664336042F0C3E432D04401B57
:104C6000B141994204D202000B0020000021F0BDA6
:104C700001D19042F7D3801A994101349942F2D37D
:104C8000F6E70000000000D0FFFFFFFF4840414072
:104C9000484018B4134B5B68019308BD18B4114B1E
:104CA0001B68019308BD94460F4A926F920805D283
:104CB000624618B40B4BDB68019308BD0A4AF0B595
:104CC000146E556E576F166F6246FFF7F2FF064A75
:104CD0001466556657671667F0BD18B4014B9B689C
:104CE000019308BDE4830020000000D0FFB55040D0
:104CF0004240504059404B40594000E0FFB5154FED
:104D00004C00640D03D0BC4204D10C0314D8002025
:104D1000090D09055C00640D03D0BC4204D11C03DD
:104D20000AD800221B0D1B0501264B4009D44B401D
:104D300003D58B4200D18242FFBD9942FCD1904203
:104D4000FFBD0B43DB1803431343F5D0C943491898
:104D5000FFBD0000FF07000000B5FFF7CFFF804157
:104D600000BDC04600B5FFF7C9FF01D9002000BD56
:104D7000012000BD00B5FFF7B9FF01D9002000BD3B
:104D8000012000BD00B5FFF7B1FF804100BD01204B
:104D900040054A00121804D85A00121801D8002001
:104DA0007047012070470020704700000021002854
:104DB00005D17047C1174840401AFAD0C90713B54A
:104DC000064B1B6898470CBC441CA2401005120BF4
:104DD0000349091B09051943114310BD7C720020CA
:104DE0001F04000010B54C00620D8023D218DB00B8
:104DF000D21A5B057E2A10DD9E3A13DACC1709031E
:104E0000490819435242D140640001341532202A26
:104E100005DAD0400843604310BD002010BD0846AD
:104E2000604310BDC80FC018013810BD18B4024B44
:104E30005B6A019308BD0000E483002018B4024BB4
:104E4000DB6F019308BD0000E483002010B501482A
:104E5000FEF7E8F8C0080210132370B51D78012D85
:104E600011D042DD2748FFF78BFC274C0100802240
:104E7000200000F03FF9022D34D02448FFF778FCE1
:104E8000234B186070BD204C224AA3085B421D4092
:104E900035D02B0022602020A9006118451B0A6034
:104EA0004A608A60CA600A614A618A61CA610A62AC
:104EB0004A628A62CA620A634A638A63CA630A648C
:104EC0004A648A64CA640A654A658A65CA650A666C
:104ED0004A668A66CA660A674A676D08102D08D155
:104EE0008A67CA670C4BA364C7E7074C0A4BA364E5
:104EF000C3E71E339B00E250074BA364BDE70023CA
:104F0000C9E7C04653440000E48300204C3300004E
:104F10007C7200204D4E00101D4F001007B56046FA
:104F200001880A0A0230DF2AFAD1C9B2820804D302
:104F3000028840880004104300E00068014A505095
:104F4000039007BDE483002051434343C9188C46B6
:104F5000110C83B24B4310B4040C614392B280B283
:104F6000504362431C041B0C001910BC594113042C
:104F7000120CC01851416144704700004840414044
:104F800048400E4B5B6818470C4B1B6818470C4A8F
:104F9000936F9B0802D2094BDB681847F0B5146E7B
:104FA000556E576F166FFFF7F6FF054A1466556684
:104FB00057671667F0BD014B9B681847E4840020D3
:104FC000000000D0014BDB6F18470000E484002094
:104FD00010B50148FEF726F868000210132310B53B
:104FE0001C781148FFF7CCFB012C0BD004DD01002D
:104FF00080220E4800F07EF80D48FFF7B9FB0D4BFC
:10500000186010BD094C54220100200000F072F815
:105010002300094A80332168002900D1226004342A
:10502000A342F8D1E8E7C04653460000E4840020DC
:105030004C3300007C720020D14F001070B504008A
:105040000A4E30001AF080FF20001AF01FFA050007
:1050500030001AF0D9FE002D05D0054B2C199C42CA
:1050600001D8280070BD0348FDF7DCFFD01C0020EC
:1050700000000420D808021070B505000C000B4E8B
:1050800030001AF061FF280021001AF0C5F9050070
:1050900030001AF0B9FE002D05D0054B2C199C42AA
:1050A00001D8280070BD0348FDF7BCFFD01C0020CC
:1050B00000000420D808021070B50500054C20003F
:1050C0001AF042FF28001AF0EBF920001AF09CFEBB
:1050D00070BDC046D01C002001480421014B184778
:1050E000E013002091470010014B1B681847000097
:1050F000E0130020014B5B6818470000E01300201C
:10510000030010B508001B681100984710BDC04689
:10511000F8B54746CE4680B5437D80460C00150065
:10512000002B43D0002A34DD0A78037D00200A2AB0
:1051300033D0012D1ED0204B0121671E994602E07D
:105140003100B54216D0635C7A5C4E1C0A2BF7D155
:105150000D2AF5D043461B68884204DA091A201844
:10516000984743461B680221484698473000310063
:10517000B542E8D1854204DD4346291A1B68201850
:1051800098476419013C23780D3B5A4253414246EB
:1051900013750CBC90469946F8BD002BC9D1434607
:1051A000054802211B6898470120C2E703681100E7
:1051B00020009847EDE7C0464C090210F8B54E466E
:1051C000DE4657464546344BE0B51C688146002C08
:1051D0004ED0324B9A46324B9B4602E02469002C5B
:1051E00046D02368002BF9D052461268002A01D01D
:1051F000A242F3D14F46627D40CF002A48D0002E14
:10520000ECDD49460979227D00200A2939D0012E9A
:105210001ED04B4601215D1C03E001354146464549
:1052200016D04B1C98462B79EA780A2BF5D10D2A1B
:10523000F3D02368814203DD091A381898472368A0
:105240000221584698470135404641464645E8D137
:10525000864203DD311A236838189847BF19013F89
:105260003B780D3B5A42534123752469002CB8D139
:105270004A46002313603CBC90469946A246AB4682
:10528000F8BD002AC3D10648083998470120BEE777
:10529000310038009847A1E74C2C0020642C0020F6
:1052A0004C0902100B6870B505000C00802B04D06F
:1052B0005A1C2260E418257170BD0800FFF77EFFBC
:1052C0002368F5E7F0B5DE4657464E464546E0B55D
:1052D00085B017001C0006000D00FCF7B3FE00238C
:1052E000324A12184B41002B5BDB314908008846DB
:1052F0001AF0FAFD01906B1C03D130001AF0B6FBD6
:105300000500002C28D12B4B9A462B4B1C68002CF7
:1053100015D0002F23D1294F02E02469002C0ED094
:105320002368002BF9D03B68002B01D0A342F4D1B5
:1053300020002A003100D0472469002CF0D1019BC5
:10534000002B2AD1681E8541E8B205B03CBC9046CE
:105350009946A246AB46F0BD194B9A46D5E7174B86
:105360009B4602ABDF1D0A23994602E02469002C0C
:10537000E5D02368002BF9D05B461B68002B01D0D9
:10538000A342F3D12A0031002000D0474B4601222E
:10539000390020003B70D047E8E740461AF034FD62
:1053A000D0E70122074B52429FE7C04640420F0020
:1053B000D81C0020115100104C2C0020642C00201F
:1053C00001510010FFFFFF7FF0B5CE46474680B584
:1053D00083B06B46DE1D05003070FCF733FE002302
:1053E0001A4A12184B41002B2CDB194F38001AF0C7
:1053F0007BFD184B80461C68002C16D0164B994636
:1054000002E02469002C10D02368002BF9D04B4611
:105410001B68002B01D0A342F3D1200001223100F0
:10542000FFF776FE2469002CEED14346002B05D110
:10543000280003B00CBC90469946F0BD38001AF025
:10544000E3FCF5E70122054B5242CEE740420F0054
:10545000D81C00204C2C0020642C0020FFFFFF7F74
:1054600070B504001AF002FB0023010005000122C0
:105470002000FFF727FF084B1C68002C06D063684C
:10548000002B05D098472469002CF8D1280070BD66
:105490002469002CF3D1F9E74C2C00200A4A136848
:1054A000002B05D10CE01A001B691032002B07D02D
:1054B0009842F8D1002902D1036913600161704755
:1054C0000029FCD01060FAE74C2C0020F0B5A3B006
:1054D00004000D00FCF7B6FD00231B4A12184B41D7
:1054E000002B2CDB194E30001AF0FEFC00230700C5
:1054F000019322002B0001A91548FFF703F9019B36
:105500000500002B02D001A8FFF758FE114B1C68C4
:10551000002C06D06368002B08D098472469002C23
:10552000F8D1002F07D1280023B0F0BD2469002C4A
:10553000F0D1002FF7D030001AF066FCF3E701221B
:10554000054B5242CEE7C04640420F00D81C002017
:10555000A55200104C2C0020FFFFFF7F0FB400B5B8
:1055600083B004A901C90191FFF7B0FF03B008BCE3
:1055700004B0184710B500F0E1F910BD7047C046FF
:105580000022014B1A707047F17300204B79002004
:10559000FF2B0BD18B79002B08D1CB79012B05D1B7
:1055A000082A03D98A78024B09301A707047C0461E
:1055B000F17300200120704770B5012909D1154908
:1055C0005379107909781B0203430020994202D0D5
:1055D00070BD0120FCE75378012B08D0022BF7D1D6
:1055E000002064220021FDF723FC0120F0E7D4789D
:1055F000917824020C430500E20502D5620A93402B
:105600001D000548FFF7B4F87F2103002140280062
:105610009847C046F17300205542000001230370F3
:1056200000487047500902104A780B7812021A435A
:105630008B7810B51B041A43CB781B0613439622B4
:10564000D200934200D010BD0348FFF791F800212B
:10565000030008009847C04655420000024B1860FE
:10566000024B19607047C046902B0020942B0020FD
:10567000114B70B51A68002A1AD0EFF3108172B678
:1056800010680028FCD0BFF35F8F00220B485960E0
:1056900002701B68BFF35F8F1A6081F310880024CB
:1056A0000025074B1878FBF7EFFC2900200070BDA0
:1056B000FA240025A400F4E7B86A0020F87300205B
:1056C000F673002010B5024B1878FBF7DDFC10BD17
:1056D000F673002070B5050000200E0001F046FBB7
:1056E000002835D0002001F059FB002830D0FCF70D
:1056F000A9FC0023184A12184B41002B24DB174C3D
:1057000020001AF0F1FB002822D0002001F02EFB2F
:1057100000280BD1012000214042032500F0E6FCC7
:105720006D4220001AF070FB280070BD002001F0CF
:1057300035FB0028EED029003200002001F03AFBB2
:10574000051EEED1033DECE70122054B5242D6E7A0
:1057500003256D42E8E7C04640420F00B4720020C6
:10576000FFFFFF7FF0B5D6464F464646C0B507005F
:105770000E00FCF767FC0023394A12184B41002B3E
:105780005EDB3849080088461AF0AEFB002804D1D9
:105790001CBC90469946A246F0BD002001F0E6FAF6
:1057A000002851D00024002E35DD2F4B99469A4613
:1057B00015E0002851D101200021404200F096FC64
:1057C000002001F02FFB002001F0D0FA002822D0A9
:1057D000002001F07DFB002821D0A6421BDD002027
:1057E000351B01F075FB8542E3DC2A0039190020E6
:1057F00001F054FB050001200021404200F076FC3E
:10580000002001F00FFBFCF71DFC4B4664191860EB
:105810005960A642E3DC40461AF0F6FAB8E7FCF716
:1058200011FC00230D005146104A8446086849685F
:1058300012184B419D42EED8CFD19445CDD9EAE71D
:1058400001220B4B52429CE700200021064B1860BE
:10585000596040461AF0D8FA9AE70500C5E7C046F5
:1058600040420F00B4720020601E002020A10700FB
:10587000FFFFFF7F10B5244C84B0002120001AF0F8
:105880000BFB00281CD1214B1A68002A16D0EFF31D
:10589000108172B610680028FCD0BFF35F8F01241E
:1058A0001B48596002781B68D2B20470BFF35F8F47
:1058B0000020186081F31088002A0AD004B010BDBF
:1058C00001200021404200F011FC20001AF09CFA57
:1058D000F4E7FCF7A5F80400FCF7B4FBFA22002378
:1058E000920012184B41002B09DB0121029100218B
:1058F0000191084920000091FCF7F2F8DEE701224F
:10590000054B5242F1E7C046B4720020B86A00204D
:10591000F873002071560010FFFFFF7F054B10B594
:105920001868002804D0044B0022196801F082F89E
:1059300010BDC046902B0020942B0020D02310B522
:105940001B0684B01C68FCF76BF8FCF717FAA04242
:1059500002D0002004B010BD264B1B7801F0C8FC1B
:105960002548FBF753FE0120FBF724FEFF23234CC1
:10597000234920701840FBF7ADFB20780121FBF78D
:1059800065FB0520FBF788FB002822D1FCF748F8CF
:105990000400FCF757FBFA220023920012184B4137
:1059A000002B22DB012102910021019115492000E9
:1059B0000091FCF795F80822040000211248FFF737
:1059C00093FB002CC5DB11480121FFF767FD012087
:1059D000C0E700220E490520FBF7A6FBFBF71AFBE8
:1059E00001000948FBF73EFEEDE70122094B524258
:1059F000D8E7C04604080610B4720020F6730020F1
:105A00007558001071560010B86A0020F01300207D
:105A1000C5560010FFFFFF7F00487047000A0210C4
:105A200000487047AC09021070B5040016480378AE
:105A3000002B20D0002C18D0052C23D8134B144851
:105A4000A400E558811C002304E001330A800231E0
:105A5000132B14D0EA5CDCB2002AF6D1C023013447
:105A600064009B001C43048070BDC1240848094B9E
:105A7000A4004380F7E7112100F01EF8DAE7CA24FA
:105A8000A400F0E70020EFE7E4720020140A0210FF
:105A9000242C00200904000010B5024800F0F2F8A0
:105AA00010BDC046E06A002010B508220149FFF78A
:105AB00021FB10BDE06A0020013930B5002900D17A
:105AC000B8E06F4B1A781211D5B22C003034092A85
:105AD00000DDB2E00470012900D1CEE00F221C7875
