:020000041000EA
:1000000000B5324B212058609868022188439860DF
:10001000D860186158612E4B002199600221596106
:100020000121F02299502B49196001219960352056
:1000300000F044F80222904214D00621196600F024
:1000400034F8196E01211966002018661A6600F04E
:100050002CF8196E196E196E052000F02FF8012189
:100060000842F9D1002199601B49196000215960AB
:100070001A491B48016001219960EB211966A021F2
:10008000196600F012F800219960164914480160C1
:100090000121996001BC002800D000471248134993
:1000A000086003C880F30888084703B5996A0420EC
:1000B0000142FBD001200142F8D103BD02B5186610
:1000C0001866FFF7F2FF186E186E02BD00000240BE
:1000D000000000180000070000035F00212200005C
:1000E000F4000018222000A00001001008ED00E03C
:1000F00000000000000000000000000074B24E7A12
:1001000000200420F7010010C3010010C5010010F9
:10011000C1010010C1010010C1010010C101001097
:10012000C1010010C1010010C1010010C701001081
:10013000C1010010C1010010C9010010CB01001065
:10014000CD010010CD010010CD010010CD01001037
:10015000CD010010CD010010CD010010CD01001027
:10016000CD010010CD010010CD010010CD01001017
:10017000CD010010CD010010CD010010CD01001007
:10018000CD010010CD010010CD010010CD010010F7
:10019000CD010010CD010010CD010010CD010010E7
:1001A000CD010010CD010010CD010010CD010010D7
:1001B000CD010010CD010010CD010010CD010010C7
:1001C00000BE00BE00BE00BE00BE00BEEFF3058054
:1001D000103800BEF2EB88713073001058730010B5
:1001E0003402001090A31AE700201F49086006C8D7
:1001F00081F3088810471D48006800282FD10DA4FE
:100200000ECC002902D000F012F8F9E71849194A7B
:10021000002000E001C19142FCD1174988471749ED
:1002200088471749884700BEFDE701C901C29A42C5
:10023000FBD3704758730010C0000020700F0020DF
:100240000882001000000420000004200882001032
:10025000001004200010042000000000704709482E
:1002600003F0D2FB0047000008ED00E0000000D0E2
:10027000700F0020101D0020F92100100104001053
:10028000F12200105756000006005250ABB36053E5
:10029000DC70001006005250861C0302EC70001047
:1002A000060052505422A29DF870001005005250D2
:1002B000DE65F46808820010F8B5C0460448054BB6
:1002C00010B5834203D0044B002B00D0984710BDDB
:1002D000700F0020700F0020000000000648074942
:1002E000091A8910CB0F591810B5491003D0044BC7
:1002F000002B00D0984710BD700F0020700F002019
:100300000000000010B5074C2378002B09D1FFF73F
:10031000D5FF054B002B02D0044800E000BF0123AD
:10032000237010BD7810002000000000906D0010B8
:10033000054B10B5002B03D00449054800E000BF71
:10034000FFF7CCFF10BDC046000000007C1000206D
:10035000906D001010B50421022000F0B7F80122C2
:100360000A4B0B491A600B4B5962C821C9009961AD
:10037000094B1968094B4B401B0409491B0C0B60C6
:10038000084B1B689A43084B1A6010BD441A0020A2
:10039000A861000000000540200005405307000050
:1003A00020100540140005401410054010B504212C
:1003B000002000F08BF800220A4B1A600A4A0B4B0F
:1003C0001361402353600A4B19680A4B4B401B04CE
:1003D00009491B0C0B60012312689343074A136001
:1003E00010BDC046481A002000000540127A0000E7
:1003F0000C0005406A1800000C1005400010054074
:10040000F8B504F07BF9214DFFF7D0FFFFF7A2FF0D
:100410001F4F204EFA20800000F0CCFE0C2004F08C
:1004200097F82B681C491D4C4B401B041B0C236088
:100430001B4A1C4B380004F055F91B492B681B4A1A
:100440004B401B041B0C23603000194B04F04AF98D
:10045000FA20800000F0AEFE0C2004F079F82B6842
:100460001449154A4B401B041B0C23603800134BE6
:1004700004F038F92B681249124A4B401B041B0C3C
:1004800023603000104B04F02DF9C3E70C00054049
:10049000906D0010A86D0010160800000C100540AB
:1004A0008FC2F5285C8F20408D5B0000E4141DC9CD
:1004B000E5BF524001070000E3A59BC420B01C40EB
:1004C00025260000736891ED7C3F3F40094A830078
:1004D00094464022634410B51C68C0006240C024AA
:1004E00014408022520113431C60034B9C4660441D
:1004F000416010BD04C0014000400140024B18683B
:100500008007C00F7047C04600C00640F8B5EFF343
:10051000108772B60D4E3368002BFCD0BFF35F8F8F
:100520000725CB08C01801230D40AB401D000478FF
:10053000254007D123430370BFF35F8F356087F3F6
:100540001088F8BD100001F0D7FEC0462C0100D085
:10055000F8B5CE4647468C4680B5EFF3108872B6A4
:10056000214D2C68002CFCD0BFF35F8F9A422CD811
:100570000721012511408D40D40804192678354201
:100580001FD007218946063909E04D460F00154066
:10059000AF40D408041926783D00374211D001320B
:1005A0009342F2D201204042BFF35F8F00220E4BF4
:1005B0001A6088F3108800280FDB0CBC904699461F
:1005C000F8BD354325701000EEE7BFF35F8F0023C1
:1005D0002B6088F31088012040426346002BECD04A
:1005E000089801F089FEC0462C0100D00021044B80
:1005F000044ABFF35F8F02C39342FAD17047C046EB
:10060000000100D0800100D0044A1078431CDBB206
:10061000172B00D9102313707047C046500E0020CE
:1006200000B5054B83B00100009318221F23034837
:10063000FFF78EFF03B000BDC06D0010381500201D
:1006400001238340002904D0034A1360034A136046
:100650007047034A1360FBE780E200E000E100E03E
:1006600080E100E001238340014A13607047C046E7
:1006700000E200E0084B10309B688000C358002B5C
:1006800007D0064A00209B1A2F229A424041C0B24E
:1006900070470020FCE7C04600ED00E0540E00204B
:1006A000024B10309B688000C058704700ED00E09E
:1006B00070B50D00EFF3108672B60F4A1368002B69
:1006C000FCD0BFF35F8F0D4B10309B6884001B592B
:1006D0000B4A934203D09D4201D001F025FE074B07
:1006E0009B681D51BFF35F8FBFF35F8F0022024BEA
:1006F0001A6086F3108870BD240100D000ED00E080
:10070000CD010010F8B557464546DE464E468A46AE
:10071000E0B590460700EFF3108972B65F4A1368A0
:10072000002BFCD0BFF35F8F00205D4B18569B461B
:10073000002800DAA2E05A4644005A4D2418A400CA
:100740002E19B37910371370574BBA009B68934634
:1007500099584B1B2F2B41D801230A009A43D37978
:100760009446434514D90627D7571300002F06DABD
:100770008DE00627DF571A00002F00DA87E07B00A4
:10078000DB199B00EB18DF794745F2D8002A51D1DD
:10079000464A63465B1B5B415A43120D444BA11C06
:1007A0003380444B6918043B5B1A1B0542495B0DBF
:1007B0000B43738063460434043B2D195D1B434691
:1007C0002D05F3716D0D53462943B180B27101219E
:1007D0006246B360394B3143136018E0384B99429D
:1007E00052D1334B02343380324B2D19043B5D1B05
:1007F0002D05314B6D0D1D43324B0121B380FF237D
:10080000B3714346F37153467580B36031435A4622
:10081000254B9B689950BFF35F8FBFF35F8F00221A
:100820001E4B1A6089F310883CBC90469946A2463C
:10083000AB46F8BD0627D757131D9C46002F2BDB70
:1008400004342D19E024938824025B051B156344AE
:100850005B1B1B055B0D23436546341F641B24058E
:10086000154D640D2C4394809071B3804346F37111
:100870005346124AB7713260B360C8E701F054FDC5
:100880005B460020185656E701F04EFDA9E71A1DF9
:1008900094461A000C4BDFE70B4BDDE7240100D038
:1008A0003D1A0020540E002000ED00E0AAAA00002E
:1008B00000A1FFFF840E002000E0FFFF01488047F9
:1008C000CD01001001BDFFFF01BD0000F0B54546A0
:1008D000DE4657464E46E0B50D0083B0EFF3108973
:1008E00072B6584A1368002BFCD0BFF35F8F564B8B
:1008F0009A68030010339F00D459544A904694429A
:1009000034D0AC4245D0524EA21B2F2A2ED8012201
:100910008240924651464F4A126811400191514619
:100920004D4A1160BFF35F8FEFF305829346002AB3
:1009300035D10123220006219A43936851569D42E6
:100940000AD16AE04B005B1806219B00F3189868F7
:100950005956A84228D01A000029F3DA019B002B2F
:1009600019D052463D4B1A603A4B1A60364B9B6881
:10097000DC51BFF35F8FBFF35F8F0022314B1A60F2
:1009800089F3108803B03CBC90469946A246AB461A
:10099000F0BD1400EAE752462F4B1A60E6E7934297
:1009A000C7D001F0C1FCC4E7002921DB4A00501880
:1009B000800035188046A8689860E879D8710620CC
:1009C00028569871002826DBAD88F01A6D052D1584
:1009D00045444019E0250005400D2D02284398802C
:1009E00052181F4B9200B6181A781970B271B5E7F9
:1009F0005946002917D1002A22D0FF319171194997
:100A0000918017490A789A71174A9B1B5B415A4398
:100A1000120D0A70A2E71548E1E713000029C5DAB4
:100A20005A46002A0CD0124A1249D21A083A5002E9
:100A3000400D01439980104952080A43DA808DE73E
:100A40004446DEE7240100D000ED00E0CD010010B7
:100A5000540E002000E100E080E100E080E200E0D0
:100A60003D1A002001BDFFFFAAAA000001BD000041
:100A70008E0E002000F0FFFF00F8FFFFF0B5EFF34F
:100A8000058101240443EFF3108672B6214A1368EE
:100A9000002BFCD0BFF35F8F1F4B204A0500ED1ADF
:100AA0006D416A43120D1E4D8900AF6852B27F58E6
:100AB000A7421CD00621595691421CD012215956EA
:100AC000914222D01E215956914220D02A215956B6
:100AD0000324914210D0134B19781A708171BFF31F
:100AE0005F8F00220B4B1A6086F31088F0BDAB6855
:100AF0000D4C5C50EFE700246100091989005B1878
:100B0000FF21997109499980E5E70124F4E702245E
:100B1000F2E7C046240100D0540E0020AAAA00002B
:100B200000ED00E03D1A0020CD01001001BDFFFFE7
:100B3000054B064A1360064A136053609360D36006
:100B400013615361936170478080808000E400E00E
:100B500004E400E000B5074B83B0010000930022DD
:100B600005230548FFF7F4FC002801DB1F23181AB2
:100B700003B000BDDC6D0010421A0020024B9C4601
:100B800061448900016070474000003410B50400E2
:100B9000FFF73AFD01002000FFF7F0FFFF2323716C
:100BA000BFF35F8F10BDC04610B50400FFF72CFDEA
:100BB00001002000FFF7E2FFFF23A380BFF35F8F58
:100BC00010BDC04610B504000120FFF729FD044BFD
:100BD0009C46604480002060BFF35F8F10BDC0461C
:100BE00040000034034B9C46614489000160BFF320
:100BF0005F8F70474000003470B506000D00140090
:100C000000291ED0002A1ED07368806898476300B0
:100C10006A001B195219033B033A3168002808D0B7
:100C2000CB188A189D70117800290ED114702800F5
:100C300008E08A18CB1894701978002900D05170F8
:100C40001D70200070BD0800FCE75970280014706A
:100C5000F8E7C04683680B4810B584466144624497
:100C6000090112019A18591854684B6801209C42D6
:100C700001D802D00020C0B210BD12680B689A42A1
:100C8000F9D8F7E7FFFFFF0F0A4B1968EFF3108061
:100C900072B60A68002AFCD0BFF35F8F1B68BFF3EF
:100CA0005F8F00221A6080F3108840BF002000216F
:100CB0007047C046081A0020F8B54746CE4680B5B2
:100CC00014001D000BAA0AAB12781B7880469146CF
:100CD0000768002B12D1BE7B002E44D072009219FF
:100CE0003968033A891848783300B873002800D16E
:100CF000F873002088704870087003E01E005A00E6
:100D0000D218033A1A4938008C4641468968634430
:100D10008C461B0108996344996009991C605D60C9
:100D2000D9603B689C4600236244937053701370F3
:100D3000797B3200FFF760FF7873B04213D14346EE
:100D40002200187D2B0000F0AFFB041E07D04B469D
:100D5000002B04D143463100186800F023FF0C9BA0
:100D6000002B00D01C7030000CBC90469946F8BD9A
:100D7000FFFFFF0FF0B5DE4657464E4645460023BF
:100D8000E0B58BB00893684B8200D45800239B4693
:100D9000099000F0F7FA6268EFF3108572B61368F5
:100DA000002BFCD0BFF35F8F23689C465B7B99468A
:100DB000002B00D16DE0A2685C4B90464B441B01B8
:100DC000984443461E685F6832003B00121A8B410C
:100DD000002B00DC67E032003B00099800F064FB68
:100DE00000230022984600230692079300239A4688
:100DF0006368BFF35F8F5A461A6085F310885346C5
:100E0000002B08D10028C4D10BB03CBC90469946B9
:100E1000A246AB46F0BD089B414618024B4618431C
:100E2000D047626806000F00EFF3108572B61368B2
:100E3000002BFCD0BFF35F8F002F52DB33003B430E
:100E400002D02369002B63D12368DA7B002A07D004
:100E500051008A1819688C4649466244033A517019
:100E60009A7B002A01D14A469A734A46DA73E268AD
:100E70004B469446013B63441A7801321A705B4634
:100E800023616368BFF35F8F5A461A6085F3108849
:100E90007FE7002300229846002306920793002351
:100EA00000209A46A4E7002B02D1002A00D092E746
:100EB0000021604600F094FD43461A685B68069284
:100EC000079343469B689A464346DB689846E36827
:100ED0004B44013B1B7808931B0203432361002012
:100EE00086E72369002BAFD0069A079B921BBB4174
:100EF000002B15DB594604910121039149460291CB
:100F000041460191514620000091FFF7D5FEB6E71A
:100F100000F038FA32003B0012184B41002BE9DA9E
:100F20000122034B5242E5E7EC190020FFFFFF0FBF
:100F3000FFFFFF7F10B5144C6368002B04D00A211B
:100F40001248FFF71BFE10BD2300114A1021206834
:100F500000F064FB032000F009FA032000F010FB0E
:100F60000C49032000F05AFAFFF74EFB0A4B9C464F
:100F700003232375D0231B061B6860446375074B4E
:100F800080006060DC60DAE79C0E0020081A002018
:100F9000550C0010750D001040000034EC190020B5
:100FA000004870479C0E0020F0B54E465746454617
:100FB000DE46E0B583B0009201930EAB1B780700CC
:100FC00099460023002698467A68EFF3108A72B695
:100FD0001368002BFCD0BFF35F8F3D68AC7B002C07
:100FE00000D168E063001B192A68033BD2185178CE
:100FF000A346A973002900D1E97396705670167044
:10100000B968384A8C4600980199A21812016244C6
:10101000106051600C99280091600D99D1602A6888
:10102000944663449E705E701E70697B2200FFF7D9
:10103000E3FD6873844244D0FB681B19013B1878B8
:101040007B68BFF35F8F1E608AF31088002C45D049
:101050004346002B09D15B460002184303B03CBC59
:1010600090469946A246AB46F0BD4B46002B26D093
:101070000C9B0D990020984703000B431FD00400E0
:101080000D1E09DA009A019B121BAB4100920193DD
:10109000002B09DBC84697E700F074F924184D418E
:1010A00000940195002DF5DA01230F4C5B4200936B
:1010B0000194C84688E7002300209B46C0E7002033
:1010C000CCE7387D009A019B00F0EEF980460028BD
:1010D000B2D02100386800F065FDADE70120404244
:1010E000BCE7C046FFFFFF0FFFFFFF7F407D70475B
:1010F000F0B504000D0006267642F717C6463619ED
:101100006F4100B584B08F4214D811D000F03AF985
:1011100032003B00121A8B41002B15DC002B3ED015
:101120002000290000F06AF904B004BC9046F0BD2C
:101130008642EBD90026002700F024F932003B005C
:10114000121A8B41002BE9DD002302930193154B0A
:101150003200009314483B00FFF726FF0028DFDB36
:1011600000239846BC46114A114F7B6A9C4504D81F
:10117000B96AB142D4D29C45D2D11168EFF3108044
:1011800072B60B68002BFCD0BFF35F8F1368BFF300
:101190005F8F4146196080F3108820BFE5E7002A81
:1011A000BED0D1E7890C00109C0E0020081A002048
:1011B0000040054070B5060000F0E4F8FA22040093
:1011C0000D00920000233000002102F0F9FF001909
:1011D0006941002902DBFFF78BFF70BD0120014947
:1011E0004042F8E7FFFFFF7FF0B5EFF30583CE46FF
:1011F000474680B5050085B00C00002B11D02B4A66
:101200000020536AA34207D3926A0130AA4203D254
:101210001C1B601E8441E0B205B00CBC9046994690
:10122000F0BD234E02930193224B02000093300045
:101230000B00FFF7B9FE0028E1DD20BF7268EFF375
:10124000108772B61368002BFCD0BFF35F8F336832
:10125000C1B29C466246FF23527B03408A420BD0B8
:101260005A00914662461268994490464A46424462
:10127000033A9278002A10D0F268000A904643445C
:10128000013B1A78C0B282420CD07368BFF35F8F03
:1012900000221A6087F31088B1E733699842F4D1CD
:1012A0003261F2E7604600F07DFCEEE70040054069
:1012B0009C0E0020890C0010F8B5EFF30582CE4695
:1012C0004746100080B51038EFF3108C72B6204CF2
:1012D0002368002BFCD0BFF35F8F012319008140EE
:1012E0001C4D1D4E716329601C4DA9462D782F00A1
:1012F000C7403B4015D0736A194E984683009E59EB
:10130000B04517D3174A8D439B584A461570BFF313
:101310005F8F002222608CF31088002B06D0984744
:1013200004E0BFF35F8F23608CF310880CBC904601
:101330009946F8BD0C4B92009846424413681360DE
:10134000BFF35F8F002323608CF31088EEE7C04665
:10135000280100D03C70054000400540411A0020A3
:10136000141A002018140020D03F054010B50100C9
:10137000024A0348FFF7CAF810BDC046F86D0010D6
:101380003C1A0020044A516A00E01900906A536A2E
:101390009942FAD17047C04600400540164A70B5E0
:1013A000546A00E01C00956A536AA342FAD12A00ED
:1013B00023008018594105000E008C4202D819D133
:1013C000824217D9012201256D42EE1752420A4C82
:1013D000636A9342FCD39A420BD1074B2800996A67
:1013E000A94203D305E0996A814202D2596A914227
:1013F000F9D070BD3200EAE700400540064A536A62
:101400009942FCD807D1044B02E05A6A914202D1BA
:101410009A6A8242F9D370470040054070B50400D3
:101420000D00EFF3108672B61A4A1368002BFCD039
:10143000BFF35F8F002D1BD02000FFF731F9164955
:1014400088420AD02000FFF733F901212000FFF77E
:10145000F7F80123A340114A1360114BA400E55093
:10146000BFF35F8F00220B4B1A6086F3108870BDAC
:101470000B4BA200D5500122A2400A4920000B7854
:1014800093430B700449FFF721FA00212000FFF776
:10149000D7F8E5E7280100D0B91200103860054000
:1014A00018140020411A0020F0B5D6464F46464693
:1014B0002E4CC0B5656A00E00D00A66A616AA942BB
:1014C000FAD1AB4209D806D0012420001CBC9046BA
:1014D0009946A246F0BDB242F6D9EFF3108972B632
:1014E000234C21680029FCD0BFF35F8F01262149DE
:1014F00086408C460978204D0F0037438846F9B264
:101500008A46614654460C701849041DA4004E6377
:101510006250840063510D6A002435421AD04D6A2E
:1015200000E025008F6A4C6AAC42FAD1AB4219D870
:1015300001D1BA4216D8C24516D00C4B0F4A1E62D2
:101540005E631F2318401E3B834013606346424680
:1015500001241A70BFF35F8F0022054B1A6089F3D4
:101560001088B2E70024F5E70124F3E700400540C6
:10157000280100D0411A0020141A002080E200E067
:1015800010B5EFF3108472B60A490B68002BFCD03B
:10159000BFF35F8F01238340074A08481362027834
:1015A0009A430270BFF35F8F00230B6084F31088AF
:1015B00010BDC046280100D000400540411A00205F
:1015C00070B506000D00140000291ED0002A1ED0A0
:1015D00073688068984763006A001B195219033BBF
:1015E000033A3168002808D0CB188A189D7011780A
:1015F00000290ED11470280008E08A18CB189470C6
:101600001978002900D051701D70200070BD0800AD
:10161000FCE7597028001470F8E7C046F0B5DE46C4
:1016200057464E464546E0B58360002389B0426088
:10163000026806914373C9B2013305910173837344
:10164000C1730492012900D8A4E00A004B1ED9B24C
:10165000931E0791072B00D8AEE00025CB0803931B
:10166000049B564C591C564B56489B46564B9A4623
:10167000564B9C46564B0293524663465F465E4627
:1016800062401A40504B2740FB185A4006405346D0
:1016900001966646434033404B4E0A70B046019E69
:1016A0000135B146C844464673401604360ECE7026
:1016B0001602120E4A721A04120E0B73CA731A0221
:1016C0001B0E4B75029B360E5C4063461C40404B24
:1016D000120E9846029B47445840634618404B46BA
:1016E00043445840039BEDB28E718A747C4018319C
:1016F000AB42C1D1079907230A009A43531CDBB2BE
:10170000914247D0049C5A00A446D218591C624406
:10171000059DC9B2033A51708D423BD94A00521817
:10172000981C6244C0B2033A5070854232D94200DC
:101730001218D91C6244C9B2033A51708D4229D99A
:101740004A005218181D6244C0B2033A50708542D4
:1017500020D942001218591D6244C9B2033A51708F
:101760008D4217D94A005218981D6244C0B2033AFC
:10177000507085420ED942001218D91D6244C9B278
:10178000033A51708D4205D94A0052186244033A17
:1017900008335370FF23069A13405900C918049B5D
:1017A0009C460023614403394B7009B03CBC904611
:1017B0009946A246AB46F0BD0123A3E7010203040C
:1017C0007F7F7F7F050607080101010180808080FF
:1017D0000808080870B50400002907D04B0000680D
:1017E0005B18033BC3185A78002A01D1080070BD6A
:1017F0005500AD18033D40190025467845705D70D1
:101800002000FFF7DDFE310005002000FFF7E2FFBA
:10181000290002002000FFF7D3FE0100E6E7C046E2
:10182000F0B54E464546DE465746E0B50E0074001C
:101830000168A41985B0033C01920A1905001078CB
:10184000002850D043001B18033BCB185F78BC46E0
:10185000002F1AD1019C002C42D0EC7B002C04D02C
:1018600063001B19CB18033B5E70AB7B002B00D1D0
:10187000AE73EE7300282FD10023537005B03CBC2B
:1018800090469946A246AB46F0BD7A006244033AC0
:1018900089184A78934600224A7090465A7001008F
:1018A0003A002800FFF78CFE5B468146002B07D0EC
:1018B0005B0029685B44033BCB185A78002A16D199
:1018C0005A4649462800FFF77BFE2968019B0A1902
:1018D000002BC2D10028CFD043001B18033BCB18EC
:1018E00000219970C8E7019B002BB6D1C4E75000D6
:1018F0008018033809184878824640464870587066
:1019000059462800FFF75CFE53468346002B07D05C
:101910005B0029685344033BCB185A78002A06D150
:10192000594652462800FFF74BFE8346C8E7500051
:1019300080180338091840464F784870587051464F
:1019400028000297FFF73CFE8246002F08D0BC46D5
:101950007B0029686344033BCB185A78002A06D1E0
:101960005146029A2800FFF72BFE8246D8E7500026
:1019700080180338091840464F784870587002990B
:1019800028000397FFF71CFE8046002F08D0BC46B6
:101990007B0029686344033BCB185A78002A06D1A0
:1019A000039A41462800FFF70BFE0290D8E7032078
:1019B00050430338091800204F7848705870039935
:1019C0002800FFF7FDFD390002902800FFF702FF15
:1019D000029902002800FFF7F3FD0390E0E7C046FC
:1019E000F0B54E464546DE465746E0B5467B040018
:1019F00075000068AD19033D85B042190191117859
:101A0000002952D04B005B18033BC3185F78BC46DB
:101A1000002F1CD1019D002D44D0E57B002D04D06A
:101A20006B005B19C318033B5E70A37B002B00D1D6
:101A3000A673E673002931D100233000537061731F
:101A400005B03CBC90469946A246AB46F0BD7A0034
:101A50006244033A801842789346002242709046CE
:101A60005A7020003A00FFF7ABFD5B468146002B21
:101A700007D05B0021685B44033BCB185A78002AEF
:101A800017D15A4649462000FFF79AFD019B0100F5
:101A900020684219002BC0D10029CDD04B005B1823
:101AA000033BC31800209870C6E7019B002BB4D1FC
:101AB000C2E750008018033809184878824640462B
:101AC0004870587059462000FFF77AFD5346834608
:101AD000002B07D05B0021685344033BCB185A7896
:101AE000002A06D1594652462000FFF769FD834679
:101AF000C7E7500080180338091840464F784870EF
:101B00005870514620000297FFF75AFD8246002F79
:101B100008D0BC467B0021686344033BCB185A784D
:101B2000002A06D15146029A2000FFF749FD82465D
:101B3000D8E7500080180338091840464F7848709D
:101B40005870029920000397FFF73AFD8046002F56
:101B500008D0BC467B0021686344033BCB185A780D
:101B6000002A06D1039A41462000FFF729FD029082
:101B7000D8E7032050430338091800204F784870F5
:101B8000587003992000FFF71BFD390002902000D8
:101B9000FFF720FE029902002000FFF711FD0390DD
:101BA000E0E7C04670B5040000292CD0437B8B428F
:101BB0002ED0056848004018033828188278002A7B
:101BC00021D053009B18033BEB181A788A4202D1AC
:101BD0001BE0002A08D053009B18033BEB185A78EF
:101BE0008A42F6D142785A700023012283704370F2
:101BF0002000FFF715FE617B02002000FFF7E0FCEC
:101C00006073012000E0002070BD42781A70EBE79D
:101C100001221900FFF704FE60730120F4E7C046BB
:101C2000F8B5CE464746040080B506200D0000F00A
:101C300025FA061E52D0524B5249E3185A425341DC
:101C40008022D20394465B4213404F4A63441360A0
:101C50004E4A136018008A689043FBD1484B80219C
:101C6000E3185A4253414A4A5B0049000620995200
:101C700000F004FA2900C00001F01CFFC30932D1B2
:101C8000402290463F3A6262A362266BF30736D445
:101C900027008025E36A00232C376D013D432B602C
:101CA0000620266300F0EAF94146800001F002FFB9
:101CB000236B06009846DB073BD46022E36A5A4058
:101CC0006E2313402B6043462363802310229B0125
:101CD0003B431A602F4B23630323A36430000CBCE7
:101CE00090469946F8BD2C4A93423FD900232B4A8F
:101CF00090462B4A6262A362266BF307C8D5220086
:101D0000C02330329B011343224A06201A60656AC1
:101D1000A36AAD01ED1800F0B1F9224901F0CAFE45
:101D2000AD020100280001F0C5FE0021FFF736FBDF
:101D3000AEE72200C02330329B011343154A062030
:101D40001A60636AA26A9B019946914400F096F971
:101D50004B4614499B02994601F0ACFE01004846EF
:101D600001F0A8FE0021FFF719FBA6E77F22104033
:101D70009A019046013040081A008044030082E72F
:101D80000080FCBF00C0004000E0004000F00040C8
:101D90004C1A002001030000FEFF0000C0FF3F00BE
:101DA000FFFF00004E0E000030B50C2083B000F0A5
:101DB000BBF9FEF7A3FB00280ED0994B994A1A6095
:101DC0005A609A60DA601A615A619A61DA611A623D
:101DD000954A5A6203B030BD944CA06700F0F8F900
:101DE0000122934B1A60636C012BFCD10322914BAF
:101DF0001A608E4A936B012BFCD1013300938E4AFB
:101E0000043301218D4800F03FF905238C4A0093EB
:101E100001218C4800F038F98B4B5A68FF2A02D810
:101E2000802252005A6080227D4C824B216912012F
:101E3000854D1A60002907D0606901F03BFE431C04
:101E40005800C0180338FDD2E0217F4B02201A68E9
:101E50001140802252012A43116019684840032131
:101E60000140116004219A681142FCD08022802137
:101E700092012A4309011160802252005A60734B7B
:101E80002361734B5968FF2900D85A6003227048B8
:101E9000674B01211A60020093681942FCD0E025CB
:101EA00013681D4080235B0103431D6012684A4094
:101EB0000321114019600221654A93681942FCD040
:101EC000802380219B010343090119608021614B1C
:101ED000490051606361604B5A68FF2A00D859601D
:101EE00080225E4BE16912015B4D1A60002907D028
:101EF000606901F0DFFD431C5800C0180338FDD2B3
:101F0000E02255490B681A4080235B012B431A607D
:101F1000802380229B012B4312011A608022414BB7
:101F200052004A60E3614E4B5968FF2900D85A605D
:101F300080224C4B216A1201494D1A60002907D0BA
:101F4000606901F0B7FD431C5800C0180338FDD28A
:101F5000E02243490B681A4080235B012B431A603F
:101F6000802380229B012B4312011A6080235B0097
:101F70004B602C4B3C4A23623C4B5968914201D840
:101F800001325A6080223A4B616A1201374D1A6061
:101F9000002907D0606901F08DFD431C5800C0186E
:101FA0000338FDD2E02231490B681A4080235B01DF
:101FB0002B431A60802380229B012B4312011A605D
:101FC0008023DB024B60184B63622A4B5A68FF2A5E
:101FD00002D8802252005A608022274BA169120148
:101FE000244D1A60002907D0606901F063FD431C8D
:101FF0005800C0180338FDD2E0221E490B681A4071
:1020000080235B012B431A60802380229B012B439A
:1020100012011A6080235B004B600E4BA361D9E66E
:102020003C150020006CDC021BB700000080004063
:102030003CB0004030B00040002F685900800240A2
:10204000008C864700C0024030800040001BB70073
:102050003C800040405973075480004054B0004019
:102060006080004060B00040FFFF03006C800040D3
:102070006CB000404880004048B00040014B8000F8
:10208000C05870473C150020F8B5040021481700DF
:102090001E000D0001F00EFD0100380001F00AFDE8
:1020A000069A3304120313432268002A21DB1A4ADA
:1020B0001A4EA21851424A41802149018C4652428F
:1020C0000A40174962440A6016490A601700B1685D
:1020D0008F43FBD1C021221D89011143212225609C
:1020E000A0600A602268002AFCDAE36008230B6023
:1020F000F8BD3F2221680A40AA42D8D1A268120541
:10210000120D8242D3D1EE21E268C9020A409A42FE
:10211000CDD1EDE7001BB7000040FDBF00C000407F
:1021200000E0004000F000408023024A9B0003438F
:10213000D36270470080054010B580241B4BE40536
:102140001C6000282BD00123194C1843194BDC616B
:10215000194C44401C62596298628021134BC90596
:102160001960164816490860E021C9041960002A60
:1021700004D18022134B12061A6010BD53019B1A22
:102180009B009A18104B12019A420BD80F4B1A6001
:10219000084B5A6080220B4BD2051A60EDE7054BC5
:1021A000D861DAE7094A13601A00F1E700B0054088
:1021B000D3C007B0008005402D3FF84FFCFF010061
:1021C0000820014000A00540FFFFFF00DC190020AF
:1021D000AA23064A1B0113602F230549D360054B30
:1021E00019605368002BFCDA7047C046004002407B
:1021F00000B0FA00006002402D4B2E4A70B51A6004
:102200002D4A2E4B2E491A6010008B689843FBD143
:102210002C4C2D4B9C4209D2013B1D1BAD080135B6
:10222000AD002D1908CC9847AC42FBD1FFF7BCFD9F
:10223000264A224B1A60224A9368DB018033FBD185
:102240004022234B234D24489A675A671A67DA665F
:10225000A84205D30EE0FEF7A7FC2000AC4209D24D
:10226000040003680834002BF5D1FEF78FFC200032
:10227000AC42F5D3194C1A4DA168C022280001F0D8
:10228000FDFFA560FEF7B2F9FEF752FCFEF752FE25
:10229000144C154B9C4209D2013B1D1BAD08013566
:1022A000AD002D1908CC9847A542FBD170BDC046A2
:1022B00000E00040BFCDFBFEFE7F3C0000F0004090
:1022C00000C00040580F0020680F0020FFFFFF01F2
:1022D00000F00140580F0020480F002000ED00E002
:1022E00000000020680F0020700F002000BEFDE7F6
:1022F00010B5FFF7FBFFC0460FB400B5084883B028
:1023000002F072F9049B002B07D005A91800019177
:1023100001F05AFB034802F067F90120FFF7E6FFDE
:10232000286E0010386E001010B50148FFF7E4FF6A
:102330001C6E00107047C046F8B557464E464546DD
:10234000DE46E0B599460A9B07009A460D9B8846F3
:1023500093460B9E15009B070FD10C9B9E420CD2FF
:102360009D1B0E005D44541C4B4631002020B84795
:102370002200A542F7D1B0460B9E002E28D044463D
:10238000AD195346AA1B013E985D21004B46B84744
:10239000002EF6D123002C0098460D9B9B0710D5EC
:1023A0005B46E51A0C9BAB420BD946462200984689
:1023B00001344B46310020200135B8472200A845A2
:1023C000F6D820003CBC90469946A246AB46F8BDE4
:1023D0002C00E2E7F0B54F464646D646C0B584B07D
:1023E00098460EAB1B7894469946129B0D9C109F05
:1023F000119E9A0724D401221A409246002E62D1DF
:10240000BC420CD21F2C00D9B8E00C9A551E3022C9
:1024100001E0202C03D001342A55A742F9D85246B6
:10242000002A0DD0A6420BD9202C5AD00C9A551E4A
:10243000302201E0202C54D001342A55B442F9D185
:10244000DA0632D55A0555D4002C4FD10F9A102AEE
:1024500000D18CE0022A00D17EE030220C9C227058
:102460004A460124002A25D02D220C9D2A550134EC
:1024700003930C9B02960093019443466246FFF738
:102480005BFF04B01CBC90469946A246F0BD202CD0
:10249000EED00C9A1519013478222A70202CE7D03E
:1024A00030250C9A121915700134202CE0D04A46C0
:1024B000002AD9D15A0728D41A07D9D520220C9D31
:1024C0002A550134D4E7002A24D04A46002A28D1CC
:1024D0000C321A4225D1BC42A4D21F2C95D9202EF1
:1024E0001DD92024DA06C3D55A0503D4A7421AD031
:1024F000B44218D00F9A102A1FD0022ACED1202C15
:10250000B6D00C9A121901342EE02B220C9D2A55BC
:102510000134ADE7BC4293D21F2C00D875E72024CC
:102520008EE7013ED7E7621E002A10D00F9D102DC6
:102530002DD0022D15D01400B2E79A06A7D5202C75
:1025400096D058250C9A121915700134A6E70F9CE5
:10255000102C15D0022CEED162220C9C227001248A
:102560009EE70C9DAA4652446225157096E79A068E
:10257000E7D478220C9C2270012491E720244EE7B6
:102580009A06F6D558220C9C2270012488E7023C5A
:102590009D06D6D40C9D2D1914007DE710B500289A
:1025A00000D110BD01F0D4FFFBE7C04610B50028F4
:1025B00003D04A680B681100984710BDF0B5454636
:1025C00057464E46DE46E0B59BB0249D259C82468C
:1025D0008846099299462A0023002800210001F02C
:1025E0001AFD002800D0CBE00122D94B524228002E
:1025F000210001F00BFD002800D0C1E00122D54BE5
:1026000052422800210001F0F3FC002800D0B7E07E
:10261000002200232800210001F0EAFC002800D05D
:10262000EDE1AB4608948023289ADB001A40119212
:1026300001D1062326935B460C9380235946289AA2
:102640001B011A40089B10920B4300D0AFE0002AF8
:1026500000D0BFE104260D930E930C9300230A9340
:10266000279BB34201D99B1B0A930227289B1F403B
:1026700005D0734273410A9A5B421A400A920C9B3E
:10268000002B07D0584608990D9A0E9B01F057FC75
:1026900083460891002200232800210001F0A8FCB5
:1026A000002805D0802000068446089961440891DE
:1026B000289AA94B414613405A4604930A9B504618
:1026C0000393269B0293089B009201934B46099A21
:1026D00000F0A2F9002E63D0289B02009C061F2365
:1026E000E4179C436534431C089320004B46414645
:1026F000D0470C9B0024DA179D18DB0F9B46731EF6
:1027000055400C9302E00500202C11D00AAA9446F3
:102710001F23013463440A2128001E1901F0CAF95D
:102720003031317028000A2101F0C4F9092DEAD8AE
:10273000052306930C9B01940593002304930A330D
:1027400003935B46029312AB0093089A4B464146B3
:102750005046FFF73FFE002F22D0099BC41A279B4B
:10276000A3421DD9020057461E00551C4B46414648
:1027700020200134B8472A00A642F6D828000FE0EE
:10278000289B2A000493279B41460393269B50468F
:1027900002932300009201934B46099A00F03CF902
:1027A0001BB03CBC90469946A246AB46F0BD6B4A76
:1027B000089B94465800400D604401F03FFC684A75
:1027C000684B01F0D6FB684A684B01F0B3FB089BED
:1027D000674A1B031B0B1A4306000F000C981100DD
:1027E000644B002201F0A1FB634A644B01F0C1FB82
:1027F00002000B003000390001F09CFB01F036FCB8
:102800000C9001F01BFC5E4A5E4B06000F0001F0CD
:10281000B0FB00225C4B01F08DFB01F027FC5B4A12
:102820005B4B0D903900300001F0A3FB06000D98C2
:102830000F0001F003FC574A574B01F09AFB0200CE
:102840000B003000390001F070FB02000B000A9011
:102850000B9101F08EFB06000F000A980B99020005
:102860000B0001F067FB00220E900F914B4B3000E4
:10287000390001F064FB0022494B01F05BFB0200D0
:102880000B003000390001F05AFB0022454B01F0EB
:1028900051FB02000B003000390001F050FB0A9A96
:1028A0000B9B0F0080210600C905002001F03DFBB5
:1028B00002000B003000390001F03CFB3A4F0200EF
:1028C0000B000E980F9901F03AFB0022284B01F003
:1028D00031FBBC460D9A624416000022330501F01C
:1028E00048FB07000D900E000E9102000B005846A9
:1028F000089901F07DFB00285ED13B003200C6261E
:102900000C9963318E42B641109976420436002903
:1029100000D1A3E6134361D0089F244A244B5846B4
:10292000390001F06BFB002807D00022214B5846EC
:10293000390001F05DFB002850D1269B002B00D10F
:102940008CE6119B5A1E9341269AD31A269385E64C
:10295000FFFFEF7FFFFFEFFFFFF7FFFF01FCFFFF30
:10296000FB799F501344D33FB3C8608B288AC63F7E
:102970000000F03F0000F83F61436F63A787D23F3C
:1029800071A379094F930A400000E03F1655B5BB8B
:10299000B16B0240EF39FAFE422EE63F00002C40B8
:1029A0000000244000001840FF0300002D431CEBF2
:1029B000E2361A3F80842E410C9B0022013B0C938F
:1029C0000D98144B0E9901F0BAFA03000D900A000D
:1029D0000E9194E700230D930E930C93269B190000
:1029E0000C9B994213DDCB1A013B26938023289A36
:1029F000DB001A430023289200260C932EE6802346
:102A00001B069C46A4446346AB4608930BE6002392
:102A10002693EBE700002440F0B5DE4657464E46CD
:102A20004546E0B597B08046894692469B46209A37
:102A3000219B1000190001F0EEFA002800D01FE2DF
:102A4000209821990122CC4B524201F0D1FA002862
:102A500000D03EE1209821990122C84B524201F05A
:102A6000D5FA002800D0E7E0209821990022C44B35
:102A700001F0CCFA002800D0C7E02098219900226C
:102A8000C04B01F0B5FA002800D0BEE02098219993
:102A90000022002301F0ACFA002800D0E1E000237E
:102AA00080240D93249BE4001C4000D0E9E0002228
:102AB0000626B54B069207930EAB089320982199F2
:102AC00001F0D4FA07000C9001F0B8FA02000B00F4
:102AD0002098219901F029FA069A079B01F049FAFA
:102AE0000A900B9101F0E6FA0500099001F0A2FAB4
:102AF00002000B000A980B9901F017FA0022A34B71
:102B00000A900B9101F082FA002800D148E12B00D5
:102B100001331800099301F08DFA069A079B01F022
:102B20006DFA002804D03B0001330C930023099375
:102B3000002E00D0D5E00C9D280001F07FFA0200A5
:102B40000B002098219901F0F0F900228F4B06002C
:102B50000F0001F04DFA002808D100228B4B300005
:102B6000390001F053FA002800D17EE1202C00D179
:102B7000FAE00C9F0A21380000F074FF089E303103
:102B8000315538000A21651C00F06CFF002800D187
:102B900080E1202D00D1E7E00A2100F063FF303111
:102BA00071553800642100F05DFF0234051E14D019
:102BB000202C00D1D8E008AA9446172328006344AB
:102BC00001340A211E1900F04DFF30313170280008
:102BD0000A2100F047FF051EEAD10323249A13407F
:102BE000012B00D1ECE0202C00D1C2E00D9B002B8A
:102BF00000D111E12D23089A651C1355249B0195E2
:102C00000393239B0293089B20E0249B524604934A
:102C1000239B49460393229B40460293209B219C81
:102C2000009301945B46FFF7C9FC17B03CBC90468B
:102C30009946A246AB46F0BD249B5B070ED4032207
:102C4000534B249901920391239902910093524688
:102C50005B4649464046FFF76FFBE6E74D4B0422D3
:102C6000EFE7209A219B0020002101F05EF901236B
:102C700080240D93249BE400209021911C4000D1DE
:102C800015E7229B092B00D808E1190030230EAA72
:102C90004E1E08921370092E00D1F9E0537008AA55
:102CA0000C0094468E1E1721093C022361443022F9
:102CB00005E00133CA54013E202B00D1A3E09C4221
:102CC000F7D1354BF2009B181A685B6806920793A0
:102CD000F4E6249B0393239B0293042301932F4B3D
:102CE000B4E7202C40D0099D731E0A2128000693CA
:102CF00000F0E0FE089B3031195528000A2100F051
:102D0000D9FE671C0995092D00D892E0202F2BD001
:102D1000B11E06910A2100F0CDFE089B3031D95535
:102D20000998642100F0C6FE099AA51C0700632AD1
:102D300000D87FE03419013C14E0631B08AA069315
:102D400094461723013563440A2138005E1900F0C8
:102D5000B1FE3031317038000A2100F0ABFE092F8E
:102D600068D90700202DE8D10323249A1340012BB2
:102D700025D0202542E7C046FFFFEFFFFFFFEF7F92
:102D800065CDCD4165CDCDC180842E410000E03FB1
:102D90001C70001020700010387000102C70001093
:102DA00000220A980B99494B01F022F9002800D023
:102DB000BEE62B1E60D1099B01330993B8E620249F
:102DC000239B002B00D10EE70D9B002B03D1249AEF
:102DD0000C33134202D0239B013B2393239BA3423A
:102DE00000D800E708AA9446172330226344202C19
:102DF000BFD0239901341A558C4200D1F3E6202C20
:102E0000F7D12025FAE6324BF2009B185C681B686C
:102E100006930794202451E6249B5B0720D4249B2F
:102E200025001B0700D4E9E62023089A0135135535
:102E3000E4E63D00202D97D008A98C46172306987C
:102E4000634442193021002826D001355955202DE0
:102E500030D0AA42F9D12E230899541C8B5485E610
:102E60002B23089A651C1355C8E60123AC462B405A
:102E70009C4463460C9379E6DB0700D458E69AE756
:102E8000249B0393239B029303230193114BDDE6C1
:102E9000012416E72C00A0E62A00DCE7DA001E0079
:102EA0000B4B9B185C681B68069307940EAB0024C1
:102EB000089303E60323249A1340012B00D09DE6D8
:102EC000239B002B00D199E620247DE70000E03F02
:102ED0003870001028700010F0B54546DE465746A1
:102EE0004E46E0B5A1B01D002A9B90460B93BD4A0B
:102EF000BD4B0A908B461A60002900D10DE20023D9
:102F000028789A46002861D0B84B56469946C24662
:102F100009E0741C320053460A9E5946B047260009
:102F20002878002850D001352528F2D104232878AC
:102F30009846023B9C460300203B691CDBB2002400
:102F40000A00102B0ED84F469B00FB589F460123CA
:102F50000D001C432878691C0300203BDBB20A00EB
:102F6000102BF0D90300303B092B41D900272A2828
:102F70006AD000230C932E2851D00300683BDBB2AB
:102F8000122B5FD89A499B00CB589F4663460D0091
:102F90001C43DFE743460D001C43DBE710230D0015
:102FA0001C43D7E708230D001C43D3E780235B00B5
:102FB00068781C43551C0300253BDBB2532BA8D873
:102FC0008C4A9B00D3589F46D046B2465246D045C5
:102FD00001D843465A1E4346594600200A9CA04742
:102FE000504621B03CBC90469946A246AB46F0BD47
:102FF0000027030001E00D000131B800C0194000B6
:10300000C0180B7830381A00303A0700092AF2D974
:1030100018000023AA1C0C930D002E28ADD180238C
:103020006878DB001C430300303B092B00D877E1B4
:103030002A2800D1ABE10300683BDBB21500013266
:10304000122B9FD91500B6E70B9B80CB002F00DA1F
:103050005BE16878AA1C0B930D008AE768786C28FE
:1030600000D14DE280235B001C43551CA3E7802365
:103070009B0068781C43551C9DE76878682800D140
:1030800039E28023551C1C4395E70B9B04CB9846E3
:103090000C9B0B921078002B00D0A2E1002801D1EC
:1030A00000F071FC02235B425A1C0B9B94461900F2
:1030B0000D92614401E08B4206D001331A78002A58
:1030C000F9D10B9A9B1A0D938023DB0023400E93BA
:1030D00005D00D9B19000C9B994200D90D9302233A
:1030E00023400F9300D140E2002800D126E20E9B3E
:1030F000002B00D1E6E141460C9B0C9129009C1964
:103100000B9B5D469B1B3200B8460B938B460AE037
:10311000534629000A9F561CB8470B9B985D002810
:1031200000D104E232009442F2D10C9B474698460B
:103130005B462600AB461D000F9B002B00D0FDE137
:1031400043460B93ECE60B9B04CB0B93002A00D178
:1031500028E121231C43A44610A988461F240F21DF
:1031600044440023884603E0202B00D124E10A00D8
:1031700041461140CFB238003730092900D807380E
:103180000133E05411090F2AEED815E10B9B0433EB
:103190000C93731C0D939846A30700D406E20B9B77
:1031A00032001878594653460A9CA047BE19012F91
:1031B00000D8A7E22B0042465546B0469A465E46E6
:1031C0000A9F541C2B0031002020B84722004445A0
:1031D000F7D15346B346AA4626001D000C9B0B931D
:1031E0009EE6C046D92E0010D81900203C6E001073
:1031F000806E0010CC6E0010782800D152E2582862
:1032000000D183E16F2800D1F3E0622800D156E3BA
:10321000102322009A438023DB000D92234069286B
:1032200000D0BCE30A220E92002B00D146E201231B
:103230000D9A9A430D9280240D9BA40023409C4636
:10324000692800D1E7E0642800D1E4E06346002B60
:1032500000D094E280230D9A5B001A400B9B9046AD
:1032600004330F93002A00D02CE30D9B5B0600D59E
:1032700044E20D9B1B0600D488E30B9B1B881800BF
:10328000031E00D04DE20D9A1033110099430D91A9
:10329000520500D445E2002398460D9B05970693FE
:1032A0000C9B04930E9B03930023029343460193CC
:1032B00018AB00933200534659460A98FFF78AF834
:1032C0000F9B06000B932BE6462800D18EE00722C9
:1032D0000B9B04940733934319000C9A03970292B3
:1032E0000CC90A98009201930B913200534659463B
:1032F000FFF792FB060013E6741C320053460A9E49
:1033000059462520B04726000AE602226878144371
:103310007F42AA1C0B930D002BE6D34B0A93EEE5DC
:103320000023010000E02A009800C0184000401867
:103330005178030008003038551C303B0928F2D979
:103340000C930800023218E6202302009A43472A11
:1033500004D180231B011C4302239843452801D13B
:1033600020231C4307220B9B04940733934319002B
:103370000C9A039702920CC90A98009201930B9140
:10338000320053465946FFF719F90600C8E50B9B72
:10339000A87802CBCA43D21711400C91EA1C0B93B8
:1033A0000235EAE5102321009943113319438C4675
:1033B0000023610500D4CFE66246069208220592FA
:1033C0000C9A04921022039200220292019318ABED
:1033D00000933200534659460A98FEF7FBFF060059
:1033E0009EE5002800D1CDE2013B5DE620231C4391
:1033F0006DE708230E9322000D948023DB00134019
:10340000642800D0CEE2002B00D010E78024130007
:10341000A40023409C466346002B00D0E5E08023B7
:103420000D9A5B001A400B9B904604330F93002AC1
:1034300000D0C6E10D9B5B0600D547E10D9B1B0646
:1034400000D499E20B9B00229B5ED9175A184A4080
:103450001000DA0F1492002B09D1802310220D994D
:10346000DB000B4091430D91002B00D050E10D9AF1
:103470006123920600D5412310AA1F249446DBB293
:1034800064440A3B159716960B9346460700A846D8
:1034900025000E9C0AE03033DBB20136AB55A74263
:1034A00000D231E1202E00D12EE1070021003800AA
:1034B00000F000FBCBB20929EDD90B9A9446634486
:1034C000DBB2EAE70B9B32009E1B33005E46AB4645
:1034D00055469A460B970A9F2B003100541CB8475B
:1034E0005346185D22000028F6D1AA460B9F5D4680
:1034F000B346260020E6C023A8781C4303355AE5CE
:10350000C0239B00A8781C43033554E50C232200FC
:103510009A4314331A430D92630500D5D3E08023F8
:103520009B001C40F13BFF3BA4460E938EE60C9B98
:10353000474698465B46AB461D00FDE50D9B3200B5
:103540009F4200D8FCE5BE19F61A2B005D469B464B
:103550000A9F541C534629002020B8472200B44239
:10356000F7D15B46AB461D00EAE50D9A531C974226
:1035700000D812E2BB199B1A0D971F0032005E465D
:10358000AB460A9D541C534631002020A847220018
:10359000BC42F7D15D46B34626000D9F7B1C0D93C0
:1035A0000B9B1878002800D0A1E5C9E5012F00D8B1
:1035B000F0E1731E3200A846DF190A9E5D460D9C9D
:1035C00000E00134534629002020B0472200BC42CD
:1035D000F7D12600AB46454601360B9B3A001878DA
:1035E000594653460A9CA047F8E507220B9B073330
:1035F0009343013294469C4462460B921A685B687E
:103600009C46DB17129313931298139903005340AF
:10361000109364460B0063401193109B119C1B1A7E
:103620008C41109311946346DB0F149363461A4345
:1036300050D00D9A6123920600D541230022DBB2BF
:10364000904610AA0A3B1F2494460F935B4664449D
:103650001793230015971696AB46109E119F44466C
:103660000E9D984610E0C046352300103032D2B28D
:10367000434601341A550023BB4200D167E1202C98
:1036800000D167E106000F002A0000233000390056
:1036900000F04EFAD2B2092AE8D90F9B9C46624448
:1036A000D2B2E5E780231022DB0023400E920C22E9
:1036B00094430D94002B00D1BDE5B8E580239B0019
:1036C0001C40A446A7E610230E93B0E50B9B1B7885
:1036D0001A00BDE60D9A1023110099430D91520571
:1036E000A7D5002398460D9B059706930C9B049342
:1036F0000E9B0393149B0293434667E60B9B1B7838
:103700001800BDE50D9E69E54546159FB046169E1D
:103710000D9B059706930C9B04930E9B0393149BA0
:10372000C3E50D9A6123920600D5412310AA1F24F8
:103730009446DBB264440A3B149715960B934646B5
:103740000700A84625000E9C08E03033DBB20136A6
:10375000AB55A7420ED3202E0CD007002100380015
:1037600000F0A8F9CBB20929EFD90B9A944663442B
:10377000DBB2ECE74546149FB046159E8DE5072267
:103780000B9B07339343013294469C4462460B9251
:103790001A6859681300100009910B435CD10D9A07
:1037A0001033110099430D91520555D500239846C9
:1037B0000D9B059706930C9B04930E9B039300238C
:1037C00099E70B9B1B68D9175A184A401000DA0F6B
:1037D0001692002B08D1802310220D99DB000B409C
:1037E00091430D91002B2CD10D9A6123920600D5A7
:1037F000412310AA90461F24DBB244440A3B14978D
:103800001596A8460B932500070066460E9C08E017
:103810003033DBB20136AB55A7420ED3202E0CD08D
:1038200007002100380000F045F9CBB20929EFD993
:103830000B9A94466344DBB2ECE74546B446149FCA
:10384000159E0D9B059706930C9B04930E9B03936B
:10385000169B029363462AE50D9A6123920600D5D2
:1038600041230022DBB2904610AA0A3B1F24944653
:103870000F935B46644414971596AB4646461693E1
:10388000A0460E9D099F04000BE03032D2B24346A1
:1038900001369A550023BB4265D0202E65D0040026
:1038A0000F002A0000232000390000F041F9D2B2B5
:1038B000092AEAD90F9B9C466244D2B2E7E7022369
:1038C0000E9398E50B9B1B68181E08D180231022CD
:1038D0000D99DB000B4091430D91002B2CD10D9ADB
:1038E0006123920600D5412310AA90461F24DBB223
:1038F00044440A3B14971596A8460B9325000700ED
:1039000066460E9C08E03033DBB20136AB55A74269
:103910000ED3202E0CD007002100380000F0CAF88A
:10392000CBB20929EFD90B9A94466344DBB2ECE79A
:103930004546B446149F159E0D9B059706930C9B18
:1039400004930E9B0393002302936346AFE4B542B6
:1039500000D894E6179B109611975D46159F169E0A
:10396000A0469B46BFE6A54297D9169BB0465D464A
:10397000149F159E9B461BE70B9B1B68D9175A1873
:103980004A4065E500230D93FFF79EFB0B9B1B68E8
:10399000180075E437000D9E1FE60D9302E60A231A
:1039A0000E932AE5140082E600B585B0039101214B
:1039B00002900093034813004A4202A9FFF78CFAD1
:1039C00005B000BDAD25001010B5094A84B01468DB
:1039D000002C09D0012200910300524203A905489E
:1039E000A047012004B010BD00F0FEFD0020F9E763
:1039F000D81900209D25001001480421014B1847CB
:103A0000D00E0020293A0010142310B501001888A8
:103A100004331B88984710BD162310B50100188881
:103A200002331B88984710BDF0B5C64600B5002983
:103A300016D014230400012598461827890046183B
:103A40004346216818883B88984701C4431E984123
:103A500040420540A642F3D1280004BC9046F0BD88
:103A60000125F9E7124A936F9B0815D29066D1663B
:103A7000002905D0FFE7FFE7FFE7516F106F7047A0
:103A800004B580210906C2175140002800D0C84360
:103A900003F02EF9002104BDF0B5146E556E576F7A
:103AA000166FFFF7E3FF1466556657671667F0BD9C
:103AB000000000D0114A936F9B0813D21066516624
:103AC000002905D0FFE7FFE7FFE7516F106F704750
:103AD00004B5002801D00020C04303F009F90021FB
:103AE00004BDC046F0B5146E556E576F166FFFF7E4
:103AF000E5FF1466556657671667F0BD000000D0F5
:103B000094464A4A926F9208624601D228E0C04623
:103B1000F0B5464E346E756E776F366F00F020F854
:103B20009446424A14665566576716676246F0BD6A
:103B300094463E4A926F9208624601D254E0C046D3
:103B4000F0B53A4E346E756E776F366F00F04CF804
:103B50009446364A14665566576716676246F0BD46
:103B6000002B24DB11D000293EDA00B5C9434042C6
:103B700000D1013100F038F8C943404200D1013191
:103B8000DB43524200D1013300BD002AEBD10028B3
:103B900001D1002905D00020C90FC90701D1C043B8
:103BA000410800B503F09CF80022002300BD00B5D9
:103BB00000290ADBDB43524200D1013300F014F844
:103BC000C943404200D1013100BDC943404200D148
:103BD0000131DB43524200D1013300F005F8DB43F1
:103BE000524200D1013300BD002923D1002B18D14E
:103BF000002A0CD0BC460D4F38667A66002100239F
:103C0000FFE7FFE7FFE77A6F386F674670470028E6
:103C100001D00748010000B503F062F8002200233C
:103C200000BD02000B00002000217047000000D002
:103C3000FFFFFFFF002B00D0BFE0130C28D1002AAC
:103C4000E7D080B4114F39667A66FFE7FFE730B4FA
:103C5000040C7B6F396F1B0423433B667A66FFE7D6
:103C6000FFE7FFE7C04684B27B6F3D6F1B04234331
:103C70003B667A66FFE7FFE7C04600232C042D0C65
:103C80007A6F386F00196941B0BC7047000000D0EE
:103C9000F0B594460025140E01D112020835140F18
:103CA00001D112010435940F01D192000235D40FD5
:103CB00001D152000135D40B0134254F7C66254CCF
:103CC0003C660E0C93B2FFE7FFE7FFE73C6F6643ED
:103CD000360C7703BE467343DF0B5B04C01AB94151
:103CE000130C7343DB18C91ACE086643360CB6446E
:103CF00093B273431F0F1B01C01AB941130C7343D6
:103D00001F0B1B05C01AB941860D8F023E43664347
:103D1000360C092D24DB520A7243801A7703460AB7
:103D20006643360C16235B1BDE40DF40BF1964463A
:103D30006643821B7046043506330100D940A84013
:103D4000C01900D30131A24206D20023F0BD000009
:103D5000000000D0FFFFFFFF121B0130F3D3F1E79B
:103D600009277F1BFE406446A2B27243801A00D22C
:103D70000139220C7243130C1204821A99410B0070
:103D80007046043513370100F940A840801900D36C
:103D90000131002B02D1A2420AD2F0BD013000D382
:103DA0000131121BFAD2013BF8D1A24200D2F0BD80
:103DB000013000D30131121BF7E7F0B51C0C00D025
:103DC00080E00CB400251C0A04D11B02160E3343FC
:103DD000120208351C0B04D11B01160F33431201CC
:103DE00004359C0B04D19B00960F3343920002359F
:103DF000DC0B02D192185B4101351C00971864411D
:103E00000134464F7C66464C3C660E0CFFE7FFE7EC
:103E1000FFE7C0463C6F6643360C7703BE4697B259
:103E20007743C01B00D20139C01B00D201399FB2B9
:103E30007743C91BC91B170C77437E04FF0B801BFC
:103E4000B941CE086643360C0C2D33DBB644120B59
:103E50001F053A431B0B97B27743C01B00D20139B1
:103E60009FB27743C91B170C77433E043F0C801B5E
:103E7000B941860D8F023E43664329277F1BFE40D2
:103E80000C3D7746AF40BF1930BCA2B2ABB2724313
:103E90007343801A9941220C7243130C1204801A46
:103EA000994102000B000137001BA941F9D2781E8D
:103EB0000021F0BD0C277F1BFE4077467F0BAF40F3
:103EC000FF19E0E700245D1C07D0144F7D663966BA
:103ED000FFE7FFE7FFE7FFE73C6F95B29EB2654360
:103EE0006643401BB141150C1E0C65436643360406
:103EF0002F0C3E432D04401BB141994204D20200D5
:103F00000B0020000021F0BD01D19042F7D3801AB0
:103F1000994101349942F2D3F6E70000000000D045
:103F2000FFFFFFFF48404140484018B4134B5B6817
:103F3000019308BD18B4114B1B68019308BD94464A
:103F40000F4A926F920805D2624618B40B4BDB6899
:103F5000019308BD0A4AF0B5146E556E576F166F7F
:103F60006246FFF7F2FF064A146655665767166702
:103F7000F0BD18B4014B9B68019308BD501A002096
:103F8000000000D0FFB550404240504059404B40E7
:103F9000594000E0FFB5154F4C00640D03D0BC4202
:103FA00004D10C0314D80020090D09055C00640D30
:103FB00003D0BC4204D11C030AD800221B0D1B05F0
:103FC00001264B4009D44B4003D58B4200D182429D
:103FD000FFBD9942FCD19042FFBD0B43DB18034368
:103FE0001343F5D0C9434918FFBD0000FF07000087
:103FF00000B5FFF7CFFF804100BDC04600B5FFF719
:10400000C1FF01D9002000BD012000BD00B5FFF7B0
:10401000B9FF804100BD012040054A00121804D8B4
:104020005A00121801D80020704701207047002064
:10403000704700000021002805D17047C117484093
:10404000401AFAD0C90713B5064B1B6898470CBC39
:10405000441CA2401005120B0349091B0905194312
:10406000114310BD041A00201F04000010B54C00BD
:10407000620D8023D218DB00D21A5B057E2A10DD88
:104080009E3A13DACC170903490819435242D1402A
:10409000640001341532202A05DAD0400843604319
:1040A00010BD002010BD0846604310BDC80FC018E9
:1040B000013810BD18B4024B5B6A019308BD0000C3
:1040C000501A002010B50148FEF716F9887000104C
:1040D000132370B51D78012D11D042DD2748FFF75D
:1040E0009BFC274C01008022200000F0C7F8022D25
:1040F00034D02448FFF788FC234B186070BD204C57
:10410000224AA3085B421D4035D02B0022602020AC
:10411000A9006118451B0A604A608A60CA600A618A
:104120004A618A61CA610A624A628A62CA620A6331
:104130004A638A63CA630A644A648A64CA640A6511
:104140004A658A65CA650A664A668A66CA660A67F1
:104150004A676D08102D08D18A67CA670C4BA364A3
:10416000C7E7074C0A4BA364C3E71E339B00E2502A
:10417000074BA364BDE70023C9E7C04653440000D2
:10418000501A00204C330000041A0020C5400010D3
:104190009541001007B5604601880A0A0230DF2AFF
:1041A000FAD1C9B2820804D30288408800041043BF
:1041B00000E00068014A5050039007BD501A0020EB
:1041C00051434343C9188C46110C83B24B4310B47E
:1041D000040C614392B280B2504362431C041B0C36
:1041E000001910BC59411304120CC018514161440C
:1041F0007047000010B50148FEF77EF824700010EB
:10420000132310B51C781148FFF706FC012C0BD0C6
:1042100004DD010080220E4800F030F80D48FFF761
:10422000F3FB0D4B186010BD094C54220100200017
:1042300000F024F82300094A80332168002900D1C6
:1042400022600434A342F8D1E8E7C0465346000098
:10425000501B00204C330000041A0020F5410010D0
:1042600001480421014B1847E00E0020293A0010B4
:10427000014B1B6818470000E00E0020014B5B68F3
:1042800018470000E00E0020030010B508001B686E
:104290001100984710BDC046F8B54746CE4680B5D8
:1042A000437D80460C001500002B43D0002A34DDEE
:1042B0000A78037D00200A2A33D0012D1ED0204B1E
:1042C0000121671E994602E03100B54216D0635CB9
:1042D0007A5C4E1C0A2BF7D10D2AF5D043461B6899
:1042E000884204DA091A2018984743461B680221BD
:1042F0004846984730003100B542E8D1854204DD98
:104300004346291A1B68201898476419013C2378F2
:104310000D3B5A425341424613750CBC9046994698
:10432000F8BD002BC9D14346054802211B689847B8
:104330000120C2E70368110020009847EDE7C0465E
:1043400004710010F8B54E46DE4657464546344BDC
:10435000E0B51C688146002C4ED0324B9A46324B59
:104360009B4602E02469002C46D02368002BF9D03C
:1043700052461268002A01D0A242F3D14F46627D14
:1043800040CF002A48D0002EECDD49460979227D35
:1043900000200A2939D0012E1ED04B4601215D1C78
:1043A00003E001354146464516D04B1C98462B7913
:1043B000EA780A2BF5D10D2AF3D02368814203DD78
:1043C000091A38189847236802215846984701353A
:1043D000404641464645E8D1864203DD311A23680E
:1043E00038189847BF19013F3B780D3B5A4253415B
:1043F00023752469002CB8D14A46002313603CBCC5
:1044000090469946A246AB46F8BD002AC3D106485D
:10441000083998470120BEE7310038009847A1E7E6
:10442000CC150020D4150020047100100B6870B565
:1044300005000C00802B04D05A1C2260E418257162
:1044400070BD0800FFF77EFF2368F5E7F0B5DE4694
:1044500057464E464546E0B585B017001C0006009D
:104460000D00FCF78FFF0023324A12184B41002B3E
:104470005BDB31490800884602F05AFC01906B1C56
:1044800003D1300002F0E4FB0500002C28D12B4BB7
:104490009A462B4B1C68002C15D0002F23D1294F96
:1044A00002E02469002C0ED02368002BF9D03B6871
:1044B000002B01D0A342F4D120002A003100D047C4
:1044C0002469002CF0D1019B002B2AD1681E854164
:1044D000E8B205B03CBC90469946A246AB46F0BD5A
:1044E000194B9A46D5E7174B9B4602ABDF1D0A23B3
:1044F000994602E02469002CE5D02368002BF9D00E
:104500005B461B68002B01D0A342F3D12A00310087
:104510002000D0474B460122390020003B70D04795
:10452000E8E7404602F0D4FBD0E70122074B5242B5
:104530009FE7C04640420F00500F002099420010F4
:10454000CC150020D415002089420010FFFFFF7F0A
:10455000F0B5CE46474680B583B06B46DE1D0500FC
:104560003070FCF70FFF00231A4A12184B41002B42
:104570002CDB194F380002F0DBFB184B80461C681F
:10458000002C16D0164B994602E02469002C10D05E
:104590002368002BF9D04B461B68002B01D0A342A7
:1045A000F3D1200001223100FFF776FE2469002CB0
:1045B000EED14346002B05D1280003B00CBC904639
:1045C0009946F0BD380002F083FBF5E70122054B68
:1045D0005242CEE740420F00500F0020CC15002081
:1045E000D4150020FFFFFF7F70B5040002F030FB00
:1045F00000230100050001222000FFF727FF084BE0
:104600001C68002C06D06368002B05D098472469ED
:10461000002CF8D1280070BD2469002CF3D1F9E7F3
:10462000CC1500200A4A1368002B05D10CE01A00B3
:104630001B691032002B07D09842F8D1002902D113
:1046400003691360016170470029FCD01060FAE72C
:10465000CC150020F0B5A3B004000D00FCF792FECD
:1046600000231B4A12184B41002B2CDB194E300043
:1046700002F05EFB00230700019322002B0001A93A
:104680001548FFF791F9019B0500002B02D001A806
:10469000FFF758FE114B1C68002C06D06368002BF6
:1046A00008D098472469002CF8D1002F07D12800A2
:1046B00023B0F0BD2469002CF0D1002FF7D03000DA
:1046C00002F006FBF3E70122054B5242CEE7C0465B
:1046D00040420F00500F00202D440010CC15002048
:1046E000FFFFFF7F0FB400B583B004A901C901919A
:1046F000FFF7B0FF03B008BC04B0184710B500F0D6
:10470000BFF800F0C1FA012010BDC046F0B5002985
:1047100015DD0E4B0D271A680D4B4118D3185C425E
:1047200063410C4C5B001E5F20240578AE4207D02D
:1047300093691C42FCD1013015608842F5D1F0BD6F
:1047400093691C42FCD11760F2E7C046241A00208E
:104750000080FCBF4C1A002030B5002923DD1B4B24
:104760001A689369DB061ED4002510240138013530
:1047700093691C42FCD113684355A94202D0936946
:104780001C42F4D0124B1B68002B0AD050239363B9
:10479000516B183B34320B401100802252010A4306
:1047A0001360280030BD0A4B1B68002B0BD0502231
:1047B0003821064B1B689A635A6B343311408022B0
:1047C00052011343196003256D42EAE7241A0020C1
:1047D00028150020064B10B51B68002B06D00021C1
:1047E000044A12689163044A1068984710BDC04695
:1047F00028150020241A002030150020F0B51B4F8A
:104800001B4A3B680500981842425041C646194E63
:10481000143000B5884604003268002D08D0002A04
:1048200011D04246144B35601A6004BC9046F0BD6E
:10483000002AF6D09D630021FBF702FF0F492000FC
:10484000FCF744F8EDE70D49FBF732FF01212000AA
:10485000FBF7F6FE502238213B689A635A6B3433DB
:1048600011408022520113431960DAE7241A002014
:104870000080FCBF2815002030150020D54700100F
:104880000C4B10B51B780C4B0C4C1B780C4B0221BD
:1048900000202360FBF71AFE02210120FBF716FE21
:1048A000E12120684902FDF7BBF901210548FFF726
:1048B000B9FE10BD4C73001050730010241A002074
:1048C00000400340F00E00207047C0460022014B1C
:1048D0001A7070473E1A00204B790020FF2B0BD135
:1048E0008B79002B08D1CB79012B05D1082A03D96C
:1048F0008A78024B09301A707047C0463E1A002071
:104900000120704770B5012909D1154953791079F3
:1049100009781B0203430020994202D070BD012098
:10492000FCE75378012B08D0022BF7D1002064223A
:104930000021FDF701FC0120F0E7D47891782402F2
:104940000C430500E20502D5620A93401D000548AC
:10495000FFF75AF87F210300214028009847C046FE
:104960003E1A0020554200000123037000487047A2
:10497000487100104A780B7812021A438B7810B5F0
:104980001B041A43CB781B0613439622D200934292
:1049900000D010BD0348FFF737F8002103000800DE
:1049A0009847C04655420000024B1860024B196000
:1049B0007047C0462C15002034150020114B70B5EF
:1049C0001A68002A1AD0EFF3108172B61068002816
:1049D000FCD0BFF35F8F00220B48596002701B6848
:1049E000BFF35F8F1A6081F3108800240025074B06
:1049F0001878FBF737FE2900200070BDFA24002547
:104A0000A400F4E7E4190020401A00203F1A002017
:104A100010B5024B1878FBF725FE10BD3F1A002099
:104A200070B5050000200E0001F03EFB002835D0D7
:104A3000002001F051FB002830D0FCF7A3FC00233C
:104A4000184A12184B41002B24DB174C200002F0AF
:104A50006FF9002822D0002001F026FB00280BD19E
:104A6000012000214042032500F0DEFC6D422000C1
:104A700002F02EF9280070BD002001F02DFB002867
:104A8000EED029003200002001F032FB051EEED1ED
:104A9000033DECE70122054B5242D6E703256D4268
:104AA000E8E7C04640420F000C1A0020FFFFFF7FDE
:104AB000F0B5D6464F464646C0B507000E00FCF797
:104AC00061FC0023394A12184B41002B5EDB384948
:104AD0000800884602F02CF9002804D11CBC90463E
:104AE0009946A246F0BD002001F0DEFA002851D020
:104AF0000024002E35DD2F4B99469A4615E00028FC
:104B000051D101200021404200F08EFC002001F034
:104B100027FB002001F0C8FA002822D0002001F075
:104B200075FB002821D0A6421BDD0020351B01F0BB
:104B30006DFB8542E3DC2A003919002001F04CFBB3
:104B4000050001200021404200F06EFC002001F031
:104B500007FBFCF717FC4B46641918605960A64226
:104B6000E3DC404602F0B4F8B8E7FCF70BFC0023A6
:104B70000D005146104A84460868496812184B4196
:104B80009D42EED8CFD19445CDD9EAE701220B4B17
:104B900052429CE700200021064B186059604046B5
:104BA00002F096F89AE70500C5E7C04640420F00BC
:104BB0000C1A00207010002020A10700FFFFFF7FCB
:104BC00010B5244C84B00021200002F099F8002890
:104BD0001CD1214B1A68002A16D0EFF3108172B64F
:104BE00010680028FCD0BFF35F8F01241B48596078
:104BF00002781B68D2B20470BFF35F8F0020186088
:104C000081F31088002A0AD004B010BD01200021D1
:104C1000404200F009FC200002F05AF8F4E7FCF7EB
:104C2000BFF90400FCF7AEFBFA2200239200121831
:104C30004B41002B09DB0121029100210191084920
:104C400020000091FCF7B0F9DEE70122054B52424B
:104C5000F1E7C0460C1A0020E4190020401A002099
:104C6000BD490010FFFFFF7F054B10B518680028F5
:104C700004D0044B0022196801F07AF810BDC04638
:104C80002C15002034150020D02310B51B0684B04D
:104C90001C68FCF785F9FCF729FAA04202D0002035
:104CA00004B010BD264B1B7801F0C0FC2548FBF773
:104CB0006DFF0120FBF74EFFFF23234C234920709B
:104CC0001840FBF7F5FC20780121FBF7B9FC052023
:104CD000FBF7D0FC002822D1FCF762F90400FCF7B6
:104CE00051FBFA220023920012184B41002B22DBC9
:104CF0000121029100210191154920000091FCF74A
:104D000053F90822040000211248FFF7B1FA002CE1
:104D1000C5DB11480121FFF785FC0120C0E7002217
:104D20000E490520FBF7EEFCFBF76EFC010009487D
:104D3000FBF758FFEDE70122094B5242D8E7C04686
:104D4000547300100C1A00203F1A0020C14B0010B1
:104D5000BD490010E4190020080F0020114A00107E
:104D6000FFFFFF7F00487047007200100048704747
:104D7000AC71001070B5040016480378002B20D0E9
:104D8000002C18D0052C23D8134B1448A400E55848
:104D9000811C002304E001330A800231132B14D05C
:104DA000EA5CDCB2002AF6D1C023013464009B0027
:104DB0001C43048070BDC1240848094BA4004380F3
:104DC000F7E7112100F016F8DAE7CA24A400F0E7AB
:104DD0000020EFE7281A002014720010A41500200C
:104DE0000904000010B5024800F0EAF810BDC04602
:104DF000FC190020013930B5002900D1B8E06F4B13
:104E00001A781211D5B22C003034092A00DDB2E034
:104E10000470012900D1CEE00F221C78224014003A
:104E20003034092A00D9A8E04470022900D1C2E038
:104E30005A781211D5B22C003034092A00DD9FE0D7
:104E40008470032900D1B6E00F225C782240140060
:104E50003034092A00D995E0C470042900D1AAE0B1
:104E60009A781211D5B22C003034092A00DD8CE07A
:104E70000471052900D19EE00F229C782240140085
:104E80003034092A00D982E04471062900D192E029
:104E9000DA781211D5B22C003034092A00DD79E01D
:104EA0008471072900D186E00F22DC7822401400AB
:104EB0003034092A00D96FE0C471082900D17AE0A2
:104EC0001A791211D5B22C003034092A67DC047229
:104ED000092900D16FE00F221C79224014003034E0
:104EE000092A5ED844720A2965D05A791211D5B2BE
:104EF0002C003034092A57DC84720B295BD00F2236
:104F00005C79224014003034092A4FD8C4720C292D
:104F100051D09A791211D5B22C003034092A00DD13
:104F2000073404730D2946D00F229C7922401400C7
:104F30003034092A01D93732140044730E293AD08B
:104F4000DA791211D5B22C003034092A00DD073489
:104F500084730F292FD0DA790F2313401A003732C8
:104F6000092B01D830331A00C273102923D0103016
:104F70000023037030BD07344AE73732140053E78B
:104F800007345DE73732140066E7073470E73732DD
:104F9000140079E7073483E7373214008CE70734CD
:104FA00095E7373214009DE70734A5E73732140040
:104FB000C4720C29ADD14018DAE7C046FC190020B4
:104FC00010B588B004000D2200216846FFF750F9A3
:104FD0000D22002104A8FFF74BF94B236A4604A9D0
:104FE000137068460D2201F06BFE152108226944FA
:104FF0002000FFF743F908B010BDC04610B50121ED
:105000000520FBF71DFB10BD10B500220021024852
:1050100000F054F910BDC046F81500208022024B64
:105020005202DA647047C04600201150F0B5C646FF
:1050300000B5804600F01CF90C23194DFF22AB6728
:1050400018490520FBF75EFB174C40220021200089
:10505000FFF70EF94027002301262121134A66702D
:105060002783A260136063545F31618445396354C0
:105070000F4A10496360E2602787A1620B60636298
:10508000E26201F045FE80239B052E64EB649023D1
:10509000094A4046EA50FFF7C1FF04BC9046F0BD04
:1050A000000011500D050020D8150020840010507C
:1050B000000110508000105010D001000B785B06EA
:1050C00002D14B78052B00D070478A78014B1A60CB
:1050D000FAE7C04600001150F0B5C64600B54B795E
:1050E0000A791B0288781343CA787F21920701400E
:1050F000920FC4094E009446D7B2334D3219520173
:10510000AA1890700120604050700020D070804636
:1051100060465B055B0D1383D076CA00012C33D04B
:105120002A488446880162448446AC4460468260D2
:1051300040461060002933D0254AC9009046624697
:10514000414451603F223F339343022F00D15B0023
:105150002048321901685201AA18D1601E4ACB18A2
:10516000036051405340802288465201934228D820
:105170004346BF061F438023361976011B06AD192F
:105180001F436B681F6011E0144884468801624425
:105190008446AC446046826240461060002909D1D2
:1051A000002364012D196B600D4BEB60012004BCE2
:1051B0009046F0BD084AC90090466246414451629B
:1051C000C0E7FDF7B1F8D3E7D815002084001050F0
:1051D00004001050E0190020000010508000105012
:1051E0000001105010B501F093FD10BD7F2020B5D7
:1051F000150008404000C909401804494001401802
:105200001A00290000F05AF8012020BDD81500200E
:105210007F2310B50B40C909002B03D10222074898
:10522000521A8266802258004018054B4001C0186F
:105230001201002101F09CFD10BDC046002011505C
:10524000D81500207F2310B50B4000D110BDC9092F
:1052500058004018044B4001181800230022C37066
:10526000024901F085FDF1E7D8150020FFF7FFFFA7
:1052700080220D4B520410B51A600C4B0C491A6079
:1052800010008B689843FBD10A4C9C22002120001F
:10529000FEF7EEFF8022002152010748FEF7E8FFEB
:1052A0000923636710BDC04600E0004000F00040E5
:1052B00000C00040000011500000105070B5837E07
:1052C00004000D001600002B19D100232100E382F9
:1052D0000133A682A3762561A01C1B3101F038FDA5
:1052E000002804D080219023084A8902D150200050
:1052F00001F046FD002805D00123237770BD01F0A1
:105300002FFDE2E7200001F01BFDF7E70020115020
:10531000024B5878431E9841C0B27047BC1300201E
:10532000024B18784007C00F7047C046BC130020DE
:10533000034B1878FF38431E9841C0B27047C046EF
:10534000440F0020F8B54746CE4680B52C4D0700E7
:105350002B780120FF2B03D00CBC90469946F8BD5A
:10536000532200212748FEF783FF274C2000FBF73C
:105370000DFC264B1C60264C20001430FBF722FC51
:10538000200001F021FC234B234E1C60234B984648
:10539000002B04D03000FFF7E7FA214B186042469B
:1053A00033780024002A23D01E4A90461C4A914696
:1053B000A34212D80FD14346984701343378E4B260
:1053C000A342F5D238002F70FFF730FE3800FFF708
:1053D00015FE0120C0E70020BEE74A4612686300C0
:1053E00094461B19DB006344002BF4D01B68E3E7F1
:1053F00000F018FF33780020002BADD1E2E7C04663
:10540000440F0020BC13002074130020101400204F
:10541000280F002014140020391A002069490010B8
:105420009410002025620010F0B5DE4657464E4627
:105430004546E0B58DB001F0FFF8002800D15BE1F2
:10544000C94BCA4E9A46CA4D09AC37687A69EFF320
:10545000108172B61368002BFCD0BFF35F8FB96167
:105460003800210001F0F0F97A69BB69BFF35F8F62
:105470000021116083F31088002800D13CE163789B
:10548000082BE2D852469B00D3589F466368002BF6
:10549000DBD0A0689847D8E77F222179B44F0A4033
:1054A00050003F18B846CB09984440460127303099
:1054B000C378BB43C370C3780337BB43C370002AB0
:1054C00000D16BE14346AB4ADB7C002A06D0AA4AF6
:1054D0001278934200D280E19B1ADBB2002B00D0FD
:1054E0000AE1A64F62792078A368B847ADE70122A8
:1054F0002B78012113432B7033230420EA5C8A4369
:10550000EA54EA5C8243EA540133EA5C8A43EA548F
:10551000EA5C8243EA54237800209B4600F032FD87
:10552000602223791A40602A00D10BE1402A00D181
:105530003AE1DB06DB0ED9B2012900D158E15BB2BA
:10554000002B00D13EE1022900D0FBE07023217A3C
:105550000B4200D0F6E0C80984460F330B405B00D5
:10556000E818844F6044C07C002F06D0824F3F78FB
:10557000B84200D291E1C01BC0B2002800D087E140
:10558000002A00D07AE17E4F62799046012A05D048
:10559000002A00D13FE2032A00D0D3E0E288002AAB
:1055A0000FD1784AEB18107842466344012A00D1A3
:1055B0003AE23022904698444346DB789B0700D479
:1055C00048E2002F00D140E7F86800F0DBFCFB6800
:1055D0000AAA012158469847002000F0D3FC342342
:1055E000EB5CDB0700D530E70AA9584600F04EFC1B
:1055F0002BE75F4F3B78DB0700D426E7624B002B9D
:1056000000D122E700E000BF1FE7594F3B78DB07DE
:1056100000D41AE75D4B002B00D116E7387800075D
:10562000C00F00E000BF10E72378524A9846524B63
:10563000002799461B78002A00D18CE0544A9346F3
:105640009F4260D319D1534B404698474B46013790
:105650001B78FFB2BB42F3D2454F532200213800E2
:10566000FEF706FE1022FF21F81CFEF701FE3800AF
:1056700020221330FF21FEF7FBFD00F079FC464BA2
:10568000002B00D1E1E600E000BFDEE62378394AD6
:105690009846394B002799461B78002A1FD03C4A70
:1056A00093469F423AD321D13A4B404698474B46C6
:1056B00001371B78FFB2BB42F3D22D4F532200219A
:1056C0003800FEF7D5FDF81C1022FF21FEF7D0FDB3
:1056D00038002022FF211330FEF7CAFD07E04046C4
:1056E00000F0DEFD4B461B78002BE6D0204F00F08B
:1056F0003FFC2379BB70A8E60DB03CBC90469946B0
:10570000A246AB46F0BD5A4612687B009446DB19B0
:10571000DB006344002BB0D05B6895E75A46126803
:105720007B009446DB19DB006344002BDED05B6812
:10573000BBE7174A5F00FB181768DB00FF18002F54
:1057400000D0B6E020780021FFF762FD20788021AC
:10575000FFF75EFD79E6404600F0A2FD4B461B7860
:10576000002B00D089E777E78C720010141400201A
:10577000BC13002069490010391A00209164001000
:1057800018730010440F002000000000000000000B
:1057900094100020A16200100000000062792078BF
:1057A000A36800F003FC50E6B1480028CAD000F01E
:1057B000E9FB0AAA0121584600E000BF002800D0FA
:1057C00043E6BFE7202A46D0002ABBD16379092BE4
:1057D000B8D8A84A9B00D3589F465A00D318A64A67
:1057E000DB001268D318002B00D185E71F6979E62A
:1057F000237A0F2BA6D8A14AEB18DB78002A05D014
:105800009F4A1278934256D39B1ADBB2002B99D150
:105810009C489D4F00F0B6FBFB680AAA0121584640
:105820009847002800D010E6602723791F4089D1CF
:1058300063790A3B012B85D800F0A4FB63790A2B1E
:1058400000D0D1E608AB9A1C0AA90123584617706C
:1058500000F034FBF9E5237A0F2B00D972E7874A71
:10586000EB18DB78002A06D0854A1278934200D2E2
:105870005FE79B1ADBB2002B00D063E78148824FC1
:1058800000F080FBFB680AAA01215846984795E77B
:105890000027002A00D177E654E747003818764FF2
:1058A000C0003F683F18002A00D16DE6002F00D1EC
:1058B00048E7F868E4E7704A5F00FB181768DB0008
:1058C000FF18002F00D13DE7F868A3E76B7808AA1E
:1058D000023213700AA90123584600F0EFFAB4E52A
:1058E000E088030AC0B20F2B00D92BE767499A0062
:1058F0008A5897460AA800F04BFBA1795846FFF753
:1059000083FB02222B7813432B709EE5E388012B47
:1059100000D017E708222B780AA9134358462B70AA
:1059200000F0B4FA91E5E388012B00D00AE70822E1
:105930002B780AA9934358462B7000F0A7FA84E508
:105940000220297808AB9A1C8B068908DB0F0140DE
:105950000B4313800AA90223584600F0AFFA74E5FE
:10596000A37902931A006B789A4207D06B78002BC8
:1059700000D0F6E0029B002B00D08FE0029B0AA92A
:1059800058466B7000F082FA5FE5414B002B00D166
:10599000D8E600E000BF021E00D1D3E6C3788178CC
:1059A0001B020B4358460AA900F088FA06E7394B58
:1059B000002B00D1C6E600E000BF021E00D1C1E608
:1059C00013780AA9584600F079FAF7E62189FFF71B
:1059D000D1F9021EF4D1B5E6022B00D1FFE02E4B27
:1059E000002B00D1AEE600E000BF002800D1A9E600
:1059F000C37882781B0213430AA90200584600F0BC
:105A00005DFADBE6FFF7AEF9122302000AA9584659
:105A100000F054FAD2E6EB1863443033DB7808AA7E
:105A20009B07DB0F023294E72F32914699444B4695
:105A3000DB789B0700D4C4E5FFF704FC4B46022249
:105A4000DB7893434A46D370D378424693434A4621
:105A5000D370B6E5FFF7DCFB43460222DB78134345
:105A60004246D370D378012213434246D370A8E54F
:105A700000000000B072001094100020694900106E
:105A8000391A0020B563001018730010D872001086
:105A9000000000000000000000000000581EC0B21E
:105AA000FFF764F9002800D14CE643780693022BF7
:105AB00000D047E60122C1794B1113401B019946E2
:105AC0002B7889119846102347469F433B004F4649
:105AD0003B43202711404901BB430B432B70092353
