:020000041000EA
:1000000000B5324B212058609868022188439860DF
:10001000D860186158612E4B002199600221596106
:100020000121F02299502B49196001219960352056
:1000300000F044F80222904214D00621196600F024
:1000400034F8196E01211966002018661A6600F04E
:100050002CF8196E196E196E052000F02FF8012189
:100060000842F9D1002199601B49196000215960AB
:100070001A491B48016001219960EB211966A021F2
:10008000196600F012F800219960164914480160C1
:100090000121996001BC002800D000471248134993
:1000A000086003C880F30888084703B5996A0420EC
:1000B0000142FBD001200142F8D103BD02B5186610
:1000C0001866FFF7F2FF186E186E02BD00000240BE
:1000D000000000180000070000035F00212200005C
:1000E000F4000018222000A00001001008ED00E03C
:1000F00000000000000000000000000074B24E7A12
:1001000000200420F7010010C3010010C5010010F9
:10011000C1010010C1010010C1010010C101001097
:10012000C1010010C1010010C1010010C701001081
:10013000C1010010C1010010C9010010CB01001065
:10014000CD010010CD010010CD010010CD01001037
:10015000CD010010CD010010CD010010CD01001027
:10016000CD010010CD010010CD010010CD01001017
:10017000CD010010CD010010CD010010CD01001007
:10018000CD010010CD010010CD010010CD010010F7
:10019000CD010010CD010010CD010010CD010010E7
:1001A000CD010010CD010010CD010010CD010010D7
:1001B000CD010010CD010010CD010010CD010010C7
:1001C00000BE00BE00BE00BE00BE00BEEFF3058054
:1001D000103800BEF2EB887128FE051050FE0510A5
:1001E0003402001090A31AE700201F49086006C8D7
:1001F00081F3088810471D48006800282FD10DA4FE
:100200000ECC002902D000F012F8F9E71849194A7B
:10021000002000E001C19142FCD1174988471749ED
:1002200088471749884700BEFDE701C901C29A42C5
:10023000FBD3704750FE0510C0000020F01C0020CA
:10024000801A06100000042000000420801A061006
:10025000001004200010042000000000704709482E
:1002600004F082F90047000008ED00E0000000D033
:10027000F01C0020F87F0020192D001055040010FC
:10028000452E00105756000006005250ABB3605385
:100290009CFF011006005250861C0302ACFF0110A7
:1002A000060052505422A29DB8FF01100500525082
:1002B000DE65F468801A0610F8B5C0460448054BA0
:1002C00010B5834203D0044B002B00D0984710BDDB
:1002D000F01C0020F01C0020000000000648074928
:1002E000091A8910CB0F591810B5491003D0044BC7
:1002F000002B00D0984710BDF01C0020F01C0020FF
:100300000000000010B5074C2378002B09D1FFF73F
:10031000D5FF054B002B02D0044800E000BF0123AD
:10032000237010BD601E00200000000000F90110C5
:10033000054B10B5002B03D00449054800E000BF71
:10034000FFF7CCFF10BDC04600000000641E002077
:1003500000F9011010B50421022000F007FB012272
:100360000A4B0B491A600B4B5962C821C9009961AD
:10037000094B1968094B4B401B0409491B0C0B60C6
:10038000084B1B689A43084B1A6010BD0474002088
:10039000A861000000000540200005405307000050
:1003A00020100540140005401410054010B504212C
:1003B000002000F0DBFA00220A4B1A600A4A0B4BBD
:1003C0001361402353600A4B19680A4B4B401B04CE
:1003D00009491B0C0B60012312689343074A136001
:1003E00010BDC0460874002000000540127A0000CD
:1003F0000C0005406A1800000C1005400010054074
:1004000010B50421062000F0B1FA0322094B1A604E
:10041000094B0A4ADA640A4B1A680A4B53401B0418
:10042000094A1B0C1360094B1A6801239343084ABD
:10043000136010BD00740020000005406A18000021
:10044000480005405A0A0000481005403C0005409D
:100450003C100540F0B585B004F04EFFFFF7A6FF55
:10046000FFF7CEFFFFF776FFFA20800001F00AFBCE
:10047000374804F0B7FE37481EF08EFBFA208000A4
:1004800001F000FB344F354E01ADFA20400001F081
:10049000F9FA280000F0FCF90420285604F07EFB4D
:1004A00000222F4B04F0F1FAFE2300229B0504F0FA
:1004B00010FB00222B4B04F00CFB00222A4B04F013
:1004C00008FB0022294B04F0EAFA04F0A3FB84B2F3
:1004D000200004F063FB0022244B04F0FAFA00220F
:1004E000204B04F0DCFA02000B003800210004F07D
:1004F000F7FE0320285604F051FB0022184B04F0AD
:10050000C4FA1B4A1B4B04F0E4FAFE2300229B05AD
:1005100004F0DFFA184A194B04F0BCFA0022184B19
:1005200004F0D7FA04F076FB84B2200004F036FB26
:1005300000220E4B04F0CDFA0022114B04F0AFFA6A
:1005400002000B003000210004F0CAFE9DE7C04607
:1005500030F90110B908001018F9011000F9011064
:10056000000060408084DE4000005440000059409C
:10057000111111111111813F333333333333B33F31
:10058000006AD8400C4B10B51B88002B10D10122FB
:100590000A4B197851400020197007F065F9084C92
:1005A000FA21200010F0D4FD200010F0DDFD10BD78
:1005B0000121024BEFE7C046BE730020F373002019
:1005C00018290020F0B5C64600B5140082B00428F2
:1005D00009D113781B2B1ED009D8052B4CD0162B14
:1005E0003DD0032B12D002B004BC9046F0BD602B6E
:1005F0001ED0EF2B14D0332BF5D10821100010F0B2
:100600000DFE0100864804F06BFEECE7917885480A
:1006100004F066FEE7E71179834804F061FEE2E743
:1006200091780D2900D9D2E0804A8B00D3589F469B
:100630009378022BD7D17E4C200010F0B5FE01003C
:100640007C4804F04DFE7C4A012120000DF0AEF9FB
:100650000028C8D00100794804F042FEC3E778487A
:1006600004F0C0FDA01C6946062210F013FE754977
:10067000684618F081FBB6E75279A178724804F019
:100680002FFEB0E76179002900D0A4E001226A4C76
:100690006E4B20881A700DF027F901006C4804F0A9
:1006A0001FFE2088052203210DF0ECFF9BE7674B1E
:1006B0001B78002B00D192E00521200010F0A8FD4E
:1006C000242800D88FE7E379A12B00D08BE7237A89
:1006D000112B00D087E7C021637CE27B89001B02DD
:1006E0000B40110909030B43217C677B1943E37A13
:1006F000A67B9846237BA57C9C46564BE07C1980C4
:10070000414699706146D9700F2100240A401C812E
:100710001F715E719D71D8711A7264E76179002949
:1007200072D1A179002977D0012971D04A4804F00B
:10073000D7FD58E706212000657910F069FD2900F2
:100740000200464804F0CCFD4DE7454810F02CFE71
:100750000100444804F0C4FD0022374B42491A808E
:100760003A4B3C481A700A2204F086FB3BE7657955
:10077000A01D0622694610F08DFD002D3BD1334BA4
:10078000032120001D7010F043FD2B4B188068469C
:1007900010F00AFE0100354804F0A2FD6946304819
:1007A00010F030FD1FE706226946601D10F072FD53
:1007B000684610F0F9FD01002D4804F091FD032179
:1007C000200010F025FD01210DF0CCF80BE72948A1
:1007D00004F086FD07E7284804F082FD03E7274878
:1007E00004F000FD0521200010F012FD0100E01DC5
:1007F00010F090FDF7E6684610F0D6FD2A000100E3
:100800001F4804F06DFDA7E71E4804F069FDEAE605
:100810001D4804F0E7FCE6E61C4804F0E3FCE2E6D1
:1008200080FA0110F0F901103CFA011038F90110BA
:10083000D46A0020A4F90110BE730020C4F901108D
:1008400054FA011078FA01100CFA0110EB73002031
:10085000FCFA01100C740020D0FB011010FC0110F8
:10086000C42B0020F4FB011098F90110E8FA0110E4
:10087000A4FA01103CFC011020FB011050FB0110F8
:10088000C4FA011074FB0110B4FB011098FB0110B5
:1008900070B5050006F0F2FF040003685B68984736
:1008A0000A220449280004F0E7FA236820009B6824
:1008B000984770BD0C74002070B506F0E5FF041E6B
:1008C00037D1022012F0D0FE1C4D1D4BFA2128001A
:1008D000AB6010F03DFC280010F046FC19F042FC23
:1008E0000EF0EAFA8021174889000DF015F8164D30
:1008F00028000DF031F8052017F02EFE002018F02A
:1009000063FA1248456012F0D3FD1149114810F006
:10091000F5FD0022104B11491C80114B11481A7033
:100920000A2204F0A9FA012017F026FE10F034FC88
:1009300070BD0D4804F056FCFAE7C04618290020A7
:1009400085050010485B0020C5050010B049002057
:10095000D46A002084F90110BE73002098F90110B8
:10096000EB7300200C74002070F90110094A830019
:1009700094464022634410B51C68C0006240C02405
:1009800014408022520113431C60034B9C46604478
:10099000416010BD04C00140004001400A4B80008E
:1009A0009C4604236044002901D00C230821002A1E
:1009B00000D10B00026853400C221A4080235B01D7
:1009C000184302607047C04604C00140084B8000D5
:1009D0009C466044002905D080239B0118430223D4
:1009E00003607047C0239B01184302230360F8E7AC
:1009F00004C00140D0231B061B6830B55D1EAB410F
:100A00000E4C5D423023A44607242B40C508044009
:100A10002800A400A1403C30094C63448000AD0094
:100A200001515B19002A04D08022920113431960FE
:100A300030BDC022920113431960F9E70041014023
:100A400000400140D023F0B5C6461B0698461B68FF
:100A50000C4D9B001700EA5800B504000E00104230
:100A600009D1144331003A000D20EC5000F07CF91C
:100A700004BC9046F0BD02F001FA43461B689B009F
:100A8000EA58EEE7CC6A002010B504000D2000F013
:100A90004FFAD0231B061B6802499B005A58A243F9
:100AA0005A5010BDCC6A00200123D0228340120688
:100AB00093629361094A8300944640226344196813
:100AC000C0004A40C02111408022520113431960E6
:100AD000034B9C46052360444360704704C00140BB
:100AE00000400140024B18688007C00F7047C046A5
:100AF00000C00640EFF3108072B6034A1368002B63
:100B0000FCD0BFF35F8F70472C0100D0BFF35F8F25
:100B10000022024B1A6080F3108870472C0100D02D
:100B2000F8B5EFF3108772B60D4E3368002BFCD08A
:100B3000BFF35F8F0725CB08C01801230D40AB40E2
:100B40001D000478254007D123430370BFF35F8F56
:100B5000356087F31088F8BD100002F077F9C046C1
:100B60002C0100D0F8B5CE4647468C4680B5EFF351
:100B7000108872B6214D2C68002CFCD0BFF35F8F1B
:100B80009A422CD80721012511408D40D408041920
:100B9000267835421FD007218946063909E04D469F
:100BA0000F001540AF40D408041926783D003742A5
:100BB00011D001329342F2D201204042BFF35F8F45
:100BC00000220E4B1A6088F3108800280FDB0CBC43
:100BD00090469946F8BD354325701000EEE7BFF307
:100BE0005F8F00232B6088F310880120404263460A
:100BF000002BECD0089802F029F9C0462C0100D057
:100C000030B5EFF3108572B60A4C2368002BFCD088
:100C1000BFF35F8FCB08C018072301220B409A4017
:100C2000037893430370BFF35F8F0023236085F342
:100C3000108830BD2C0100D00021044B044ABFF3C2
:100C40005F8F02C39342FAD17047C046000100D0C3
:100C5000800100D0044A1078431CDBB2172B00D966
:100C6000102313707047C0464813002000B5054B91
:100C700083B00100009318221F230348FFF772FF7F
:100C800003B000BD58FC0110982B002001238340C5
:100C9000002904D0034A1360034A13607047034AD3
:100CA0001360FBE780E200E000E100E080E100E0AB
:100CB00001228240034B1B681340581E8341D8B267
:100CC0007047C04600E100E001238340014A136001
:100CD0007047C04600E200E0084B10309B6880007F
:100CE000C358002B07D0064A00209B1A2F229A4295
:100CF0004041C0B270470020FCE7C04600ED00E074
:100D00004C130020024B10309B688000C058704785
:100D100000ED00E070B50D00EFF3108672B60F4ADB
:100D20001368002BFCD0BFF35F8F0D4B10309B6816
:100D300084001B590B4A934203D09D4201D002F01C
:100D40009DF8074B9B681D51BFF35F8FBFF35F8F0B
:100D50000022024B1A6086F3108870BD240100D077
:100D600000ED00E0CD010010F8B557464546DE46DF
:100D70004E468A46E0B590460700EFF3108972B6FA
:100D80005F4A1368002BFCD0BFF35F8F00205D4BE0
:100D900018569B46002800DAA2E05A4644005A4DF5
:100DA0002418A4002E19B37910371370574BBA00CA
:100DB0009B68934699584B1B2F2B41D801230A005F
:100DC0009A43D3799446434514D90627D75713003D
:100DD000002F06DA8DE00627DF571A00002F00DA11
:100DE00087E07B00DB199B00EB18DF794745F2D8E1
:100DF000002A51D1464A63465B1B5B415A43120DA0
:100E0000444BA11C3380444B6918043B5B1A1B05FF
:100E100042495B0D0B43738063460434043B2D1938
:100E20005D1B43462D05F3716D0D53462943B1807B
:100E3000B27101216246B360394B3143136018E04F
:100E4000384B994252D1334B02343380324B2D19F7
:100E5000043B5D1B2D05314B6D0D1D43324B0121B4
:100E6000B380FF23B3714346F37153467580B3607B
:100E700031435A46254B9B689950BFF35F8FBFF3B0
:100E80005F8F00221E4B1A6089F310883CBC90468D
:100E90009946A246AB46F8BD0627D757131D9C4678
:100EA000002F2BDB04342D19E024938824025B05EA
:100EB0001B1563445B1B1B055B0D23436546341FF9
:100EC000641B2405154D640D2C4394809071B380F0
:100ED0004346F3715346124AB7713260B360C8E7B4
:100EE00001F0CCFF5B460020185656E701F0C6FF24
:100EF000A9E71A1D94461A000C4BDFE70B4BDDE700
:100F0000240100D0EC7300204C13002000ED00E021
:100F1000AAAA000000A1FFFF7C13002000E0FFFF51
:100F200001488047CD01001001BDFFFF01BD000059
:100F3000F0B54546DE4657464E46E0B50D0083B057
:100F4000EFF3108972B6584A1368002BFCD0BFF338
:100F50005F8F564B9A68030010339F00D459544A50
:100F60009046944234D0AC4245D0524EA21B2F2A18
:100F70002ED801228240924651464F4A12681140B3
:100F8000019151464D4A1160BFF35F8FEFF3058227
:100F90009346002A35D10123220006219A43936803
:100FA00051569D420AD16AE04B005B1806219B0016
:100FB000F31898685956A84228D01A000029F3DA85
:100FC000019B002B19D052463D4B1A603A4B1A60D8
:100FD000364B9B68DC51BFF35F8FBFF35F8F0022FE
:100FE000314B1A6089F3108803B03CBC9046994697
:100FF000A246AB46F0BD1400EAE752462F4B1A60FA
:10100000E6E79342C7D001F039FFC4E7002921DBAE
:101010004A005018800035188046A8689860E87922
:10102000D871062028569871002826DBAD88F01A62
:101030006D052D1545444019E0250005400D2D0294
:101040002843988052181F4B9200B6181A781970CE
:10105000B271B5E75946002917D1002A22D0FF31D5
:1010600091711949918017490A789A71174A9B1B07
:101070005B415A43120D0A70A2E71548E1E71300DD
:101080000029C5DA5A46002A0CD0124A1249D21A4F
:10109000083A5002400D01439980104952080A4312
:1010A000DA808DE74446DEE7240100D000ED00E061
:1010B000CD0100104C13002000E100E080E100E0D1
:1010C00080E200E0EC73002001BDFFFFAAAA00004F
:1010D00001BD00008613002000F0FFFF00F8FFFFB5
:1010E00010B5032304009C430340FF20054ADB00A6
:1010F0009446984099406444226882430A4322609F
:1011000010BDC04600E400E0F0B5EFF30581012416
:101110000443EFF3108672B6214A1368002BFCD00B
:10112000BFF35F8F1F4B204A0500ED1A6D416A43E4
:10113000120D1E4D8900AF6852B27F58A7421CD0D5
:101140000621595691421CD012215956914222D063
:101150001E215956914220D02A21595603249142EA
:1011600010D0134B19781A708171BFF35F8F002272
:101170000B4B1A6086F31088F0BDAB680D4C5C50C9
:10118000EFE700246100091989005B18FF219971BC
:1011900009499980E5E70124F4E70224F2E7C04613
:1011A000240100D04C130020AAAA000000ED00E0AA
:1011B000EC730020CD01001001BDFFFF054B064A76
:1011C0001360064A136053609360D36013615361E8
:1011D000936170478080808000E400E004E400E0D8
:1011E0001F2110B5091A0248FFF70AFD10BDC046BD
:1011F000FC73002000B5074B83B001000093002270
:1012000005230548FFF7AEFC002801DB1F23181A51
:1012100003B000BD74FC0110FC73002070B5040025
:101220000E001500FFF716FD0100200000F006F883
:10123000A680E580BFF35F8F70BDC046024B9C4621
:1012400061448900016070474000003410B504001B
:10125000FFF700FD01002000FFF7F0FFFF232371DF
:10126000BFF35F8F10BDC04610B50400FFF7F2FC5E
:1012700001002000FFF7E2FFFF23A380BFF35F8F91
:1012800010BDC04610B504000120FFF7EFFC044B71
:101290009C46604480002060BFF35F8F10BDC04655
:1012A00040000034034B9C46614489000160BFF359
:1012B0005F8F70474000003470B506000D001400C9
:1012C00000291ED0002A1ED07368806898476300EA
:1012D0006A001B195219033B033A3168002808D0F1
:1012E000CB188A189D70117800290ED1147028002F
:1012F00008E08A18CB1894701978002900D0517032
:101300001D70200070BD0800FCE7597028001470A3
:10131000F8E7C04683680B4810B5844661446244D0
:10132000090112019A18591854684B6801209C420F
:1013300001D802D00020C0B210BD12680B689A42DA
:10134000F9D8F7E7FFFFFF0F0A4B1968EFF310809A
:1013500072B60A68002AFCD0BFF35F8F1B68BFF328
:101360005F8F00221A6080F3108840BF00200021A8
:101370007047C04684720020F8B54746CE4680B517
:1013800014001D000BAA0AAB12781B788046914608
:101390000768002B12D1BE7B002E44D07200921938
:1013A0003968033A891848783300B873002800D1A7
:1013B000F873002088704870087003E01E005A001F
:1013C000D218033A1A4938008C464146896863446A
:1013D0008C461B0108996344996009991C605D6003
:1013E000D9603B689C46002362449370537013702D
:1013F000797B3200FFF760FF7873B04213D1434628
:101400002200187D2B0000F0CFFC041E07D04B46B5
:10141000002B04D143463100186801F053F90C9BAE
:10142000002B00D01C7030000CBC90469946F8BDD3
:10143000FFFFFF0FF0B5DE4657464E4645460023F8
:10144000E0B58BB00893684B8200D45800239B46CC
:10145000099000F017FC6268EFF3108572B613680C
:10146000002BFCD0BFF35F8F23689C465B7B9946C3
:10147000002B00D16DE0A2685C4B90464B441B01F1
:10148000984443461E685F6832003B00121A8B4145
:10149000002B00DC67E032003B00099800F084FC80
:1014A00000230022984600230692079300239A46C1
:1014B0006368BFF35F8F5A461A6085F310885346FE
:1014C000002B08D10028C4D10BB03CBC90469946F3
:1014D000A246AB46F0BD089B414618024B46184356
:1014E000D047626806000F00EFF3108572B61368EC
:1014F000002BFCD0BFF35F8F002F52DB33003B4348
:1015000002D02369002B63D12368DA7B002A07D03D
:1015100051008A1819688C4649466244033A517052
:101520009A7B002A01D14A469A734A46DA73E268E6
:101530004B469446013B63441A7801321A705B466D
:1015400023616368BFF35F8F5A461A6085F3108882
:101550007FE700230022984600230692079300238A
:1015600000209A46A4E7002B02D1002A00D092E77F
:101570000021604600F0C4FF43461A685B6806928B
:10158000079343469B689A464346DB689846E36860
:101590004B44013B1B7808931B020343236100204B
:1015A00086E72369002BAFD0069A079B921BBB41AD
:1015B000002B15DB59460491012103914946029104
:1015C00041460191514620000091FFF7D5FEB6E754
:1015D00000F058FB32003B0012184B41002BE9DAB7
:1015E0000122034B5242E5E7BC6A0020FFFFFF0FD8
:1015F000FFFFFF7F10B5144C6368002B04D00A2155
:101600001248FFF71BFE10BD2300114A102120686D
:1016100000F08AFD032000F011FB032000F030FCF5
:101620000C49032000F07AFBFFF714FB0A4B9C46A1
:1016300003232375D0231B061B6860446375074B87
:1016400080006060DC60DAE7941300208472002080
:10165000151300103514001040000034BC6A00203F
:10166000004870479413002070B50500182003F05F
:10167000A7FB164904000200280000F06FFC1021AF
:101680002060280003F0BAFB0121A060280003F0CD
:10169000B5FBE060012000F0E5FA050000F0F0FB8A
:1016A0000B49280000F03AFBFFF7D4FA094B2575E7
:1016B0009C46D0231B061B6860446375064BAD0037
:1016C00080006060EC50200070BDC0461513001013
:1016D0003514001040000034BC6A00200E4B10B5D9
:1016E0000400984217D00021037D0C4A9B0000683B
:1016F000995000F0F5FD0021207D00F00FFB207DCA
:1017000000F0A8FAE06803F099FBA06803F096FBEC
:10171000200003F093FB10BD94130020BC6A00204E
:10172000F0B54E4657464546DE46E0B583B00092DA
:1017300001930EAB1B7807009946002300269846BC
:101740007A68EFF3108A72B61368002BFCD0BFF3EF
:101750005F8F3D68AC7B002C00D168E063001B19F3
:101760002A68033BD2185178A346A973002900D1F7
:10177000E973967056701670B968384A8C460098AE
:101780000199A21812016244106051600C9928005E
:1017900091600D99D1602A68944663449E705E7092
:1017A0001E70697B2200FFF787FD6873844244D076
:1017B000FB681B19013B18787B68BFF35F8F1E60C5
:1017C0008AF31088002C45D04346002B09D15B4694
:1017D0000002184303B03CBC90469946A246AB4673
:1017E000F0BD4B46002B26D00C9B0D99002098474E
:1017F00003000B431FD004000D1E09DA009A019B61
:10180000121BAB4100920193002B09DBC84697E7FE
:1018100000F038FA24184D4100940195002DF5DAB6
:1018200001230F4C5B4200930194C84688E70023D4
:1018300000209B46C0E70020CCE7387D009A019B42
:1018400000F0B2FA80460028B2D02100386800F0DB
:1018500039FFADE701204042BCE7C046FFFFFF0F64
:10186000FFFFFF7FF0B54F464646D6468046C0B5DF
:1018700016001F004268EFF3108A72B61368002B3F
:10188000FCD0BFF35F8F43461D68AC7B002C44D077
:10189000610009192B6803395B185A78A146AA73AD
:1018A000002A38D0002240469A705A701A70806818
:1018B000244B8446E31808981B01634498600998F8
:1018C0001E605F60D8602B6828009C4661448A7067
:1018D0004A700A70697B2200FFF7EEFC00226873F1
:1018E000844224D04346DB681B19013B1D784346E4
:1018F0005B68BFF35F8F002119608AF31088002CAA
:101900001DD0002A0ED14B46280218431CBC90461D
:101910009946A246F0BDEA73C4E700230025994624
:101920000022E4E74346187D00F0CAFAEBE743469D
:101930003200187D3B0000F037FA0200D2E70120A8
:101940004042E3E7FFFFFF0FF8B5040000292AD06B
:101950004268EFF3108572B61368002BFCD0BFF31A
:101960005F8FFF232068CEB2427B0B40B24208D08B
:1019700007685A00BC46D2186244033A9278002A9B
:1019800013D0E268090A94466344013B1B78C9B24C
:101990008B420FD000206368BFF35F8F00221A6074
:1019A00085F31088F8BD0020FCE723699942F1D146
:1019B0002261EFE7310000F085FEECE7407D7047E3
:1019C000F0B504000D0006267642F717C646361914
:1019D0006F4100B584B08F4214D811D000F052F995
:1019E00032003B00121A8B41002B15DC002B3ED03D
:1019F0002000290000F082F904B004BC9046F0BD3C
:101A00008642EBD90026002700F03CF932003B006B
:101A1000121A8B41002BE9DD002302930193154B31
:101A20003200009314483B00FFF77AFE0028DFDB0A
:101A300000239846BC46114A114F7B6A9C4504D846
:101A4000B96AB142D4D29C45D2D11168EFF310806B
:101A500072B60B68002BFCD0BFF35F8F1368BFF327
:101A60005F8F4146196080F3108820BFE5E7002AA8
:101A7000BED0D1E7491300109413002084720020D7
:101A80000040054070B5060000F0FCF8FA220400A2
:101A90000D00920000233000002103F041F90019ED
:101AA0006941002902DBFFF78BFF70BD012001496E
:101AB0004042F8E7FFFFFF7FF0B5EFF30583CE4626
:101AC000474680B5050085B00C00002B11D02B4A8D
:101AD0000020536AA34207D3926A0130AA4203D27C
:101AE0001C1B601E8441E0B205B00CBC90469946B8
:101AF000F0BD234E02930193224B0200009330006D
:101B00000B00FFF70DFE0028E1DD20BF7268EFF348
:101B1000108772B61368002BFCD0BFF35F8F336859
:101B2000C1B29C466246FF23527B03408A420BD0DF
:101B30005A00914662461268994490464A46424489
:101B4000033A9278002A10D0F268000A9046434483
:101B5000013B1A78C0B282420CD07368BFF35F8F2A
:101B600000221A6087F31088B1E733699842F4D1F4
:101B70003261F2E7604600F0A5FDEEE70040054067
:101B80009413002049130010F8B5EFF30582CE46F8
:101B90004746100080B51038EFF3108C72B6204C19
:101BA0002368002BFCD0BFF35F8F01231900814015
:101BB0001C4D1D4E716329601C4DA9462D782F00C8
:101BC000C7403B4015D0736A194E984683009E5912
:101BD000B04517D3174A8D439B584A461570BFF33B
:101BE0005F8F002222608CF31088002B06D098476C
:101BF00004E0BFF35F8F23608CF310880CBC904629
:101C00009946F8BD0C4B9200984642441368136005
:101C1000BFF35F8F002323608CF31088EEE7C0468C
:101C2000280100D03C70054000400540FB730020B7
:101C3000B87200203C220020D03F054010B50100C2
:101C4000024A0348FEF76CFF10BDC04698FC011025
:101C5000E773002010B501000148FEF7D1FF10BD69
:101C6000E773002000B5054B83B00100009300220C
:101C700003230348FEF776FF03B000BDBCFC011050
:101C8000E7730020044A516A00E01900906A536A21
:101C90009942FAD17047C04600400540164A70B5D7
:101CA000546A00E01C00956A536AA342FAD12A00E4
:101CB00023008018594105000E008C4202D819D12A
:101CC000824217D9012201256D42EE1752420A4C79
:101CD000636A9342FCD39A420BD1074B2800996A5E
:101CE000A94203D305E0996A814202D2596A91421E
:101CF000F9D070BD3200EAE700400540064A536A59
:101D00009942FCD807D1044B02E05A6A914202D1B1
:101D10009A6A8242F9D370470040054070B50400CA
:101D20000D00EFF3108672B61A4A1368002BFCD030
:101D3000BFF35F8F002D1BD02000FEF7E3FF164995
:101D400088420AD02000FEF7E5FF01212000FEF7BF
:101D50009DFF0123A340114A1360114BA400E550DD
:101D6000BFF35F8F00220B4B1A6086F3108870BDA3
:101D70000B4BA200D5500122A2400A4920000B784B
:101D800093430B700449FFF7D3F800212000FEF7BE
:101D90007DFFE5E7280100D0891B00103860054071
:101DA0003C220020FB730020F0B5D6464F46464645
:101DB0002E4CC0B5656A00E00D00A66A616AA942B2
:101DC000FAD1AB4209D806D0012420001CBC9046B1
:101DD0009946A246F0BDB242F6D9EFF3108972B629
:101DE000234C21680029FCD0BFF35F8F01262149D5
:101DF00086408C460978204D0F0037438846F9B25B
:101E00008A46614654460C701849041DA4004E636E
:101E10006250840063510D6A002435421AD04D6A25
:101E200000E025008F6A4C6AAC42FAD1AB4219D867
:101E300001D1BA4216D8C24516D00C4B0F4A1E62C9
:101E40005E631F2318401E3B834013606346424677
:101E500001241A70BFF35F8F0022054B1A6089F3CB
:101E60001088B2E70024F5E70124F3E700400540BD
:101E7000280100D0FB730020B872002080E200E04F
:101E800010B5EFF3108472B60A490B68002BFCD032
:101E9000BFF35F8F01238340074A0848136202782B
:101EA0009A430270BFF35F8F00230B6084F31088A6
:101EB00010BDC046280100D000400540FB73002043
:101EC00010B5EFF3108472B60A490B68002BFCD0F2
:101ED000BFF35F8F01238340074802781A430270E3
:101EE000BFF35F8F00220A6084F31088034A1360F7
:101EF00010BDC046280100D0FB7300203C600540A7
:101F000070B506000D00140000291ED0002A1ED056
:101F100073688068984763006A001B195219033B75
:101F2000033A3168002808D0CB188A189D701178C0
:101F300000290ED11470280008E08A18CB1894707C
:101F40001978002900D051701D70200070BD080064
:101F5000FCE7597028001470F8E7C046F0B5DE467B
:101F600057464E464546E0B589B0060004900D0040
:101F700001201021140002F041FF0321070030006E
:101F800002F03CFF0023F2B27B73013301000390A7
:101F9000386005923A737D60BC60BB73FA73012AA6
:101FA00000D8A0E0531ED8B2931E0690072B00D88D
:101FB000ACE0C3080293564B00259B46554B564C4C
:101FC0009A46564B56489846013107975246434623
:101FD0005F465E4662401A404E4B2740FB185A400F
:101FE000064053460196464643403340494E0A70E8
:101FF000B446019E0135B146CC4466467340160492
:10200000360ECE701602120E4A721A04120E0B739E
:10201000CA731A021B0E4B75424B120E9C465C4053
:102020005840434618404B468A74424663445840E1
:10203000029B360E14406744EDB28E717C4018311D
:10204000AB42C3D1069907230A009A43531C079F4A
:10205000DBB2914247D0039C5A00A446D218591CC7
:102060006244059DC9B2033A51708D423BD94A0082
:102070005218981C6244C0B2033A5070854232D95B
:1020800042001218D91C6244C9B2033A51708D4201
:1020900029D94A005218181D6244C0B2033A507040
:1020A000854220D942001218591D6244C9B2033A30
:1020B00051708D4217D94A005218981D6244C0B21F
:1020C000033A507085420ED942001218D91D62445D
:1020D000C9B2033A51708D4205D94A005218624480
:1020E000033A08335370FF20049B1840430018182C
:1020F000039B9C460023604403384370380009B0BA
:102100003CBC90469946A246AB46F0BD0123A2E7EF
:102110007F7F7F7F010101010102030480808080B5
:102120000506070808080808F0B5DE4657464E467B
:102130004546E0B58360002389B04260026806919D
:102140004373C9B20133059101738373C173049260
:10215000012900D8A4E00A004B1ED9B2931E0791B2
:10216000072B00D8AEE00025CB080393049B564C08
:10217000591C564B56489B46564B9A46564B9C46C6
:10218000564B0293524663465F465E4662401A4093
:10219000504B2740FB185A4006405346019666466E
:1021A000434033404B4E0A70B046019E0135B14664
:1021B000C844464673401604360ECE701602120E00
:1021C0004A721A04120E0B73CA731A021B0E4B7555
:1021D000029B360E5C4063461C40404B120E9846F4
:1021E000029B47445840634618404B46434458407E
:1021F000039BEDB28E718A747C401831AB42C1D121
:10220000079907230A009A43531CDBB2914247D037
:10221000049C5A00A446D218591C6244059DC9B2B8
:10222000033A51708D423BD94A005218981C6244BF
:10223000C0B2033A5070854232D942001218D91CFC
:102240006244C9B2033A51708D4229D94A005218EA
:10225000181D6244C0B2033A5070854220D9420032
:102260001218591D6244C9B2033A51708D4217D9F0
:102270004A005218981D6244C0B2033A5070854219
:102280000ED942001218D91D6244C9B2033A5170E6
:102290008D4205D94A0052186244033A08335370FC
:1022A000FF23069A13405900C918049B9C4600233B
:1022B000614403394B7009B03CBC90469946A24634
:1022C000AB46F0BD0123A3E7010203047F7F7F7FBC
:1022D00005060708010101018080808008080808C0
:1022E00010B50400006802F0A9FD200002F0A6FD70
:1022F00010BDC04670B50400002907D04B0000682F
:102300005B18033BC3185A78002A01D1080070BD3E
:102310005500AD18033D40190025467845705D70A5
:102320002000FFF7EDFD310005002000FFF7E2FF80
:10233000290002002000FFF7E3FD0100E6E7C046A8
:10234000F0B54E464546DE465746E0B50E007400F1
:102350000168A41985B0033C01920A1905001078A0
:10236000002850D043001B18033BCB185F78BC46B5
:10237000002F1AD1019C002C42D0EC7B002C04D001
:1023800063001B19CB18033B5E70AB7B002B00D1A5
:10239000AE73EE7300282FD10023537005B03CBC00
:1023A00090469946A246AB46F0BD7A006244033A95
:1023B00089184A78934600224A7090465A70010064
:1023C0003A002800FFF79CFD5B468146002B07D0B2
:1023D0005B0029685B44033BCB185A78002A16D16E
:1023E0005A4649462800FFF78BFD2968019B0A19C8
:1023F000002BC2D10028CFD043001B18033BCB18C1
:1024000000219970C8E7019B002BB6D1C4E75000AA
:10241000801803380918487882464046487058703A
:1024200059462800FFF76CFD53468346002B07D022
:102430005B0029685344033BCB185A78002A06D125
:10244000594652462800FFF75BFD8346C8E7500017
:1024500080180338091840464F7848705870514624
:1024600028000297FFF74CFD8246002F08D0BC469B
:102470007B0029686344033BCB185A78002A06D1B5
:102480005146029A2800FFF73BFD8246D8E75000EC
:1024900080180338091840464F78487058700299E0
:1024A00028000397FFF72CFD8046002F08D0BC467C
:1024B0007B0029686344033BCB185A78002A06D175
:1024C000039A41462800FFF71BFD0290D8E703203E
:1024D00050430338091800204F784870587003990A
:1024E0002800FFF70DFD390002902800FFF702FFDA
:1024F000029902002800FFF703FD0390E0E7C046C1
:10250000F0B54E464546DE465746E0B5467B0400EC
:1025100075000068AD19033D85B04219019111782D
:10252000002952D04B005B18033BC3185F78BC46B0
:10253000002F1CD1019D002D44D0E57B002D04D03F
:102540006B005B19C318033B5E70A37B002B00D1AB
:10255000A673E673002931D10023300053706173F4
:1025600005B03CBC90469946A246AB46F0BD7A0009
:102570006244033A801842789346002242709046A3
:102580005A7020003A00FFF7BBFC5B468146002BE7
:1025900007D05B0021685B44033BCB185A78002AC4
:1025A00017D15A4649462000FFF7AAFC019B0100BB
:1025B00020684219002BC0D10029CDD04B005B18F8
:1025C000033BC31800209870C6E7019B002BB4D1D1
:1025D000C2E7500080180338091848788246404600
:1025E0004870587059462000FFF78AFC53468346CE
:1025F000002B07D05B0021685344033BCB185A786B
:10260000002A06D1594652462000FFF779FC83463E
:10261000C7E7500080180338091840464F784870C3
:102620005870514620000297FFF76AFC8246002F3F
:1026300008D0BC467B0021686344033BCB185A7822
:10264000002A06D15146029A2000FFF759FC824623
:10265000D8E7500080180338091840464F78487072
:102660005870029920000397FFF74AFC8046002F1C
:1026700008D0BC467B0021686344033BCB185A78E2
:10268000002A06D1039A41462000FFF739FC029048
:10269000D8E7032050430338091800204F784870CA
:1026A000587003992000FFF72BFC3900029020009E
:1026B000FFF720FE029902002000FFF721FC0390A3
:1026C000E0E7C04670B5040000292CD0437B8B4264
:1026D0002ED0056848004018033828188278002A50
:1026E00021D053009B18033BEB181A788A4202D181
:1026F0001BE0002A08D053009B18033BEB185A78C4
:102700008A42F6D142785A700023012283704370C6
:102710002000FFF715FE617B02002000FFF7F0FBB1
:102720006073012000E0002070BD42781A70EBE772
:1027300001221900FFF704FE60730120F4E7C04690
:10274000F8B5CE464746040080B506200D0000F0DF
:1027500025FA061E52D0524B5249E3185A425341B1
:102760008022D20394465B4213404F4A6344136075
:102770004E4A136018008A689043FBD1484B802171
:10278000E3185A4253414A4A5B00490006209952D5
:1027900000F004FA2900C00001F03CFFC30932D167
:1027A000402290463F3A6262A362266BF30736D41A
:1027B00027008025E36A00232C376D013D432B6001
:1027C0000620266300F0EAF94146800001F022FF6E
:1027D000236B06009846DB073BD46022E36A5A402D
:1027E0006E2313402B6043462363802310229B01FA
:1027F0003B431A602F4B23630323A36430000CBCBC
:1028000090469946F8BD2C4A93423FD900232B4A63
:1028100090462B4A6262A362266BF307C8D522005A
:10282000C02330329B011343224A06201A60656A96
:10283000A36AAD01ED1800F0B1F9224901F0EAFEFA
:10284000AD020100280001F0E5FE0021FFF726FAA5
:10285000AEE72200C02330329B011343154A062005
:102860001A60636AA26A9B019946914400F096F946
:102870004B4614499B02994601F0CCFE01004846A4
:1028800001F0C8FE0021FFF709FAA6E77F221040F9
:102890009A019046013040081A008044030082E704
:1028A0000080FCBF00C0004000E0004000F000409D
:1028B0001874002001030000FEFF0000C0FF3F006D
:1028C000FFFF00004E0E000030B50C2083B000F07A
:1028D000BBF9FEF707F900280ED0994B994A1A6008
:1028E0005A609A60DA601A615A619A61DA611A6212
:1028F000954A5A6203B030BD944CA06700F0F8F9D5
:102900000122934B1A60636C012BFCD10322914B83
:102910001A608E4A936B012BFCD1013300938E4ACF
:10292000043301218D4800F03FF905238C4A0093C0
:1029300001218C4800F038F98B4B5A68FF2A02D8E5
:10294000802252005A6080227D4C824B2169120104
:10295000854D1A60002907D0606901F05BFE431CB9
:102960005800C0180338FDD2E0217F4B02201A68BE
:102970001140802252012A43116019684840032106
:102980000140116004219A681142FCD0802280210C
:1029900092012A4309011160802252005A60734B50
:1029A0002361734B5968FF2900D85A60032270488D
:1029B000674B01211A60020093681942FCD0E025A0
:1029C00013681D4080235B0103431D6012684A4069
:1029D0000321114019600221654A93681942FCD015
:1029E000802380219B010343090119608021614BF1
:1029F000490051606361604B5A68FF2A00D85960F2
:102A000080225E4BE16912015B4D1A60002907D0FC
:102A1000606901F0FFFD431C5800C0180338FDD267
:102A2000E02255490B681A4080235B012B431A6052
:102A3000802380229B012B4312011A608022414B8C
:102A400052004A60E3614E4B5968FF2900D85A6032
:102A500080224C4B216A1201494D1A60002907D08F
:102A6000606901F0D7FD431C5800C0180338FDD23F
:102A7000E02243490B681A4080235B012B431A6014
:102A8000802380229B012B4312011A6080235B006C
:102A90004B602C4B3C4A23623C4B5968914201D815
:102AA00001325A6080223A4B616A1201374D1A6036
:102AB000002907D0606901F0ADFD431C5800C01823
:102AC0000338FDD2E02231490B681A4080235B01B4
:102AD0002B431A60802380229B012B4312011A6032
:102AE0008023DB024B60184B63622A4B5A68FF2A33
:102AF00002D8802252005A608022274BA16912011D
:102B0000244D1A60002907D0606901F083FD431C41
:102B10005800C0180338FDD2E0221E490B681A4045
:102B200080235B012B431A60802380229B012B436F
:102B300012011A6080235B004B600E4BA361D9E643
:102B40009C2B0020006CDC021BB7000000800040C2
:102B50003CB0004030B00040002F68590080024077
:102B6000008C864700C0024030800040001BB70048
:102B70003C800040405973075480004054B00040EE
:102B80006080004060B00040FFFF03006C800040A8
:102B90006CB000404880004048B00040014B8000CD
:102BA000C05870479C2B0020F8B50400214817003E
:102BB0001E000D0001F02EFD0100380001F02AFD7D
:102BC000069A3304120313432268002A21DB1A4AAF
:102BD0001A4EA21851424A41802149018C46524264
:102BE0000A40174962440A6016490A601700B16832
:102BF0008F43FBD1C021221D890111432122256071
:102C0000A0600A602268002AFCDAE36008230B60F7
:102C1000F8BD3F2221680A40AA42D8D1A268120515
:102C2000120D8242D3D1EE21E268C9020A409A42D3
:102C3000CDD1EDE7001BB7000040FDBF00C0004054
:102C400000E0004000F000408023024A9B00034364
:102C5000D36270470080054010B580241B4BE4050B
:102C60001C6000282BD00123194C1843194BDC6140
:102C7000194C44401C62596298628021134BC9056B
:102C80001960164816490860E021C9041960002A35
:102C900004D18022134B12061A6010BD53019B1AF7
:102CA0009B009A18104B12019A420BD80F4B1A60D6
:102CB000084B5A6080220B4BD2051A60EDE7054B9A
:102CC000D861DAE7094A13601A00F1E700B005405D
:102CD000D3C007B0008005402D3FF84FFCFF010036
:102CE0000820014000A00540FFFFFF00946A00207B
:102CF000AA23064A1B0113602F230549D360054B05
:102D000019605368002BFCDA7047C046004002404F
:102D100000B0FA00006002402D4B2E4A70B51A60D8
:102D20002D4A2E4B2E491A6010008B689843FBD118
:102D30002C4C2D4B9C4209D2013B1D1BAD0801358B
:102D4000AD002D1908CC9847AC42FBD1FFF7BCFD74
:102D5000264A224B1A60224A9368DB018033FBD15A
:102D60004022234B234D24489A675A671A67DA6634
:102D7000A84205D30EE0FEF777FA2000AC4209D254
:102D8000040003680834002BF5D1FEF75FFA200039
:102D9000AC42F5D3194C1A4DA168C022280002F0AC
:102DA0006BF8A560FDF748FFFEF708FAFEF722FC76
:102DB000144C154B9C4209D2013B1D1BAD0801353B
:102DC000AD002D1908CC9847A542FBD170BDC04677
:102DD00000E00040BFCDFBFEFE7F3C0000F0004065
:102DE00000C00040D81C0020E81C0020FFFFFF01AD
:102DF00000F00140D81C0020C81C002000ED00E0BD
:102E000000000020E81C0020F01C002000BEFDE7B0
:102E1000094A1368002B06D008491818884208D8B8
:102E2000106018007047064B044918181360884258
:102E3000F6D901235B42F4E770580020000004201B
:102E4000F87F002010B5FFF7E1FFC0460FB400B5D2
:102E5000084883B002F0C6F9049B002B07D005A9EF
:102E60001800019101F05AFB034802F0BBF9012060
:102E7000FFF7CCFFDCFC01104C97051010B50148A2
:102E8000FFF7E4FFD0FC01107047C046F8B5574685
:102E90004E464546DE46E0B599460A9B07009A46EF
:102EA0000D9B884693460B9E15009B070FD10C9BEC
:102EB0009E420CD29D1B0E005D44541C4B463100BB
:102EC0002020B8472200A542F7D1B0460B9E002E25
:102ED00028D04446AD195346AA1B013E985D2100F7
:102EE0004B46B847002EF6D123002C0098460D9B88
:102EF0009B0710D55B46E51A0C9BAB420BD94646A7
:102F00002200984601344B46310020200135B84755
:102F10002200A845F6D820003CBC90469946A2461F
:102F2000AB46F8BD2C00E2E7F0B54F464646D64624
:102F3000C0B584B098460EAB1B7894469946129B58
:102F40000D9C109F119E9A0724D401221A4092468C
:102F5000002E62D1BC420CD21F2C00D9B8E00C9AD2
:102F6000551E302201E0202C03D001342A55A742FF
:102F7000F9D85246002A0DD0A6420BD9202C5AD09F
:102F80000C9A551E302201E0202C54D001342A55D1
:102F9000B442F9D1DA0632D55A0555D4002C4FD1B6
:102FA0000F9A102A00D18CE0022A00D17EE0302254
:102FB0000C9C22704A460124002A25D02D220C9D0B
:102FC0002A55013403930C9B0296009301944346C7
:102FD0006246FFF75BFF04B01CBC90469946A246D0
:102FE000F0BD202CEED00C9A1519013478222A70ED
:102FF000202CE7D030250C9A121915700134202CA2
:10300000E0D04A46002AD9D15A0728D41A07D9D580
:1030100020220C9D2A550134D4E7002A24D04A46A8
:10302000002A28D10C321A4225D1BC42A4D21F2C2E
:1030300095D9202E1DD92024DA06C3D55A0503D4EC
:10304000A7421AD0B44218D00F9A102A1FD0022AD1
:10305000CED1202CB6D00C9A121901342EE02B229E
:103060000C9D2A550134ADE7BC4293D21F2C00D8E9
:1030700075E720248EE7013ED7E7621E002A10D0B4
:103080000F9D102D2DD0022D15D01400B2E79A06F9
:10309000A7D5202C96D058250C9A121915700134FA
:1030A000A6E70F9C102C15D0022CEED162220C9CAE
:1030B000227001249EE70C9DAA4652446225157099
:1030C00096E79A06E7D478220C9C2270012491E7B7
:1030D00020244EE79A06F6D558220C9C2270012433
:1030E00088E7023C9D06D6D40C9D2D1914007DE77F
:1030F00010B5002800D110BD02F028F8FBE7C0464B
:1031000010B5002803D04A680B681100984710BD1D
:10311000F0B5454657464E46DE46E0B59BB0249D89
:10312000259C82468846099299462A002300280059
:10313000210001F020FD002800D0CBE00122D94B76
:1031400052422800210001F011FD002800D0C1E00A
:103150000122D54B52422800210001F0F9FC002841
:1031600000D0B7E0002200232800210001F0F0FC8D
:10317000002800D0EDE1AB4608948023289ADB00BC
:103180001A40119201D1062326935B460C938023AB
:103190005946289A1B011A40089B10920B4300D0F5
:1031A000AFE0002A00D0BFE104260D930E930C93EC
:1031B00000230A93279BB34201D99B1B0A93022742
:1031C000289B1F4005D0734273410A9A5B421A4004
:1031D0000A920C9B002B07D0584608990D9A0E9B1B
:1031E00001F05DFC834608910022002328002100A5
:1031F00001F0AEFC002805D0802000068446089926
:1032000061440891289AA94B414613405A460493B9
:103210000A9B50460393269B0293089B00920193BE
:103220004B46099A00F0A2F9002E63D0289B0200B9
:103230009C061F23E4179C436534431C089320001D
:103240004B464146D0470C9B0024DA179D18DB0FF4
:103250009B46731E55400C9302E00500202C11D0B4
:103260000AAA94461F23013463440A2128001E1928
:1032700001F0D0F93031317028000A2101F0CAF98B
:10328000092DEAD8052306930C9B0194059300238E
:1032900004930A3303935B46029312AB0093089A9C
:1032A0004B4641465046FFF73FFE002F22D0099B78
:1032B000C41A279BA3421DD9020057461E00551C65
:1032C0004B46414620200134B8472A00A642F6D892
:1032D00028000FE0289B2A000493279B4146039374
:1032E000269B504602932300009201934B46099A75
:1032F00000F03CF91BB03CBC90469946A246AB4658
:10330000F0BD6B4A089B94465800400D604401F0A4
:1033100045FC684A684B01F0DCFB684A684B01F0E9
:10332000B9FB089B674A1B031B0B1A4306000F00DF
:103330000C981100644B002201F0A7FB634A644B18
:1033400001F0C7FB02000B003000390001F0A2FBC6
:1033500001F03CFC0C9001F021FC5E4A5E4B060043
:103360000F0001F0B6FB00225C4B01F093FB01F073
:103370002DFC5B4A5B4B0D903900300001F0A9FB3E
:1033800006000D980F0001F009FC574A574B01F059
:10339000A0FB02000B003000390001F076FB0200B8
:1033A0000B000A900B9101F094FB06000F000A98A5
:1033B0000B9902000B0001F06DFB00220E900F91A3
:1033C0004B4B3000390001F06AFB0022494B01F001
:1033D00061FB02000B003000390001F060FB0022AD
:1033E000454B01F057FB02000B003000390001F0A3
:1033F00056FB0A9A0B9B0F0080210600C90500208E
:1034000001F043FB02000B003000390001F042FBE9
:103410003A4F02000B000E980F9901F040FB00227A
:10342000284B01F037FBBC460D9A6244160000227F
:10343000330501F04EFB07000D900E000E910200C7
:103440000B005846089901F083FB00285ED13B0031
:103450003200C6260C9963318E42B64110997642ED
:103460000436002900D1A3E6134361D0089F244A03
:10347000244B5846390001F071FB002807D0002288
:10348000214B5846390001F063FB002850D1269BA0
:10349000002B00D18CE6119B5A1E9341269AD31A19
:1034A000269385E6FFFFEF7FFFFFEFFFFFF7FFFFAC
:1034B00001FCFFFFFB799F501344D33FB3C8608BDF
:1034C000288AC63F0000F03F0000F83F61436F6369
:1034D000A787D23F71A379094F930A400000E03FCC
:1034E0001655B5BBB16B0240EF39FAFE422EE63FEE
:1034F00000002C400000244000001840FF030000A2
:103500002D431CEBE2361A3F80842E410C9B002297
:10351000013B0C930D98144B0E9901F0C0FA030077
:103520000D900A000E9194E700230D930E930C93D7
:10353000269B19000C9B994213DDCB1A013B269365
:103540008023289ADB001A430023289200260C933C
:103550002EE680231B069C46A4446346AB46089394
:103560000BE600232693EBE700002440F0B5DE468F
:1035700057464E464546E0B597B080468946924646
:103580009B46209A219B1000190001F0F4FA0028B4
:1035900000D01FE2209821990122CC4B524201F029
:1035A000D7FA002800D03EE1209821990122C84B8B
:1035B000524201F0DBFA002800D0E7E02098219980
:1035C0000022C44B01F0D2FA002800D0C7E02098B6
:1035D00021990022C04B01F0BBFA002800D0BEE0C8
:1035E000209821990022002301F0B2FA002800D08F
:1035F000E1E0002380240D93249BE4001C4000D0D4
:10360000E9E000220626B54B069207930EAB08931D
:103610002098219901F0DAFA07000C9001F0BEFA27
:1036200002000B002098219901F02FFA069A079BBF
:1036300001F04FFA0A900B9101F0ECFA05000990A5
:1036400001F0A8FA02000B000A980B9901F01DFA8C
:103650000022A34B0A900B9101F088FA002800D1B8
:1036600048E12B0001331800099301F093FA069A00
:10367000079B01F073FA002804D03B0001330C9340
:1036800000230993002E00D0D5E00C9D280001F006
:1036900085FA02000B002098219901F0F6F900222A
:1036A0008F4B06000F0001F053FA002808D10022CA
:1036B0008B4B3000390001F059FA002800D17EE12F
:1036C000202C00D1FAE00C9F0A21380000F07AFF8C
:1036D000089E3031315538000A21651C00F072FF18
:1036E000002800D180E1202D00D1E7E00A2100F080
:1036F00069FF303171553800642100F063FF0234F6
:10370000051E14D0202C00D1D8E008AA9446172317
:103710002800634401340A211E1900F053FF3031A0
:10372000317028000A2100F04DFF051EEAD1032365
:10373000249A1340012B00D1ECE0202C00D1C2E0F0
:103740000D9B002B00D111E12D23089A651C135508
:10375000249B01950393239B0293089B20E0249BC9
:1037600052460493239B49460393229B404602936F
:10377000209B219C009301945B46FFF7C9FC17B086
:103780003CBC90469946A246AB46F0BD249B5B07E5
:103790000ED40322534B2499019203912399029151
:1037A000009352465B4649464046FFF76FFBE6E70B
:1037B0004D4B0422EFE7209A219B0020002101F0CD
:1037C00064F9012380240D93249BE400209021912F
:1037D0001C4000D115E7229B092B00D808E11900F5
:1037E00030230EAA4E1E08921370092E00D1F9E064
:1037F000537008AA0C0094468E1E1721093C022320
:103800006144302205E00133CA54013E202B00D12F
:10381000A3E09C42F7D1354BF2009B181A685B6815
:1038200006920793F4E6249B0393239B02930423BD
:1038300001932F4BB4E7202C40D0099D731E0A2121
:103840002800069300F0E6FE089B30311955280049
:103850000A2100F0DFFE671C0995092D00D892E0CF
:10386000202F2BD0B11E06910A2100F0D3FE089B19
:103870003031D9550998642100F0CCFE099AA51C75
:103880000700632A00D87FE03419013C14E0631B71
:1038900008AA069394461723013563440A21380089
:1038A0005E1900F0B7FE3031317038000A2100F0A7
:1038B000B1FE092F68D90700202DE8D10323249AEF
:1038C0001340012B25D0202542E7C046FFFFEFFF24
:1038D000FFFFEF7F65CDCD4165CDCDC180842E4109
:1038E0000000E03FCCFE0110D0FE0110E8FE011008
:1038F000DCFE011000220A980B99494B01F028F9CF
:10390000002800D0BEE62B1E60D1099B013309932D
:10391000B8E62024239B002B00D10EE70D9B002B43
:1039200003D1249A0C33134202D0239B013B2393EF
:10393000239BA34200D800E708AA9446172330220D
:103940006344202CBFD0239901341A558C4200D1F6
:10395000F3E6202CF7D12025FAE6324BF2009B1833
:103960005C681B6806930794202451E6249B5B0740
:1039700020D4249B25001B0700D4E9E62023089AC5
:1039800001351355E4E63D00202D97D008A98C465B
:1039900017230698634442193021002826D00135A8
:1039A0005955202D30D0AA42F9D12E230899541C04
:1039B0008B5485E62B23089A651C1355C8E6012312
:1039C000AC462B409C4463460C9379E6DB0700D45D
:1039D00058E69AE7249B0393239B029303230193C6
:1039E000114BDDE6012416E72C00A0E62A00DCE7F7
:1039F000DA001E000B4B9B185C681B68069307944B
:103A00000EAB0024089303E60323249A1340012BF2
:103A100000D09DE6239B002B00D199E620247DE772
:103A20000000E03FE8FE0110D8FE0110F0B5454669
:103A3000DE4657464E46E0B5A1B01D002A9B904693
:103A40000B93BD4ABD4B0A908B461A60002900D1EA
:103A50000DE2002328789A46002861D0B84B5646DC
:103A60009946C24609E0741C320053460A9E5946E4
:103A7000B04726002878002850D001352528F2D1FB
:103A8000042328789846023B9C460300203B691C8F
:103A9000DBB200240A00102B0ED84F469B00FB58C7
:103AA0009F4601230D001C432878691C0300203B1E
:103AB000DBB20A00102BF0D90300303B092B41D9AF
:103AC00000272A286AD000230C932E2851D0030007
:103AD000683BDBB2122B5FD89A499B00CB589F46BC
:103AE00063460D001C43DFE743460D001C43DBE744
:103AF00010230D001C43D7E708230D001C43D3E718
:103B000080235B0068781C43551C0300253BDBB217
:103B1000532BA8D88C4A9B00D3589F46D046B24618
:103B20005246D04501D843465A1E434659460020C6
:103B30000A9CA047504621B03CBC90469946A246FC
:103B4000AB46F0BD0027030001E00D000131B800D5
:103B5000C0194000C0180B7830381A00303A0700FE
:103B6000092AF2D918000023AA1C0C930D002E2854
:103B7000ADD180236878DB001C430300303B092B68
:103B800000D877E12A2800D1ABE10300683BDBB223
:103B900015000132122B9FD91500B6E70B9B80CB85
:103BA000002F00DA5BE16878AA1C0B930D008AE70E
:103BB00068786C2800D14DE280235B001C43551CC3
:103BC000A3E780239B0068781C43551C9DE7687819
:103BD000682800D139E28023551C1C4395E70B9BD4
:103BE00004CB98460C9B0B921078002B00D0A2E1DE
:103BF000002801D100F071FC02235B425A1C0B9B90
:103C0000944619000D92614401E08B4206D00133C5
:103C10001A78002AF9D10B9A9B1A0D938023DB00A6
:103C200023400E9305D00D9B19000C9B994200D99F
:103C30000D93022323400F9300D140E2002800D1CE
:103C400026E20E9B002B00D1E6E141460C9B0C9135
:103C500029009C190B9B5D469B1B3200B8460B93B9
:103C60008B460AE0534629000A9F561CB8470B9B17
:103C7000985D002800D104E232009442F2D10C9BFE
:103C8000474698465B462600AB461D000F9B002B1F
:103C900000D0FDE143460B93ECE60B9B04CB0B936A
:103CA000002A00D128E121231C43A44610A98846FC
:103CB0001F240F2144440023884603E0202B00D119
:103CC00024E10A0041461140CFB2380037300929BB
:103CD00000D807380133E05411090F2AEED815E156
:103CE0000B9B04330C93731C0D939846A30700D4CD
:103CF00006E20B9B32001878594653460A9CA047AF
:103D0000BE19012F00D8A7E22B0042465546B04607
:103D10009A465E460A9F541C2B0031002020B8476B
:103D200022004445F7D15346B346AA4626001D005B
:103D30000C9B0B939EE6C0462D3A0010886A00202B
:103D4000ECFC011030FD01107CFD0110782800D141
:103D500052E2582800D183E16F2800D1F3E06228B5
:103D600000D156E3102322009A438023DB000D92FA
:103D70002340692800D0BCE30A220E92002B00D118
:103D800046E201230D9A9A430D9280240D9BA400D4
:103D900023409C46692800D1E7E0642800D1E4E094
:103DA0006346002B00D094E280230D9A5B001A40FA
:103DB0000B9B904604330F93002A00D02CE30D9BFD
:103DC0005B0600D544E20D9B1B0600D488E30B9BE9
:103DD0001B881800031E00D04DE20D9A103311000D
:103DE00099430D91520500D445E2002398460D9B5E
:103DF000059706930C9B04930E9B03930023029359
:103E00004346019318AB00933200534659460A9833
:103E1000FFF78AF80F9B06000B932BE6462800D18C
:103E20008EE007220B9B04940733934319000C9AEE
:103E3000039702920CC90A98009201930B913200E9
:103E400053465946FFF792FB060013E6741C3200F6
:103E500053460A9E59462520B04726000AE602220C
:103E6000687814437F42AA1C0B930D002BE6D34BBA
:103E70000A93EEE50023010000E02A009800C01834
:103E8000400040185178030008003038551C303B82
:103E90000928F2D90C930800023218E62023020008
:103EA0009A43472A04D180231B011C4302239843D1
:103EB000452801D120231C4307220B9B0494073380
:103EC000934319000C9A039702920CC90A98009226
:103ED00001930B91320053465946FFF719F906003A
:103EE000C8E50B9BA87802CBCA43D21711400C91AE
:103EF000EA1C0B930235EAE51023210099431133A4
:103F000019438C460023610500D4CFE66246069231
:103F1000082205920C9A0492102203920022029227
:103F2000019318AB00933200534659460A98FEF7A6
:103F3000FBFF06009EE5002800D1CDE2013B5DE6D7
:103F400020231C436DE708230E9322000D94802349
:103F5000DB001340642800D0CEE2002B00D010E735
:103F600080241300A40023409C466346002B00D00D
:103F7000E5E080230D9A5B001A400B9B90460433CA
:103F80000F93002A00D0C6E10D9B5B0600D547E1E8
:103F90000D9B1B0600D499E20B9B00229B5ED91758
:103FA0005A184A401000DA0F1492002B09D18023CE
:103FB00010220D99DB000B4091430D91002B00D096
:103FC00050E10D9A6123920600D5412310AA1F24C7
:103FD0009446DBB264440A3B159716960B9346460B
:103FE0000700A84625000E9C0AE03033DBB20136FC
:103FF000AB55A74200D231E1202E00D12EE10700BF
:104000002100380000F006FBCBB20929EDD90B9A4C
:1040100094466344DBB2EAE70B9B32009E1B3300FD
:104020005E46AB4655469A460B970A9F2B003100D9
:10403000541CB8475346185D22000028F6D1AA4602
:104040000B9F5D46B346260020E6C023A8781C439C
:1040500003355AE5C0239B00A8781C43033554E57B
:104060000C2322009A4314331A430D92630500D5A2
:10407000D3E080239B001C40F13BFF3BA4460E9302
:104080008EE60C9B474698465B46AB461D00FDE519
:104090000D9B32009F4200D8FCE5BE19F61A2B009A
:1040A0005D469B460A9F541C534629002020B84772
:1040B0002200B442F7D15B46AB461D00EAE50D9AFB
:1040C000531C974200D812E2BB199B1A0D971F0090
:1040D00032005E46AB460A9D541C534631002020F8
:1040E000A8472200BC42F7D15D46B34626000D9F8B
:1040F0007B1C0D930B9B1878002800D0A1E5C9E527
:10410000012F00D8F0E1731E3200A846DF190A9E85
:104110005D460D9C00E00134534629002020B04745
:104120002200BC42F7D12600AB46454601360B9B28
:104130003A001878594653460A9CA047F8E50722EA
:104140000B9B07339343013294469C4462460B9287
:104150001A685B689C46DB171293139312981399A5
:1041600003005340109364460B0063401193109B6F
:10417000119C1B1A8C41109311946346DB0F14930E
:1041800063461A4350D00D9A6123920600D541230D
:104190000022DBB2904610AA0A3B1F2494460F93DC
:1041A0005B4664441793230015971696AB46109E02
:1041B000119F44460E9D984610E0C046892E00107F
:1041C0003032D2B2434601341A550023BB4200D1EB
:1041D00067E1202C00D167E106000F002A000023D0
:1041E0003000390000F054FAD2B2092AE8D90F9B06
:1041F0009C466244D2B2E5E780231022DB002340D4
:104200000E920C2294430D94002B00D1BDE5B8E52D
:1042100080239B001C40A446A7E610230E93B0E524
:104220000B9B1B781A00BDE60D9A102311009943D1
:104230000D915205A7D5002398460D9B059706932F
:104240000C9B04930E9B0393149B0293434667E6D7
:104250000B9B1B781800BDE50D9E69E54546159F33
:10426000B046169E0D9B059706930C9B04930E9BE0
:104270000393149BC3E50D9A6123920600D5412355
:1042800010AA1F249446DBB264440A3B1497159687
:104290000B9346460700A84625000E9C08E03033E5
:1042A000DBB20136AB55A7420ED3202E0CD007004F
:1042B0002100380000F0AEF9CBB20929EFD90B9AF2
:1042C00094466344DBB2ECE74546149FB046159E26
:1042D0008DE507220B9B07339343013294469C44A0
:1042E00062460B921A6859681300100009910B433B
:1042F0005CD10D9A1033110099430D91520555D59B
:10430000002398460D9B059706930C9B04930E9BE8
:104310000393002399E70B9B1B68D9175A184A404F
:104320001000DA0F1692002B08D1802310220D996D
:10433000DB000B4091430D91002B2CD10D9A612392
:10434000920600D5412310AA90461F24DBB24444B4
:104350000A3B14971596A8460B932500070066465E
:104360000E9C08E03033DBB20136AB55A7420ED3CA
:10437000202E0CD007002100380000F04BF9CBB202
:104380000929EFD90B9A94466344DBB2ECE7454622
:10439000B446149F159E0D9B059706930C9B0493A2
:1043A0000E9B0393169B029363462AE50D9A6123A5
:1043B000920600D541230022DBB2904610AA0A3BA8
:1043C0001F2494460F935B46644414971596AB469E
:1043D00046461693A0460E9D099F04000BE030321E
:1043E000D2B2434601369A550023BB4265D0202EF7
:1043F00065D004000F002A0000232000390000F0DF
:1044000047F9D2B2092AEAD90F9B9C466244D2B23C
:10441000E7E702230E9398E50B9B1B68181E08D153
:10442000802310220D99DB000B4091430D91002B4E
:104430002CD10D9A6123920600D5412310AA9046F3
:104440001F24DBB244440A3B14971596A8460B93ED
:104450002500070066460E9C08E03033DBB20136CB
:10446000AB55A7420ED3202E0CD0070021003800F8
:1044700000F0D0F8CBB20929EFD90B9A94466344E7
:10448000DBB2ECE74546B446149F159E0D9B05979D
:1044900006930C9B04930E9B0393002302936346A5
:1044A000AFE4B54200D894E6179B109611975D468D
:1044B000159F169EA0469B46BFE6A54297D9169B20
:1044C000B0465D46149F159E9B461BE70B9B1B68E1
:1044D000D9175A184A4065E500230D93FFF79EFB54
:1044E0000B9B1B68180075E437000D9E1FE60D93AB
:1044F00002E60A230E932AE5140082E600B585B091
:104500000391012102900093034813004A4202A93B
:10451000FFF78CFA05B000BD0131001010B5094A53
:1045200084B01468002C09D001220091030052428B
:1045300003A90548A047012004B010BD00F052FEB9
:104540000020F9E7886A0020F130001001480421BA
:10455000014B1847C013002089450010014B9B6890
:1045600018470000C0130020142310B5010018885C
:1045700004331B88984710BD162310B50100188816
:1045800002331B88984710BDF0B5C64600B5002918
:1045900016D01423040001259846182789004618D0
:1045A0004346216818883B88984701C4431E9841B8
:1045B00040420540A642F3D1280004BC9046F0BD1D
:1045C0000125F9E7124A936F9B0815D29066D166D0
:1045D000002905D0FFE7FFE7FFE7516F106F704735
:1045E00004B580210906C2175140002800D0C843F5
:1045F0001BF0FEF8002104BDF0B5146E556E576F28
:10460000166FFFF7E3FF1466556657671667F0BD30
:10461000000000D0114A936F9B0813D210665166B8
:10462000002905D0FFE7FFE7FFE7516F106F7047E4
:1046300004B5002801D00020C0431BF0D9F80021A8
:1046400004BDC046F0B5146E556E576F166FFFF778
:10465000E5FF1466556657671667F0BD000000D089
:1046600094464A4A926F9208624601D228E0C046B8
:10467000F0B5464E346E756E776F366F00F020F8E9
:104680009446424A14665566576716676246F0BDFF
:1046900094463E4A926F9208624601D254E0C04668
:1046A000F0B53A4E346E756E776F366F00F04CF899
:1046B0009446364A14665566576716676246F0BDDB
:1046C000002B24DB11D000293EDA00B5C94340425B
:1046D00000D1013100F038F8C943404200D1013126
:1046E000DB43524200D1013300BD002AEBD1002848
:1046F00001D1002905D00020C90FC90701D1C0434D
:10470000410800B51BF04CF80022002300BD00B5A5
:1047100000290ADBDB43524200D1013300F014F8D8
:10472000C943404200D1013100BDC943404200D1DC
:104730000131DB43524200D1013300F005F8DB4385
:10474000524200D1013300BD002923D1002B18D1E2
:10475000002A0CD0BC460D4F38667A660021002333
:10476000FFE7FFE7FFE77A6F386F6746704700287B
:1047700001D00748010000B51BF012F80022002309
:1047800000BD02000B00002000217047000000D097
:10479000FFFFFFFF002B00D0BFE0130C28D1002A41
:1047A000E7D080B4114F39667A66FFE7FFE730B48F
:1047B000040C7B6F396F1B0423433B667A66FFE76B
:1047C000FFE7FFE7C04684B27B6F3D6F1B042343C6
:1047D0003B667A66FFE7FFE7C04600232C042D0CFA
:1047E0007A6F386F00196941B0BC7047000000D083
:1047F000F0B594460025140E01D112020835140FAD
:1048000001D112010435940F01D192000235D40F69
:1048100001D152000135D40B0134254F7C66254C63
:104820003C660E0C93B2FFE7FFE7FFE73C6F664381
:10483000360C7703BE467343DF0B5B04C01AB941E5
:10484000130C7343DB18C91ACE086643360CB64402
:1048500093B273431F0F1B01C01AB941130C73436A
:104860001F0B1B05C01AB941860D8F023E436643DC
:10487000360C092D24DB520A7243801A7703460A4C
:104880006643360C16235B1BDE40DF40BF196446CF
:104890006643821B7046043506330100D940A840A8
:1048A000C01900D30131A24206D20023F0BD00009E
:1048B000000000D0FFFFFFFF121B0130F3D3F1E730
:1048C00009277F1BFE406446A2B27243801A00D2C1
:1048D0000139220C7243130C1204821A99410B0005
:1048E0007046043513370100F940A840801900D301
:1048F0000131002B02D1A2420AD2F0BD013000D317
:104900000131121BFAD2013BF8D1A24200D2F0BD14
:10491000013000D30131121BF7E7F0B51C0C00D0B9
:1049200080E00CB400251C0A04D11B02160E334390
:10493000120208351C0B04D11B01160F3343120160
:1049400004359C0B04D19B00960F33439200023533
:10495000DC0B02D192185B4101351C0097186441B1
:104960000134464F7C66464C3C660E0CFFE7FFE781
:10497000FFE7C0463C6F6643360C7703BE4697B2EE
:104980007743C01B00D20139C01B00D201399FB24E
:104990007743C91BC91B170C77437E04FF0B801B91
:1049A000B941CE086643360C0C2D33DBB644120BEE
:1049B0001F053A431B0B97B27743C01B00D2013946
:1049C0009FB27743C91B170C77433E043F0C801BF3
:1049D000B941860D8F023E43664329277F1BFE4067
:1049E0000C3D7746AF40BF1930BCA2B2ABB27243A8
:1049F0007343801A9941220C7243130C1204801ADB
:104A0000994102000B000137001BA941F9D2781E21
:104A10000021F0BD0C277F1BFE4077467F0BAF4087
:104A2000FF19E0E700245D1C07D0144F7D6639664E
:104A3000FFE7FFE7FFE7FFE73C6F95B29EB26543F4
:104A40006643401BB141150C1E0C6543664336049A
:104A50002F0C3E432D04401BB141994204D2020069
:104A60000B0020000021F0BD01D19042F7D3801A45
:104A7000994101349942F2D3F6E70000000000D0DA
:104A8000FFFFFFFF48404140484018B4134B5B68AC
:104A9000019308BD18B4114B1B68019308BD9446DF
:104AA0000F4A926F920805D2624618B40B4BDB682E
:104AB000019308BD0A4AF0B5146E556E576F166F14
:104AC0006246FFF7F2FF064A146655665767166797
:104AD000F0BD18B4014B9B68019308BD1C74002005
:104AE000000000D0FFB550404240504059404B407C
:104AF000594000E0FFB5154F4C00640D03D0BC4297
:104B000004D10C0314D80020090D09055C00640DC4
:104B100003D0BC4204D11C030AD800221B0D1B0584
:104B200001264B4009D44B4003D58B4200D1824231
:104B3000FFBD9942FCD19042FFBD0B43DB180343FC
:104B40001343F5D0C9434918FFBD0000FF0700001B
:104B500000B5FFF7CFFF804100BDC04600B5FFF7AD
:104B6000C1FF01D9002000BD012000BD00B5FFF745
:104B7000B9FF804100BD012040054A00121804D849
:104B80005A00121801D800207047012070470020F9
:104B9000704700000021002805D17047C117484028
:104BA000401AFAD0C90713B5064B1B6898470CBCCE
:104BB000441CA2401005120B0349091B09051943A7
:104BC000114310BD787200201F04000010B54C0086
:104BD000620D8023D218DB00D21A5B057E2A10DD1D
:104BE0009E3A13DACC170903490819435242D140BF
:104BF000640001341532202A05DAD04008436043AE
:104C000010BD002010BD0846604310BDC80FC0187D
:104C1000013810BD18B4024B5B6A019308BD000057
:104C20001C74002010B50148FEF710F938FF011080
:104C3000132370B51D78012D11D042DD2748FFF7F1
:104C40009BFC274C01008022200000F015F9022D6A
:104C500034D02448FFF788FC234B186070BD204CEB
:104C6000224AA3085B421D4035D02B002260202041
:104C7000A9006118451B0A604A608A60CA600A611F
:104C80004A618A61CA610A624A628A62CA620A63C6
:104C90004A638A63CA630A644A648A64CA640A65A6
:104CA0004A658A65CA650A664A668A66CA660A6786
:104CB0004A676D08102D08D18A67CA670C4BA36438
:104CC000C7E7074C0A4BA364C3E71E339B00E250BF
:104CD000074BA364BDE70023C9E7C0465344000067
:104CE0001C7400204C33000078720020254C00100A
:104CF000F54C001007B5604601880A0A0230DF2A29
:104D0000FAD1C9B2820804D3028840880004104353
:104D100000E00068014A5050039007BD1C74002059
:104D200051434343C9188C46110C83B24B4310B412
:104D3000040C614392B280B2504362431C041B0CCA
:104D4000001910BC59411304120CC01851416144A0
:104D50007047000010B50148FEF778F8E8FD05102F
:104D6000132310B51C781148FFF706FC012C0BD05B
:104D700004DD010080220E4800F07EF80D48FFF7A8
:104D8000F3FB0D4B186010BD094C542201002000AC
:104D900000F072F82300094A80332168002900D10D
:104DA00022600434A342F8D1E8E7C046534600002D
:104DB0001C7500204C33000078720020554D001007
:104DC00070B504000A4E30001AF07AFD20001AF087
:104DD00021F8050030001AF0DBFC002D05D0054B52
:104DE0002C199C4201D8280070BD0348FEF72EF80C
:104DF000C81C00200000042050FF011070B5050001
:104E00000C000B4E30001AF05BFD2800210019F059
:104E1000C7FF050030001AF0BBFC002D05D0054B84
:104E20002C199C4201D8280070BD0348FEF70EF8EB
:104E3000C81C00200000042050FF011070B50500C0
:104E4000054C20001AF03CFD280019F0EDFF200071
:104E50001AF09EFC70BDC046C81C00200148042109
:104E6000014B1847D013002089450010014B1B68E7
:104E700018470000D0130020014B5B681847000062
:104E8000D0130020030010B508001B6811009847DC
:104E900010BDC046F8B54746CE4680B5437D804636
:104EA0000C001500002B43D0002A34DD0A78037D66
:104EB00000200A2A33D0012D1ED0204B0121671E6D
:104EC000994602E03100B54216D0635C7A5C4E1C14
:104ED0000A2BF7D10D2AF5D043461B68884204DA25
:104EE000091A2018984743461B68022148469847EC
:104EF00030003100B542E8D1854204DD4346291A2D
:104F00001B68201898476419013C23780D3B5A42CE
:104F10005341424613750CBC90469946F8BD002B90
:104F2000C9D14346054802211B6898470120C2E7C2
:104F30000368110020009847EDE7C046C4FF011048
:104F4000F8B54E46DE4657464546344BE0B51C683C
:104F50008146002C4ED0324B9A46324B9B4602E0A3
:104F60002469002C46D02368002BF9D052461268E1
:104F7000002A01D0A242F3D14F46627D40CF002AE1
:104F800048D0002EECDD49460979227D00200A290F
:104F900039D0012E1ED04B4601215D1C03E00135A6
:104FA0004146464516D04B1C98462B79EA780A2B89
:104FB000F5D10D2AF3D02368814203DD091A381890
:104FC0009847236802215846984701354046414694
:104FD0004645E8D1864203DD311A236838189847E0
:104FE000BF19013F3B780D3B5A4253412375246959
:104FF000002CB8D14A46002313603CBC9046994629
:10500000A246AB46F8BD002AC3D1064808399847E6
:105010000120BEE7310038009847A1E74C2C002062
:10502000642C0020C4FF01100B6870B505000C0053
:10503000802B04D05A1C2260E418257170BD080032
:10504000FFF77EFF2368F5E7F0B5DE4657464E468C
:105050004546E0B585B017001C0006000D00FCF7C2
:1050600011FE0023324A12184B41002B5BDB314901
:10507000080088461AF0F4FB01906B1C03D1300045
:105080001AF0B8F90500002C28D12B4B9A462B4B6F
:105090001C68002C15D0002F23D1294F02E0246971
:1050A000002C0ED02368002BF9D03B68002B01D0D8
:1050B000A342F4D120002A003100D0472469002CFB
:1050C000F0D1019B002B2AD1681E8541E8B205B0C2
:1050D0003CBC90469946A246AB46F0BD194B9A4659
:1050E000D5E7174B9B4602ABDF1D0A23994602E02A
:1050F0002469002CE5D02368002BF9D05B461B689F
:10510000002B01D0A342F3D12A0031002000D04768
:105110004B460122390020003B70D047E8E740466B
:105120001AF036FBD0E70122074B52429FE7C046F8
:1051300040420F00D01C0020954E00104C2C002047
:10514000642C0020854E0010FFFFFF7FF0B5CE4697
:10515000474680B583B06B46DE1D05003070FCF716
:1051600091FD00231A4A12184B41002B2CDB194FDA
:1051700038001AF075FB184B80461C68002C16D0BE
:10518000164B994602E02469002C10D02368002BAE
:10519000F9D04B461B68002B01D0A342F3D120006D
:1051A00001223100FFF776FE2469002CEED1434640
:1051B000002B05D1280003B00CBC90469946F0BDE9
:1051C00038001AF0E5FAF5E70122054B5242CEE726
:1051D00040420F00D01C00204C2C0020642C0020EA
:1051E000FFFFFF7F70B504001AF004F900230100EF
:1051F000050001222000FFF727FF084B1C68002C48
:1052000006D06368002B05D098472469002CF8D19C
:10521000280070BD2469002CF3D1F9E74C2C002044
:105220000A4A1368002B05D10CE01A001B691032E2
:10523000002B07D09842F8D1002902D103691360EE
:10524000016170470029FCD01060FAE74C2C002067
:10525000F0B5A3B004000D00FCF714FD00231B4AB9
:1052600012184B41002B2CDB194E30001AF0F8FAC3
:1052700000230700019322002B0001A91548FFF726
:105280003DF9019B0500002B02D001A8FFF758FE55
:10529000114B1C68002C06D06368002B08D098477F
:1052A0002469002CF8D1002F07D1280023B0F0BDCD
:1052B0002469002CF0D1002FF7D030001AF068FAE2
:1052C000F3E70122054B5242CEE7C04640420F00B1
:1052D000D01C0020295000104C2C0020FFFFFF7F25
:1052E0000FB400B583B004A901C90191FFF7B0FF65
:1052F00003B008BC04B0184710B500F0BFF800F0C8
:10530000C1FA012010BDC046F0B5002915DD0E4BD5
:105310000D271A680D4B4118D3185C4263410C4CA1
:105320005B001E5F20240578AE4207D093691C42C3
:10533000FCD1013015608842F5D1F0BD93691C4263
:10534000FCD11760F2E7C046DC7200200080FCBF91
:105350001874002030B5002923DD1B4B1A689369AF
:10536000DB061ED4002510240138013593691C4248
:10537000FCD113684355A94202D093691C42F4D072
:10538000124B1B68002B0AD050239363516B183BC0
:1053900034320B401100802252010A43136028006E
:1053A00030BD0A4B1B68002B0BD050223821064B16
:1053B0001B689A635A6B34331140802252011343A5
:1053C000196003256D42EAE7DC720020882B00207B
:1053D000064B10B51B68002B06D00021044A12684A
:1053E0009163044A1068984710BDC046882B00207E
:1053F000DC720020902B0020F0B51B4F1B4A3B684D
:105400000500981842425041C646194E143000B566
:10541000884604003268002D08D0002A11D0424688
:10542000144B35601A6004BC9046F0BD002AF6D0DB
:105430009D630021FBF72AFC0F492000FBF778FD54
:10544000EDE70D49FBF766FC01212000FBF71EFC90
:10545000502238213B689A635A6B343311408022C2
:10546000520113431960DAE7DC7200200080FCBFB0
:10547000882B0020902B0020D15300100C4B10B52E
:105480001B780C4B0C4C1B780C4B0221002023602A
:10549000FBF76CFA02210120FBF768FAE121206892
:1054A0004902FDF74DF901210548FFF7B9FE10BD8E
:1054B00044FE051048FE0510DC7200200040034049
:1054C000E01300207047C0460022014B1A7070475D
:1054D000ED7300204B790020FF2B0BD18B79002B33
:1054E00008D1CB79012B05D1082A03D98A78024B40
:1054F00009301A707047C046ED73002001207047D4
:1055000070B5012909D115495379107909781B0221
:1055100003430020994202D070BD0120FCE753787C
:10552000012B08D0022BF7D1002064220021FDF7C7
:1055300093FB0120F0E7D478917824020C43050016
:10554000E20502D5620A93401D000548FFF70CF8FA
:105550007F210300214028009847C046ED730020BA
:1055600055420000012303700048704708000210F4
:105570004A780B7812021A438B7810B51B041A4331
:10558000CB781B0613439622D200934200D010BD65
:105590000348FEF7E9FF0021030008009847C046D2
:1055A00055420000024B1860024B19607047C0461C
:1055B0008C2B0020942B0020114B70B51A68002A08
:1055C0001AD0EFF3108172B610680028FCD0BFF338
:1055D0005F8F00220B48596002701B68BFF35F8F1A
:1055E0001A6081F3108800240025074B1878FBF718
:1055F0006BFB2900200070BDFA240025A400F4E70D
:10560000B46A0020F4730020F273002010B5024B3E
:105610001878FBF759FB10BDF273002070B5050038
:1056200000200E0001F046FB002835D0002001F0DC
:1056300059FB002830D0FCF725FB0023184A12182C
:105640004B41002B24DB174C20001AF009F90028ED
:1056500022D0002001F02EFB00280BD101200021D8
:105660004042032500F0E6FC6D4220001AF090F85D
:10567000280070BD002001F035FB0028EED0290085
:105680003200002001F03AFB051EEED1033DECE7AD
:105690000122054B5242D6E703256D42E8E7C0469A
:1056A00040420F00B0720020FFFFFF7FF0B5D646EA
:1056B0004F464646C0B507000E00FCF7E3FA00234C
:1056C000394A12184B41002B5EDB384908008846E6
:1056D0001AF0C6F8002804D11CBC90469946A24690
:1056E000F0BD002001F0E6FA002851D00024002E81
:1056F00035DD2F4B99469A4615E0002851D10120FF
:105700000021404200F096FC002001F02FFB002019
:1057100001F0D0FA002822D0002001F07DFB002803
:1057200021D0A6421BDD0020351B01F075FB854210
:10573000E3DC2A003919002001F054FB05000120A8
:105740000021404200F076FC002001F00FFBFCF746
:1057500099FA4B46641918605960A642E3DC40464A
:105760001AF016F8B8E7FCF78DFA00230D00514641
:10577000104A84460868496812184B419D42EED889
:10578000CFD19445CDD9EAE701220B4B52429CE799
:1057900000200021064B18605960404619F0F8FFC0
:1057A0009AE70500C5E7C04640420F00B0720020EE
:1057B000581E002020A10700FFFFFF7F10B5244CDA
:1057C00084B0002120001AF02BF800281CD1214BB6
:1057D0001A68002A16D0EFF3108172B610680028FC
:1057E000FCD0BFF35F8F01241B48596002781B680F
:1057F000D2B20470BFF35F8F0020186081F310886D
:10580000002A0AD004B010BD01200021404200F05F
:1058100011FC200019F0BCFFF4E7FBF721FF0400A6
:10582000FCF730FAFA220023920012184B41002BA9
:1058300009DB01210291002101910849200000911A
:10584000FBF76EFFDEE70122054B5242F1E7C0464F
:10585000B0720020B46A0020F4730020B955001023
:10586000FFFFFF7F054B10B51868002804D0044BDC
:105870000022196801F082F810BDC0468C2B002070
:10588000942B0020D02310B51B0684B01C68FBF7B6
:10589000E7FEFCF793F8A04202D0002004B010BD50
:1058A000264B1B7801F0C8FC2548FBF7CFFC0120F4
:1058B000FBF7A0FCFF23234C234920701840FBF783
:1058C00029FA20780121FBF7E1F90520FBF704FA1A
:1058D000002822D1FBF7C4FE0400FCF7D3F9FA221A
:1058E0000023920012184B41002B22DB0121029170
:1058F00000210191154920000091FBF711FF0822BA
:10590000040000211248FFF7B1FA002CC5DB114852
:105910000121FFF785FC0120C0E700220E49052088
:10592000FBF722FAFBF796F901000948FBF7BAFCEE
:10593000EDE70122094B5242D8E7C0464CFE051064
:10594000B0720020F2730020BD570010B95500104E
:10595000B46A0020F81300200D560010FFFFFF7FEF
:1059600000487047B80002100048704764000210F9
:1059700070B5040016480378002B20D0002C18D0F6
:10598000052C23D8134B1448A400E558811C002390
:1059900004E001330A800231132B14D0EA5CDCB23C
:1059A000002AF6D1C023013464009B001C4304800C
:1059B00070BDC1240848094BA4004380F7E71121BA
:1059C00000F01EF8DAE7CA24A400F0E70020EFE7B1
:1059D000E0720020CC000210242C002009040000FA
:1059E00010B5024800F0F2F810BDC046DC6A002095
:1059F00010B508220149FFF73FFA10BDDC6A00200C
:105A0000013930B5002900D1B8E06F4B1A78121176
:105A1000D5B22C003034092A00DDB2E0047001292F
:105A200000D1CEE00F221C78224014003034092A25
:105A300000D9A8E04470022900D1C2E05A781211BE
:105A4000D5B22C003034092A00DD9FE08470032990
:105A500000D1B6E00F225C78224014003034092ACD
:105A600000D995E0C470042900D1AAE09A781211F7
:105A7000D5B22C003034092A00DD8CE004710529F0
:105A800000D19EE00F229C78224014003034092A75
:105A900000D982E04471062900D192E0DA7812112F
:105AA000D5B22C003034092A00DD79E08471072951
:105AB00000D186E00F22DC78224014003034092A1D
:105AC00000D96FE0C471082900D17AE01A79121167
:105AD000D5B22C003034092A67DC0472092900D1C0
